{
  "contractName": "Account",
  "abi": [
    {
      "constant": true,
      "inputs": [
        {
          "name": "",
          "type": "uint256"
        }
      ],
      "name": "participateArr",
      "outputs": [
        {
          "name": "",
          "type": "address"
        }
      ],
      "payable": false,
      "stateMutability": "view",
      "type": "function"
    },
    {
      "constant": true,
      "inputs": [],
      "name": "_createId",
      "outputs": [
        {
          "name": "",
          "type": "uint256"
        }
      ],
      "payable": false,
      "stateMutability": "view",
      "type": "function"
    },
    {
      "constant": true,
      "inputs": [],
      "name": "owner",
      "outputs": [
        {
          "name": "",
          "type": "address"
        }
      ],
      "payable": false,
      "stateMutability": "view",
      "type": "function"
    },
    {
      "constant": true,
      "inputs": [
        {
          "name": "_str1",
          "type": "string"
        },
        {
          "name": "_str2",
          "type": "string"
        }
      ],
      "name": "isStrEqual",
      "outputs": [
        {
          "name": "",
          "type": "bool"
        }
      ],
      "payable": false,
      "stateMutability": "pure",
      "type": "function"
    },
    {
      "constant": true,
      "inputs": [
        {
          "name": "",
          "type": "address"
        }
      ],
      "name": "addressToIdentity",
      "outputs": [
        {
          "name": "identity",
          "type": "string"
        },
        {
          "name": "isVaild",
          "type": "bool"
        }
      ],
      "payable": false,
      "stateMutability": "view",
      "type": "function"
    },
    {
      "constant": false,
      "inputs": [
        {
          "name": "newOwner",
          "type": "address"
        }
      ],
      "name": "transferOwnership",
      "outputs": [],
      "payable": false,
      "stateMutability": "nonpayable",
      "type": "function"
    },
    {
      "anonymous": false,
      "inputs": [
        {
          "indexed": false,
          "name": "_address",
          "type": "address"
        },
        {
          "indexed": false,
          "name": "_str",
          "type": "string"
        }
      ],
      "name": "identitySetSucc",
      "type": "event"
    },
    {
      "anonymous": false,
      "inputs": [
        {
          "indexed": true,
          "name": "previousOwner",
          "type": "address"
        },
        {
          "indexed": true,
          "name": "newOwner",
          "type": "address"
        }
      ],
      "name": "OwnershipTransferred",
      "type": "event"
    },
    {
      "constant": false,
      "inputs": [
        {
          "name": "_address",
          "type": "address"
        },
        {
          "name": "_str",
          "type": "string"
        }
      ],
      "name": "setIdentity",
      "outputs": [],
      "payable": false,
      "stateMutability": "nonpayable",
      "type": "function"
    },
    {
      "constant": true,
      "inputs": [],
      "name": "getIdentityArrLength",
      "outputs": [
        {
          "name": "",
          "type": "uint256"
        }
      ],
      "payable": false,
      "stateMutability": "view",
      "type": "function"
    }
  ],
  "bytecode": "0x6060604052662386f26fc100006001556040805190810160405280600781526020017f70726f64756365000000000000000000000000000000000000000000000000008152506002908051906020019061005a9291906101d0565b506040805190810160405280600781526020017f6d696c6b696e6700000000000000000000000000000000000000000000000000815250600390805190602001906100a69291906101d0565b506040805190810160405280600781526020017f70726f6365737300000000000000000000000000000000000000000000000000815250600490805190602001906100f29291906101d0565b506040805190810160405280600c81526020017f73746f72654578707265737300000000000000000000000000000000000000008152506005908051906020019061013e9291906101d0565b506040805190810160405280600481526020017f73656c6c000000000000000000000000000000000000000000000000000000008152506006908051906020019061018a9291906101d0565b50336000806101000a81548173ffffffffffffffffffffffffffffffffffffffff021916908373ffffffffffffffffffffffffffffffffffffffff160217905550610275565b828054600181600116156101000203166002900490600052602060002090601f016020900481019282601f1061021157805160ff191683800117855561023f565b8280016001018555821561023f579182015b8281111561023e578251825591602001919060010190610223565b5b50905061024c9190610250565b5090565b61027291905b8082111561026e576000816000905550600101610256565b5090565b90565b610a28806102846000396000f30060606040526004361061008e576000357c0100000000000000000000000000000000000000000000000000000000900463ffffffff1680630c430c38146100935780631ea47a10146100f6578063897cab171461011f5780638da5cb5b1461019b578063d4cbd9d4146101f0578063eb4e9b09146102a8578063f2fde38b14610382578063f8262ac8146103bb575b600080fd5b341561009e57600080fd5b6100b460048080359060200190919050506103e4565b604051808273ffffffffffffffffffffffffffffffffffffffff1673ffffffffffffffffffffffffffffffffffffffff16815260200191505060405180910390f35b341561010157600080fd5b610109610423565b6040518082815260200191505060405180910390f35b341561012a57600080fd5b610199600480803573ffffffffffffffffffffffffffffffffffffffff1690602001909190803590602001908201803590602001908080601f01602080910402602001604051908101604052809392919081815260200183838082843782019150505050505091905050610456565b005b34156101a657600080fd5b6101ae61069b565b604051808273ffffffffffffffffffffffffffffffffffffffff1673ffffffffffffffffffffffffffffffffffffffff16815260200191505060405180910390f35b34156101fb57600080fd5b61028e600480803590602001908201803590602001908080601f0160208091040260200160405190810160405280939291908181526020018383808284378201915050505050509190803590602001908201803590602001908080601f016020809104026020016040519081016040528093929190818152602001838380828437820191505050505050919050506106c0565b604051808215151515815260200191505060405180910390f35b34156102b357600080fd5b6102df600480803573ffffffffffffffffffffffffffffffffffffffff16906020019091905050610799565b6040518080602001831515151581526020018281038252848181546001816001161561010002031660029004815260200191508054600181600116156101000203166002900480156103725780601f1061034757610100808354040283529160200191610372565b820191906000526020600020905b81548152906001019060200180831161035557829003601f168201915b5050935050505060405180910390f35b341561038d57600080fd5b6103b9600480803573ffffffffffffffffffffffffffffffffffffffff169060200190919050506107c9565b005b34156103c657600080fd5b6103ce61091e565b6040518082815260200191505060405180910390f35b6007818154811015156103f357fe5b90600052602060002090016000915054906101000a900473ffffffffffffffffffffffffffffffffffffffff1681565b600080426040518082815260200191505060405180910390206001900490506001548181151561044f57fe5b0691505090565b600860008373ffffffffffffffffffffffffffffffffffffffff1673ffffffffffffffffffffffffffffffffffffffff16815260200190815260200160002060010160009054906101000a900460ff161515156104b257600080fd5b80600860008473ffffffffffffffffffffffffffffffffffffffff1673ffffffffffffffffffffffffffffffffffffffff168152602001908152602001600020600001908051906020019061050892919061092b565b506001600860008473ffffffffffffffffffffffffffffffffffffffff1673ffffffffffffffffffffffffffffffffffffffff16815260200190815260200160002060010160006101000a81548160ff0219169083151502179055506007805480600101828161057891906109ab565b9160005260206000209001600084909190916101000a81548173ffffffffffffffffffffffffffffffffffffffff021916908373ffffffffffffffffffffffffffffffffffffffff160217905550507f30c866340f6b6c54e0aff2b1bdaf8f0215da88d148833e1b6fd123f81d790c908282604051808373ffffffffffffffffffffffffffffffffffffffff1673ffffffffffffffffffffffffffffffffffffffff16815260200180602001828103825283818151815260200191508051906020019080838360005b8381101561065c578082015181840152602081019050610641565b50505050905090810190601f1680156106895780820380516001836020036101000a031916815260200191505b50935050505060405180910390a15050565b6000809054906101000a900473ffffffffffffffffffffffffffffffffffffffff1681565b6000816040518082805190602001908083835b6020831015156106f857805182526020820191506020810190506020830392506106d3565b6001836020036101000a038019825116818451168082178552505050505050905001915050604051809103902060001916836040518082805190602001908083835b60208310151561075f578051825260208201915060208101905060208303925061073a565b6001836020036101000a03801982511681845116808217855250505050505090500191505060405180910390206000191614905092915050565b600860205280600052604060002060009150905080600001908060010160009054906101000a900460ff16905082565b6000809054906101000a900473ffffffffffffffffffffffffffffffffffffffff1673ffffffffffffffffffffffffffffffffffffffff163373ffffffffffffffffffffffffffffffffffffffff1614151561082457600080fd5b600073ffffffffffffffffffffffffffffffffffffffff168173ffffffffffffffffffffffffffffffffffffffff161415151561086057600080fd5b8073ffffffffffffffffffffffffffffffffffffffff166000809054906101000a900473ffffffffffffffffffffffffffffffffffffffff1673ffffffffffffffffffffffffffffffffffffffff167f8be0079c531659141344cd1fd0a4f28419497f9722a3daafe3b4186f6b6457e060405160405180910390a3806000806101000a81548173ffffffffffffffffffffffffffffffffffffffff021916908373ffffffffffffffffffffffffffffffffffffffff16021790555050565b6000600780549050905090565b828054600181600116156101000203166002900490600052602060002090601f016020900481019282601f1061096c57805160ff191683800117855561099a565b8280016001018555821561099a579182015b8281111561099957825182559160200191906001019061097e565b5b5090506109a791906109d7565b5090565b8154818355818115116109d2578183600052602060002091820191016109d191906109d7565b5b505050565b6109f991905b808211156109f55760008160009055506001016109dd565b5090565b905600a165627a7a723058208aa30784759f6f26c3594ef4b27dacfb65341c5f5a975213aac1ddba66d480190029",
  "source": "pragma solidity ^0.4.19;\r\n\r\nimport './Ownable.sol';\r\nimport './Utils.sol';\r\n\r\n//json库使用不了\r\n// import \"./utils/LibString.sol\";\r\n// import \"./utils/LibInt.sol\";\r\n\r\ncontract Account is Ownable, Utils{\r\n    // using LibString for * ;\r\n    // using LibInt for *;\r\n    // 身份字符串；\r\n    string PRODUCE = 'produce';\r\n    string MILKING = 'milking';\r\n    string PROCESS = 'process';\r\n    string STOREEXPRESS ='storeExpress';\r\n    string SELL = 'sell';\r\n    // 身份设定成功事件\r\n    event identitySetSucc(address _address, string _str); \r\n\r\n    address[] public participateArr;\r\n    // 这两个结构都是 有ber而来\r\n    struct Member{\r\n        string identity;\r\n        bool isVaild;\r\n    }\r\n    // 地址和对应的身份   0x123456 ===> 'produce' ---为了方便根据地址查询身份的方便\r\n    mapping(address => Member) public addressToIdentity;\r\n    // 给一个账户地址设定一个身份------**这个和后续准入机制有关**\r\n\r\n    function setIdentity(address _address, string _str) public {\r\n        require(!addressToIdentity[_address].isVaild);\r\n        addressToIdentity[_address].identity = _str;\r\n        addressToIdentity[_address].isVaild = true;\r\n        participateArr.push(_address);\r\n        // participateArr.push(MemberInfo(_address,_str));\r\n        identitySetSucc(_address, _str);\r\n    }\r\n\r\n    // 放回参与方地址集合的 数组长度\r\n    function getIdentityArrLength() public view returns(uint){\r\n        return participateArr.length;\r\n    }\r\n\r\n    // 判断地址数组中是否存在这个地址的方法 最高效的是用mapping判断\r\n    // 判断是否是参与者的 定义的函数修饰符；`\r\n    modifier onlyparticipate(address _address) {\r\n        require(addressToIdentity[_address].isVaild);\r\n        _;\r\n    }\r\n}",
  "sourcePath": "C:\\Users\\keruisiya\\Desktop\\溯源实践\\合约练习\\truffle-vue-master\\contracts\\Account.sol",
  "compiler": {
    "name": "solc",
    "version": "0.4.19+commit.c4cbbb05.Emscripten.clang"
  },
  "schemaVersion": "3.0.23",
  "updatedAt": "2021-01-04T11:28:38.518Z",
  "devdoc": {
    "methods": {
      "transferOwnership(address)": {
        "details": "Allows the current owner to transfer control of the contract to a newOwner.\r",
        "params": {
          "newOwner": "The address to transfer ownership to.\r"
        }
      }
    }
  },
  "userdoc": {
    "methods": {}
  }
}