{
  "contractName": "Account",
  "abi": [
    {
      "constant": true,
      "inputs": [
        {
          "name": "",
          "type": "uint256"
        }
      ],
      "name": "participateArr",
      "outputs": [
        {
          "name": "",
          "type": "address"
        }
      ],
      "payable": false,
      "stateMutability": "view",
      "type": "function"
    },
    {
      "constant": true,
      "inputs": [],
      "name": "_createId",
      "outputs": [
        {
          "name": "",
          "type": "uint256"
        }
      ],
      "payable": false,
      "stateMutability": "view",
      "type": "function"
    },
    {
      "constant": true,
      "inputs": [],
      "name": "owner",
      "outputs": [
        {
          "name": "",
          "type": "address"
        }
      ],
      "payable": false,
      "stateMutability": "view",
      "type": "function"
    },
    {
      "constant": true,
      "inputs": [
        {
          "name": "_str1",
          "type": "string"
        },
        {
          "name": "_str2",
          "type": "string"
        }
      ],
      "name": "isStrEqual",
      "outputs": [
        {
          "name": "",
          "type": "bool"
        }
      ],
      "payable": false,
      "stateMutability": "pure",
      "type": "function"
    },
    {
      "constant": true,
      "inputs": [
        {
          "name": "",
          "type": "address"
        }
      ],
      "name": "addressToIdentity",
      "outputs": [
        {
          "name": "identity",
          "type": "string"
        },
        {
          "name": "isVaild",
          "type": "bool"
        }
      ],
      "payable": false,
      "stateMutability": "view",
      "type": "function"
    },
    {
      "constant": false,
      "inputs": [
        {
          "name": "newOwner",
          "type": "address"
        }
      ],
      "name": "transferOwnership",
      "outputs": [],
      "payable": false,
      "stateMutability": "nonpayable",
      "type": "function"
    },
    {
      "anonymous": false,
      "inputs": [
        {
          "indexed": false,
          "name": "_address",
          "type": "address"
        },
        {
          "indexed": false,
          "name": "_str",
          "type": "string"
        }
      ],
      "name": "identitySetSucc",
      "type": "event"
    },
    {
      "anonymous": false,
      "inputs": [
        {
          "indexed": true,
          "name": "previousOwner",
          "type": "address"
        },
        {
          "indexed": true,
          "name": "newOwner",
          "type": "address"
        }
      ],
      "name": "OwnershipTransferred",
      "type": "event"
    },
    {
      "constant": false,
      "inputs": [
        {
          "name": "_address",
          "type": "address"
        },
        {
          "name": "_str",
          "type": "string"
        }
      ],
      "name": "setIdentity",
      "outputs": [],
      "payable": false,
      "stateMutability": "nonpayable",
      "type": "function"
    },
    {
      "constant": true,
      "inputs": [],
      "name": "getIdentityArrLength",
      "outputs": [
        {
          "name": "",
          "type": "uint256"
        }
      ],
      "payable": false,
      "stateMutability": "view",
      "type": "function"
    },
    {
      "constant": true,
      "inputs": [
        {
          "name": "_address",
          "type": "address"
        }
      ],
      "name": "getIdentity",
      "outputs": [
        {
          "name": "",
          "type": "string"
        }
      ],
      "payable": false,
      "stateMutability": "view",
      "type": "function"
    }
  ],
  "bytecode": "0x6060604052662386f26fc100006001556040805190810160405280600781526020017f70726f6475636500000000000000000000000000000000000000000000000000815250600290805190602001906200005c929190620001db565b506040805190810160405280600781526020017f6d696c6b696e670000000000000000000000000000000000000000000000000081525060039080519060200190620000aa929190620001db565b506040805190810160405280600781526020017f70726f636573730000000000000000000000000000000000000000000000000081525060049080519060200190620000f8929190620001db565b506040805190810160405280600c81526020017f73746f72654578707265737300000000000000000000000000000000000000008152506005908051906020019062000146929190620001db565b506040805190810160405280600481526020017f73656c6c000000000000000000000000000000000000000000000000000000008152506006908051906020019062000194929190620001db565b50336000806101000a81548173ffffffffffffffffffffffffffffffffffffffff021916908373ffffffffffffffffffffffffffffffffffffffff1602179055506200028a565b828054600181600116156101000203166002900490600052602060002090601f016020900481019282601f106200021e57805160ff19168380011785556200024f565b828001600101855582156200024f579182015b828111156200024e57825182559160200191906001019062000231565b5b5090506200025e919062000262565b5090565b6200028791905b808211156200028357600081600090555060010162000269565b5090565b90565b610be3806200029a6000396000f300606060405260043610610099576000357c0100000000000000000000000000000000000000000000000000000000900463ffffffff1680630c430c381461009e5780631ea47a10146101015780632fea7b811461012a578063897cab17146101dc5780638da5cb5b14610258578063d4cbd9d4146102ad578063eb4e9b0914610365578063f2fde38b1461043f578063f8262ac814610478575b600080fd5b34156100a957600080fd5b6100bf60048080359060200190919050506104a1565b604051808273ffffffffffffffffffffffffffffffffffffffff1673ffffffffffffffffffffffffffffffffffffffff16815260200191505060405180910390f35b341561010c57600080fd5b6101146104e0565b6040518082815260200191505060405180910390f35b341561013557600080fd5b610161600480803573ffffffffffffffffffffffffffffffffffffffff16906020019091905050610513565b6040518080602001828103825283818151815260200191508051906020019080838360005b838110156101a1578082015181840152602081019050610186565b50505050905090810190601f1680156101ce5780820380516001836020036101000a031916815260200191505b509250505060405180910390f35b34156101e757600080fd5b610256600480803573ffffffffffffffffffffffffffffffffffffffff1690602001909190803590602001908201803590602001908080601f016020809104026020016040519081016040528093929190818152602001838380828437820191505050505050919050506105fd565b005b341561026357600080fd5b61026b610842565b604051808273ffffffffffffffffffffffffffffffffffffffff1673ffffffffffffffffffffffffffffffffffffffff16815260200191505060405180910390f35b34156102b857600080fd5b61034b600480803590602001908201803590602001908080601f0160208091040260200160405190810160405280939291908181526020018383808284378201915050505050509190803590602001908201803590602001908080601f01602080910402602001604051908101604052809392919081815260200183838082843782019150505050505091905050610867565b604051808215151515815260200191505060405180910390f35b341561037057600080fd5b61039c600480803573ffffffffffffffffffffffffffffffffffffffff16906020019091905050610940565b60405180806020018315151515815260200182810382528481815460018160011615610100020316600290048152602001915080546001816001161561010002031660029004801561042f5780601f106104045761010080835404028352916020019161042f565b820191906000526020600020905b81548152906001019060200180831161041257829003601f168201915b5050935050505060405180910390f35b341561044a57600080fd5b610476600480803573ffffffffffffffffffffffffffffffffffffffff16906020019091905050610970565b005b341561048357600080fd5b61048b610ac5565b6040518082815260200191505060405180910390f35b6007818154811015156104b057fe5b90600052602060002090016000915054906101000a900473ffffffffffffffffffffffffffffffffffffffff1681565b600080426040518082815260200191505060405180910390206001900490506001548181151561050c57fe5b0691505090565b61051b610ad2565b600860008373ffffffffffffffffffffffffffffffffffffffff1673ffffffffffffffffffffffffffffffffffffffff1681526020019081526020016000206000018054600181600116156101000203166002900480601f0160208091040260200160405190810160405280929190818152602001828054600181600116156101000203166002900480156105f15780601f106105c6576101008083540402835291602001916105f1565b820191906000526020600020905b8154815290600101906020018083116105d457829003601f168201915b50505050509050919050565b600860008373ffffffffffffffffffffffffffffffffffffffff1673ffffffffffffffffffffffffffffffffffffffff16815260200190815260200160002060010160009054906101000a900460ff1615151561065957600080fd5b80600860008473ffffffffffffffffffffffffffffffffffffffff1673ffffffffffffffffffffffffffffffffffffffff16815260200190815260200160002060000190805190602001906106af929190610ae6565b506001600860008473ffffffffffffffffffffffffffffffffffffffff1673ffffffffffffffffffffffffffffffffffffffff16815260200190815260200160002060010160006101000a81548160ff0219169083151502179055506007805480600101828161071f9190610b66565b9160005260206000209001600084909190916101000a81548173ffffffffffffffffffffffffffffffffffffffff021916908373ffffffffffffffffffffffffffffffffffffffff160217905550507f30c866340f6b6c54e0aff2b1bdaf8f0215da88d148833e1b6fd123f81d790c908282604051808373ffffffffffffffffffffffffffffffffffffffff1673ffffffffffffffffffffffffffffffffffffffff16815260200180602001828103825283818151815260200191508051906020019080838360005b838110156108035780820151818401526020810190506107e8565b50505050905090810190601f1680156108305780820380516001836020036101000a031916815260200191505b50935050505060405180910390a15050565b6000809054906101000a900473ffffffffffffffffffffffffffffffffffffffff1681565b6000816040518082805190602001908083835b60208310151561089f578051825260208201915060208101905060208303925061087a565b6001836020036101000a038019825116818451168082178552505050505050905001915050604051809103902060001916836040518082805190602001908083835b60208310151561090657805182526020820191506020810190506020830392506108e1565b6001836020036101000a03801982511681845116808217855250505050505090500191505060405180910390206000191614905092915050565b600860205280600052604060002060009150905080600001908060010160009054906101000a900460ff16905082565b6000809054906101000a900473ffffffffffffffffffffffffffffffffffffffff1673ffffffffffffffffffffffffffffffffffffffff163373ffffffffffffffffffffffffffffffffffffffff161415156109cb57600080fd5b600073ffffffffffffffffffffffffffffffffffffffff168173ffffffffffffffffffffffffffffffffffffffff1614151515610a0757600080fd5b8073ffffffffffffffffffffffffffffffffffffffff166000809054906101000a900473ffffffffffffffffffffffffffffffffffffffff1673ffffffffffffffffffffffffffffffffffffffff167f8be0079c531659141344cd1fd0a4f28419497f9722a3daafe3b4186f6b6457e060405160405180910390a3806000806101000a81548173ffffffffffffffffffffffffffffffffffffffff021916908373ffffffffffffffffffffffffffffffffffffffff16021790555050565b6000600780549050905090565b602060405190810160405280600081525090565b828054600181600116156101000203166002900490600052602060002090601f016020900481019282601f10610b2757805160ff1916838001178555610b55565b82800160010185558215610b55579182015b82811115610b54578251825591602001919060010190610b39565b5b509050610b629190610b92565b5090565b815481835581811511610b8d57818360005260206000209182019101610b8c9190610b92565b5b505050565b610bb491905b80821115610bb0576000816000905550600101610b98565b5090565b905600a165627a7a72305820d6b41e9cdd9ef5a6c630c849a14772fae0d456972f0f183f002b835e6fa5e5230029",
  "source": "pragma solidity ^0.4.19;\r\n\r\nimport './Ownable.sol';\r\nimport './Utils.sol';\r\n\r\ncontract Account is Ownable, Utils{\r\n    // 身份字符串；\r\n    string PRODUCE = 'produce';\r\n    string MILKING = 'milking';\r\n    string PROCESS = 'process';\r\n    string STOREEXPRESS ='storeExpress';\r\n    string SELL = 'sell';\r\n\r\n    // 参与方集合---为了循环mapping\r\n    // address[] public participateArr;\r\n\r\n    // 考虑是否需要这个结构？\r\n    // 生产商集合\r\n    // address[] public produceArr;\r\n    // jinai厂集合\r\n    // address[] public milkingArr;\r\n    // 加工厂集合\r\n    // address[] public processArr;\r\n    // 存储与物流集合\r\n    // address[] public storeExpressArr;\r\n    // 销售商集合\r\n    // address[] public sellArr;\r\n\r\n    // 身份设定成功事件\r\n    event identitySetSucc(address _address, string _str); \r\n\r\n    address[] public participateArr;\r\n    // 这两个结构都是 有ber而来\r\n    struct Member{\r\n        string identity;\r\n        bool isVaild;\r\n    }\r\n    // // 为了getAllIdentity返回值所设的结构\r\n    // struct MemberInfo{\r\n    //     address accountAdd;\r\n    //     string identity;\r\n    // }\r\n    // 如果要指定权限就去掉public 使用getAllIdentity获取\r\n    // MemberInfo[] public participateArr;\r\n\r\n    // 地址和对应的身份   0x123456 ===> 'produce' ---为了方便根据地址查询身份的方便\r\n    mapping(address => Member) public addressToIdentity;\r\n    // 给一个账户地址设定一个身份------**这个和后续准入机制有关**\r\n    function setIdentity(address _address, string _str) public {\r\n        require(!addressToIdentity[_address].isVaild);\r\n        addressToIdentity[_address].identity = _str;\r\n        addressToIdentity[_address].isVaild = true;\r\n        participateArr.push(_address);\r\n        // participateArr.push(MemberInfo(_address,_str));\r\n        identitySetSucc(_address, _str);\r\n    }\r\n\r\n    // 放回参与方地址集合的 数组长度\r\n    function getIdentityArrLength() public view returns(uint){\r\n        return participateArr.length;\r\n    }\r\n    \r\n    // 展示所有的参与者身份---------solidity无法返回结构体形式的数组\r\n    function getIdentity(address _address) public view returns(string){\r\n        return addressToIdentity[_address].identity;\r\n    }\r\n\r\n\r\n    // 判断地址数组中是否存在这个地址的方法 最高效的是用mapping判断\r\n    // 判断是否是参与者的 定义的函数修饰符；`\r\n    modifier onlyparticipate(address _address) {\r\n        require(addressToIdentity[_address].isVaild);\r\n        _;\r\n    }\r\n}",
  "sourcePath": "C:\\Users\\keruisiya\\Desktop\\溯源实践\\合约练习\\truffle-vue-master\\contracts\\Account.sol",
  "compiler": {
    "name": "solc",
    "version": "0.4.19+commit.c4cbbb05.Emscripten.clang"
  },
  "schemaVersion": "3.0.23",
  "updatedAt": "2020-12-02T08:12:18.182Z",
  "devdoc": {
    "methods": {
      "transferOwnership(address)": {
        "details": "Allows the current owner to transfer control of the contract to a newOwner.\r",
        "params": {
          "newOwner": "The address to transfer ownership to.\r"
        }
      }
    }
  },
  "userdoc": {
    "methods": {}
  }
}