{
  "contractName": "Account",
  "abi": [
    {
      "constant": true,
      "inputs": [
        {
          "name": "",
          "type": "uint256"
        }
      ],
      "name": "participateArr",
      "outputs": [
        {
          "name": "",
          "type": "address"
        }
      ],
      "payable": false,
      "stateMutability": "view",
      "type": "function"
    },
    {
      "constant": true,
      "inputs": [],
      "name": "_createId",
      "outputs": [
        {
          "name": "",
          "type": "uint256"
        }
      ],
      "payable": false,
      "stateMutability": "view",
      "type": "function"
    },
    {
      "constant": true,
      "inputs": [],
      "name": "owner",
      "outputs": [
        {
          "name": "",
          "type": "address"
        }
      ],
      "payable": false,
      "stateMutability": "view",
      "type": "function"
    },
    {
      "constant": true,
      "inputs": [
        {
          "name": "_str1",
          "type": "string"
        },
        {
          "name": "_str2",
          "type": "string"
        }
      ],
      "name": "isStrEqual",
      "outputs": [
        {
          "name": "",
          "type": "bool"
        }
      ],
      "payable": false,
      "stateMutability": "pure",
      "type": "function"
    },
    {
      "constant": true,
      "inputs": [
        {
          "name": "",
          "type": "address"
        }
      ],
      "name": "addressToIdentity",
      "outputs": [
        {
          "name": "identity",
          "type": "string"
        },
        {
          "name": "isVaild",
          "type": "bool"
        },
        {
          "name": "isExist",
          "type": "bool"
        },
        {
          "name": "applyDate",
          "type": "string"
        }
      ],
      "payable": false,
      "stateMutability": "view",
      "type": "function"
    },
    {
      "constant": false,
      "inputs": [
        {
          "name": "newOwner",
          "type": "address"
        }
      ],
      "name": "transferOwnership",
      "outputs": [],
      "payable": false,
      "stateMutability": "nonpayable",
      "type": "function"
    },
    {
      "anonymous": false,
      "inputs": [
        {
          "indexed": false,
          "name": "_address",
          "type": "address"
        },
        {
          "indexed": false,
          "name": "_str",
          "type": "string"
        }
      ],
      "name": "identitySetSucc",
      "type": "event"
    },
    {
      "anonymous": false,
      "inputs": [
        {
          "indexed": true,
          "name": "previousOwner",
          "type": "address"
        },
        {
          "indexed": true,
          "name": "newOwner",
          "type": "address"
        }
      ],
      "name": "OwnershipTransferred",
      "type": "event"
    },
    {
      "constant": false,
      "inputs": [
        {
          "name": "_address",
          "type": "address"
        },
        {
          "name": "_str",
          "type": "string"
        },
        {
          "name": "_date",
          "type": "string"
        }
      ],
      "name": "setIdentity",
      "outputs": [],
      "payable": false,
      "stateMutability": "nonpayable",
      "type": "function"
    },
    {
      "constant": false,
      "inputs": [
        {
          "name": "_address",
          "type": "address"
        }
      ],
      "name": "confirmIdentity",
      "outputs": [],
      "payable": false,
      "stateMutability": "nonpayable",
      "type": "function"
    },
    {
      "constant": true,
      "inputs": [],
      "name": "getIdentityArrLength",
      "outputs": [
        {
          "name": "",
          "type": "uint256"
        }
      ],
      "payable": false,
      "stateMutability": "view",
      "type": "function"
    }
  ],
  "bytecode": "0x6060604052620186a06001556040805190810160405280600781526020017f70726f64756365000000000000000000000000000000000000000000000000008152506002908051906020019062000058929190620001d7565b506040805190810160405280600781526020017f6d696c6b696e670000000000000000000000000000000000000000000000000081525060039080519060200190620000a6929190620001d7565b506040805190810160405280600781526020017f70726f636573730000000000000000000000000000000000000000000000000081525060049080519060200190620000f4929190620001d7565b506040805190810160405280600c81526020017f73746f72654578707265737300000000000000000000000000000000000000008152506005908051906020019062000142929190620001d7565b506040805190810160405280600481526020017f73656c6c000000000000000000000000000000000000000000000000000000008152506006908051906020019062000190929190620001d7565b50336000806101000a81548173ffffffffffffffffffffffffffffffffffffffff021916908373ffffffffffffffffffffffffffffffffffffffff16021790555062000286565b828054600181600116156101000203166002900490600052602060002090601f016020900481019282601f106200021a57805160ff19168380011785556200024b565b828001600101855582156200024b579182015b828111156200024a5782518255916020019190600101906200022d565b5b5090506200025a91906200025e565b5090565b6200028391905b808211156200027f57600081600090555060010162000265565b5090565b90565b610d2180620002966000396000f300606060405260043610610099576000357c0100000000000000000000000000000000000000000000000000000000900463ffffffff1680630c430c381461009e5780631ea47a10146101015780633d6034b71461012a57806385af965a146101e95780638da5cb5b14610222578063d4cbd9d414610277578063eb4e9b091461032f578063f2fde38b1461049d578063f8262ac8146104d6575b600080fd5b34156100a957600080fd5b6100bf60048080359060200190919050506104ff565b604051808273ffffffffffffffffffffffffffffffffffffffff1673ffffffffffffffffffffffffffffffffffffffff16815260200191505060405180910390f35b341561010c57600080fd5b61011461053e565b6040518082815260200191505060405180910390f35b341561013557600080fd5b6101e7600480803573ffffffffffffffffffffffffffffffffffffffff1690602001909190803590602001908201803590602001908080601f0160208091040260200160405190810160405280939291908181526020018383808284378201915050505050509190803590602001908201803590602001908080601f01602080910402602001604051908101604052809392919081815260200183838082843782019150505050505091905050610571565b005b34156101f457600080fd5b610220600480803573ffffffffffffffffffffffffffffffffffffffff16906020019091905050610795565b005b341561022d57600080fd5b61023561097c565b604051808273ffffffffffffffffffffffffffffffffffffffff1673ffffffffffffffffffffffffffffffffffffffff16815260200191505060405180910390f35b341561028257600080fd5b610315600480803590602001908201803590602001908080601f0160208091040260200160405190810160405280939291908181526020018383808284378201915050505050509190803590602001908201803590602001908080601f016020809104026020016040519081016040528093929190818152602001838380828437820191505050505050919050506109a1565b604051808215151515815260200191505060405180910390f35b341561033a57600080fd5b610366600480803573ffffffffffffffffffffffffffffffffffffffff16906020019091905050610a7a565b60405180806020018515151515815260200184151515158152602001806020018381038352878181546001816001161561010002031660029004815260200191508054600181600116156101000203166002900480156104075780601f106103dc57610100808354040283529160200191610407565b820191906000526020600020905b8154815290600101906020018083116103ea57829003601f168201915b505083810382528481815460018160011615610100020316600290048152602001915080546001816001161561010002031660029004801561048a5780601f1061045f5761010080835404028352916020019161048a565b820191906000526020600020905b81548152906001019060200180831161046d57829003601f168201915b5050965050505050505060405180910390f35b34156104a857600080fd5b6104d4600480803573ffffffffffffffffffffffffffffffffffffffff16906020019091905050610ac2565b005b34156104e157600080fd5b6104e9610c17565b6040518082815260200191505060405180910390f35b60078181548110151561050e57fe5b90600052602060002090016000915054906101000a900473ffffffffffffffffffffffffffffffffffffffff1681565b600080426040518082815260200191505060405180910390206001900490506001548181151561056a57fe5b0691505090565b600860008473ffffffffffffffffffffffffffffffffffffffff1673ffffffffffffffffffffffffffffffffffffffff16815260200190815260200160002060010160009054906101000a900460ff161515156105cd57600080fd5b600860008473ffffffffffffffffffffffffffffffffffffffff1673ffffffffffffffffffffffffffffffffffffffff16815260200190815260200160002060010160019054906101000a900460ff16151561068757600780548060010182816106379190610c24565b9160005260206000209001600085909190916101000a81548173ffffffffffffffffffffffffffffffffffffffff021916908373ffffffffffffffffffffffffffffffffffffffff160217905550505b81600860008573ffffffffffffffffffffffffffffffffffffffff1673ffffffffffffffffffffffffffffffffffffffff16815260200190815260200160002060000190805190602001906106dd929190610c50565b5080600860008573ffffffffffffffffffffffffffffffffffffffff1673ffffffffffffffffffffffffffffffffffffffff1681526020019081526020016000206002019080519060200190610734929190610c50565b506001600860008573ffffffffffffffffffffffffffffffffffffffff1673ffffffffffffffffffffffffffffffffffffffff16815260200190815260200160002060010160016101000a81548160ff021916908315150217905550505050565b600860008273ffffffffffffffffffffffffffffffffffffffff1673ffffffffffffffffffffffffffffffffffffffff16815260200190815260200160002060010160019054906101000a900460ff1615156107f057600080fd5b6001600860008373ffffffffffffffffffffffffffffffffffffffff1673ffffffffffffffffffffffffffffffffffffffff16815260200190815260200160002060010160006101000a81548160ff0219169083151502179055507f30c866340f6b6c54e0aff2b1bdaf8f0215da88d148833e1b6fd123f81d790c9081600860008473ffffffffffffffffffffffffffffffffffffffff1673ffffffffffffffffffffffffffffffffffffffff168152602001908152602001600020600001604051808373ffffffffffffffffffffffffffffffffffffffff1673ffffffffffffffffffffffffffffffffffffffff1681526020018060200182810382528381815460018160011615610100020316600290048152602001915080546001816001161561010002031660029004801561096a5780601f1061093f5761010080835404028352916020019161096a565b820191906000526020600020905b81548152906001019060200180831161094d57829003601f168201915b5050935050505060405180910390a150565b6000809054906101000a900473ffffffffffffffffffffffffffffffffffffffff1681565b6000816040518082805190602001908083835b6020831015156109d957805182526020820191506020810190506020830392506109b4565b6001836020036101000a038019825116818451168082178552505050505050905001915050604051809103902060001916836040518082805190602001908083835b602083101515610a405780518252602082019150602081019050602083039250610a1b565b6001836020036101000a03801982511681845116808217855250505050505090500191505060405180910390206000191614905092915050565b600860205280600052604060002060009150905080600001908060010160009054906101000a900460ff16908060010160019054906101000a900460ff169080600201905084565b6000809054906101000a900473ffffffffffffffffffffffffffffffffffffffff1673ffffffffffffffffffffffffffffffffffffffff163373ffffffffffffffffffffffffffffffffffffffff16141515610b1d57600080fd5b600073ffffffffffffffffffffffffffffffffffffffff168173ffffffffffffffffffffffffffffffffffffffff1614151515610b5957600080fd5b8073ffffffffffffffffffffffffffffffffffffffff166000809054906101000a900473ffffffffffffffffffffffffffffffffffffffff1673ffffffffffffffffffffffffffffffffffffffff167f8be0079c531659141344cd1fd0a4f28419497f9722a3daafe3b4186f6b6457e060405160405180910390a3806000806101000a81548173ffffffffffffffffffffffffffffffffffffffff021916908373ffffffffffffffffffffffffffffffffffffffff16021790555050565b6000600780549050905090565b815481835581811511610c4b57818360005260206000209182019101610c4a9190610cd0565b5b505050565b828054600181600116156101000203166002900490600052602060002090601f016020900481019282601f10610c9157805160ff1916838001178555610cbf565b82800160010185558215610cbf579182015b82811115610cbe578251825591602001919060010190610ca3565b5b509050610ccc9190610cd0565b5090565b610cf291905b80821115610cee576000816000905550600101610cd6565b5090565b905600a165627a7a723058201ce0b2739a9ce448428277eed511914efe6c5635825c27be714616da0663fd3a0029",
  "source": "pragma solidity ^0.4.19;\r\n\r\nimport './Ownable.sol';\r\nimport './Utils.sol';\r\n\r\n//json库使用不了\r\n// import \"./utils/LibString.sol\";\r\n// import \"./utils/LibInt.sol\";\r\n\r\ncontract Account is Ownable, Utils{\r\n    // using LibString for * ;\r\n    // using LibInt for *;\r\n    // 身份字符串；\r\n    string PRODUCE = 'produce';\r\n    string MILKING = 'milking';\r\n    string PROCESS = 'process';\r\n    string STOREEXPRESS ='storeExpress';\r\n    string SELL = 'sell';\r\n    // 身份设定成功事件\r\n    event identitySetSucc(address _address, string _str); \r\n\r\n    address[] public participateArr;\r\n    // 这两个结构都是 有ber而来\r\n    struct Member{\r\n        // 身份\r\n        string identity;\r\n        // 是否被管理者批准----账户是否有效\r\n        bool isVaild;\r\n        // 是否申请创建----判断\r\n        bool isExist;\r\n        string applyDate;\r\n    }\r\n    // 地址和对应的身份   0x123456 ===> {'produce',false,false,'2020-1-1'} ---为了方便根据地址查询身份的方便\r\n    mapping(address => Member) public addressToIdentity;\r\n    // 给一个账户地址设定一个身份------**这个和后续准入机制有关**\r\n\r\n    // 普通账户申请成为参与者---public\r\n    function setIdentity(address _address, string _str, string _date) public {\r\n        // 确认账户没有确认的身份----可能注册一个身份被拒绝，但是还是可以注册另一个身份\r\n        require(!addressToIdentity[_address].isVaild);\r\n        // 如果一个账户从未申请过，加入到participateArr数组中\r\n        if(!addressToIdentity[_address].isExist){\r\n            participateArr.push(_address);\r\n        }\r\n        // 不管账户有没有申请过，更新映射中的消息\r\n        addressToIdentity[_address].identity = _str;\r\n        addressToIdentity[_address].applyDate = _date;\r\n        addressToIdentity[_address].isExist = true;\r\n    }\r\n\r\n    // 管理者确认参与者身份，\r\n    function confirmIdentity(address _address) public {\r\n        // 确认账户是否已经申请过；\r\n        require(addressToIdentity[_address].isExist);\r\n        addressToIdentity[_address].isVaild = true;\r\n        // 广播事件\r\n        identitySetSucc(_address, addressToIdentity[_address].identity);\r\n    }\r\n\r\n    // 放回参与方地址集合的 数组长度\r\n    function getIdentityArrLength() public view returns(uint){\r\n        return participateArr.length;\r\n    }\r\n\r\n    // 判断地址数组中是否存在这个地址的方法 最高效的是用mapping判断\r\n    // 判断是否是参与者的 定义的函数修饰符；`\r\n    modifier onlyparticipate(address _address) {\r\n        require(addressToIdentity[_address].isVaild);\r\n        _;\r\n    }\r\n}",
  "sourcePath": "C:\\Users\\keruisiya\\Desktop\\溯源实践\\合约练习\\truffle-vue-master\\contracts\\Account.sol",
  "compiler": {
    "name": "solc",
    "version": "0.4.19+commit.c4cbbb05.Emscripten.clang"
  },
  "schemaVersion": "3.0.23",
  "updatedAt": "2021-01-09T02:20:22.415Z",
  "devdoc": {
    "methods": {
      "transferOwnership(address)": {
        "details": "Allows the current owner to transfer control of the contract to a newOwner.\r",
        "params": {
          "newOwner": "The address to transfer ownership to.\r"
        }
      }
    }
  },
  "userdoc": {
    "methods": {}
  }
}