{
  "contractName": "Info",
  "abi": [
    {
      "constant": true,
      "inputs": [
        {
          "name": "",
          "type": "uint256"
        }
      ],
      "name": "produceId",
      "outputs": [
        {
          "name": "",
          "type": "string"
        }
      ],
      "payable": false,
      "stateMutability": "view",
      "type": "function"
    },
    {
      "constant": true,
      "inputs": [
        {
          "name": "",
          "type": "uint256"
        }
      ],
      "name": "idToSell",
      "outputs": [
        {
          "name": "",
          "type": "string"
        }
      ],
      "payable": false,
      "stateMutability": "view",
      "type": "function"
    },
    {
      "constant": true,
      "inputs": [
        {
          "name": "",
          "type": "uint256"
        }
      ],
      "name": "participateArr",
      "outputs": [
        {
          "name": "",
          "type": "address"
        }
      ],
      "payable": false,
      "stateMutability": "view",
      "type": "function"
    },
    {
      "constant": true,
      "inputs": [
        {
          "name": "",
          "type": "uint256"
        }
      ],
      "name": "storeExpressId",
      "outputs": [
        {
          "name": "",
          "type": "string"
        }
      ],
      "payable": false,
      "stateMutability": "view",
      "type": "function"
    },
    {
      "constant": true,
      "inputs": [],
      "name": "_createId",
      "outputs": [
        {
          "name": "",
          "type": "uint256"
        }
      ],
      "payable": false,
      "stateMutability": "view",
      "type": "function"
    },
    {
      "constant": true,
      "inputs": [
        {
          "name": "",
          "type": "uint256"
        }
      ],
      "name": "processId",
      "outputs": [
        {
          "name": "",
          "type": "string"
        }
      ],
      "payable": false,
      "stateMutability": "view",
      "type": "function"
    },
    {
      "constant": true,
      "inputs": [
        {
          "name": "",
          "type": "uint256"
        }
      ],
      "name": "idToProduce",
      "outputs": [
        {
          "name": "",
          "type": "string"
        }
      ],
      "payable": false,
      "stateMutability": "view",
      "type": "function"
    },
    {
      "constant": true,
      "inputs": [
        {
          "name": "",
          "type": "uint256"
        }
      ],
      "name": "sellId",
      "outputs": [
        {
          "name": "",
          "type": "string"
        }
      ],
      "payable": false,
      "stateMutability": "view",
      "type": "function"
    },
    {
      "constant": false,
      "inputs": [
        {
          "name": "_address",
          "type": "address"
        },
        {
          "name": "_str",
          "type": "string"
        }
      ],
      "name": "setIdentity",
      "outputs": [],
      "payable": false,
      "stateMutability": "nonpayable",
      "type": "function"
    },
    {
      "constant": true,
      "inputs": [],
      "name": "owner",
      "outputs": [
        {
          "name": "",
          "type": "address"
        }
      ],
      "payable": false,
      "stateMutability": "view",
      "type": "function"
    },
    {
      "constant": true,
      "inputs": [
        {
          "name": "",
          "type": "uint256"
        }
      ],
      "name": "idToProcess",
      "outputs": [
        {
          "name": "",
          "type": "string"
        }
      ],
      "payable": false,
      "stateMutability": "view",
      "type": "function"
    },
    {
      "constant": true,
      "inputs": [
        {
          "name": "",
          "type": "uint256"
        }
      ],
      "name": "milkingId",
      "outputs": [
        {
          "name": "",
          "type": "string"
        }
      ],
      "payable": false,
      "stateMutability": "view",
      "type": "function"
    },
    {
      "constant": true,
      "inputs": [
        {
          "name": "_str1",
          "type": "string"
        },
        {
          "name": "_str2",
          "type": "string"
        }
      ],
      "name": "isStrEqual",
      "outputs": [
        {
          "name": "",
          "type": "bool"
        }
      ],
      "payable": false,
      "stateMutability": "pure",
      "type": "function"
    },
    {
      "constant": true,
      "inputs": [
        {
          "name": "",
          "type": "address"
        }
      ],
      "name": "addressToIdentity",
      "outputs": [
        {
          "name": "identity",
          "type": "string"
        },
        {
          "name": "isVaild",
          "type": "bool"
        }
      ],
      "payable": false,
      "stateMutability": "view",
      "type": "function"
    },
    {
      "constant": false,
      "inputs": [
        {
          "name": "newOwner",
          "type": "address"
        }
      ],
      "name": "transferOwnership",
      "outputs": [],
      "payable": false,
      "stateMutability": "nonpayable",
      "type": "function"
    },
    {
      "constant": true,
      "inputs": [],
      "name": "getIdentityArrLength",
      "outputs": [
        {
          "name": "",
          "type": "uint256"
        }
      ],
      "payable": false,
      "stateMutability": "view",
      "type": "function"
    },
    {
      "constant": true,
      "inputs": [
        {
          "name": "",
          "type": "uint256"
        }
      ],
      "name": "idToMilking",
      "outputs": [
        {
          "name": "",
          "type": "string"
        }
      ],
      "payable": false,
      "stateMutability": "view",
      "type": "function"
    },
    {
      "constant": true,
      "inputs": [
        {
          "name": "",
          "type": "uint256"
        }
      ],
      "name": "idToStoreExpress",
      "outputs": [
        {
          "name": "",
          "type": "string"
        }
      ],
      "payable": false,
      "stateMutability": "view",
      "type": "function"
    },
    {
      "anonymous": false,
      "inputs": [
        {
          "indexed": false,
          "name": "_ID",
          "type": "uint256"
        },
        {
          "indexed": false,
          "name": "_farmsID",
          "type": "string"
        },
        {
          "indexed": false,
          "name": "_farmsName",
          "type": "string"
        },
        {
          "indexed": false,
          "name": "_farmsAdd",
          "type": "string"
        },
        {
          "indexed": false,
          "name": "_cowVar",
          "type": "string"
        },
        {
          "indexed": false,
          "name": "_cowSource",
          "type": "string"
        },
        {
          "indexed": false,
          "name": "_feedAqu",
          "type": "string"
        },
        {
          "indexed": false,
          "name": "_feedName",
          "type": "string"
        }
      ],
      "name": "ProduceDateAdded",
      "type": "event"
    },
    {
      "anonymous": false,
      "inputs": [
        {
          "indexed": false,
          "name": "_ID",
          "type": "uint256"
        },
        {
          "indexed": false,
          "name": "_milkingAddrCode",
          "type": "string"
        },
        {
          "indexed": false,
          "name": "_milkingUser",
          "type": "string"
        },
        {
          "indexed": false,
          "name": "_milkingEnv",
          "type": "string"
        },
        {
          "indexed": false,
          "name": "_milkingTime",
          "type": "string"
        }
      ],
      "name": "MilkingDateAdded",
      "type": "event"
    },
    {
      "anonymous": false,
      "inputs": [
        {
          "indexed": false,
          "name": "_ID",
          "type": "uint256"
        },
        {
          "indexed": false,
          "name": "_processAddr",
          "type": "string"
        },
        {
          "indexed": false,
          "name": "_processName",
          "type": "string"
        },
        {
          "indexed": false,
          "name": "_processTime",
          "type": "string"
        },
        {
          "indexed": false,
          "name": "_balingAddr",
          "type": "string"
        },
        {
          "indexed": false,
          "name": "_balingName",
          "type": "string"
        },
        {
          "indexed": false,
          "name": "_equiSkil",
          "type": "string"
        }
      ],
      "name": "ProcessDateAdded",
      "type": "event"
    },
    {
      "anonymous": false,
      "inputs": [
        {
          "indexed": false,
          "name": "_ID",
          "type": "uint256"
        },
        {
          "indexed": false,
          "name": "_storeAddr",
          "type": "string"
        },
        {
          "indexed": false,
          "name": "_storeName",
          "type": "string"
        },
        {
          "indexed": false,
          "name": "_storageTime",
          "type": "string"
        },
        {
          "indexed": false,
          "name": "_retirTime",
          "type": "string"
        },
        {
          "indexed": false,
          "name": "_transName",
          "type": "string"
        },
        {
          "indexed": false,
          "name": "_transCode",
          "type": "string"
        },
        {
          "indexed": false,
          "name": "_transTime",
          "type": "string"
        }
      ],
      "name": "StoreExpressDateAdded",
      "type": "event"
    },
    {
      "anonymous": false,
      "inputs": [
        {
          "indexed": false,
          "name": "_ID",
          "type": "uint256"
        },
        {
          "indexed": false,
          "name": "_sellCode",
          "type": "string"
        },
        {
          "indexed": false,
          "name": "_sellName",
          "type": "string"
        },
        {
          "indexed": false,
          "name": "_sellTime",
          "type": "string"
        },
        {
          "indexed": false,
          "name": "_sellAddr",
          "type": "string"
        },
        {
          "indexed": false,
          "name": "_produDate",
          "type": "string"
        }
      ],
      "name": "SellDateAdded",
      "type": "event"
    },
    {
      "anonymous": false,
      "inputs": [
        {
          "indexed": false,
          "name": "_address",
          "type": "address"
        },
        {
          "indexed": false,
          "name": "_str",
          "type": "string"
        }
      ],
      "name": "identitySetSucc",
      "type": "event"
    },
    {
      "anonymous": false,
      "inputs": [
        {
          "indexed": true,
          "name": "previousOwner",
          "type": "address"
        },
        {
          "indexed": true,
          "name": "newOwner",
          "type": "address"
        }
      ],
      "name": "OwnershipTransferred",
      "type": "event"
    },
    {
      "constant": false,
      "inputs": [
        {
          "name": "_farmsID",
          "type": "string"
        },
        {
          "name": "_farmsName",
          "type": "string"
        },
        {
          "name": "_farmsAdd",
          "type": "string"
        },
        {
          "name": "_cowVar",
          "type": "string"
        },
        {
          "name": "_cowSource",
          "type": "string"
        },
        {
          "name": "_feedAqu",
          "type": "string"
        },
        {
          "name": "_feedName",
          "type": "string"
        }
      ],
      "name": "_setProduceInfo",
      "outputs": [],
      "payable": false,
      "stateMutability": "nonpayable",
      "type": "function"
    },
    {
      "constant": false,
      "inputs": [],
      "name": "getProlength",
      "outputs": [
        {
          "name": "",
          "type": "uint256"
        }
      ],
      "payable": false,
      "stateMutability": "nonpayable",
      "type": "function"
    },
    {
      "constant": false,
      "inputs": [
        {
          "name": "_milkingAddrCode",
          "type": "string"
        },
        {
          "name": "_milkingUser",
          "type": "string"
        },
        {
          "name": "_milkingEnv",
          "type": "string"
        },
        {
          "name": "_milkingTime",
          "type": "string"
        }
      ],
      "name": "_setMilkingInfo",
      "outputs": [],
      "payable": false,
      "stateMutability": "nonpayable",
      "type": "function"
    },
    {
      "constant": false,
      "inputs": [
        {
          "name": "_processAddr",
          "type": "string"
        },
        {
          "name": "_processName",
          "type": "string"
        },
        {
          "name": "_processTime",
          "type": "string"
        },
        {
          "name": "_balingAddr",
          "type": "string"
        },
        {
          "name": "_balingName",
          "type": "string"
        },
        {
          "name": "_equiSkil",
          "type": "string"
        }
      ],
      "name": "_setProcessInfo",
      "outputs": [],
      "payable": false,
      "stateMutability": "nonpayable",
      "type": "function"
    },
    {
      "constant": false,
      "inputs": [
        {
          "name": "_storeAddr",
          "type": "string"
        },
        {
          "name": "_storeName",
          "type": "string"
        },
        {
          "name": "_storageTime",
          "type": "string"
        },
        {
          "name": "_retirTime",
          "type": "string"
        },
        {
          "name": "_transName",
          "type": "string"
        },
        {
          "name": "_transCode",
          "type": "string"
        },
        {
          "name": "_transTime",
          "type": "string"
        }
      ],
      "name": "_setStoreExpressInfo",
      "outputs": [],
      "payable": false,
      "stateMutability": "nonpayable",
      "type": "function"
    },
    {
      "constant": false,
      "inputs": [
        {
          "name": "_sellCode",
          "type": "string"
        },
        {
          "name": "_sellName",
          "type": "string"
        },
        {
          "name": "_sellTime",
          "type": "string"
        },
        {
          "name": "_sellAddr",
          "type": "string"
        },
        {
          "name": "_produDate",
          "type": "string"
        }
      ],
      "name": "_setSellInfo",
      "outputs": [],
      "payable": false,
      "stateMutability": "nonpayable",
      "type": "function"
    }
  ],
  "bytecode": "0x6060604052662386f26fc100006001556040805190810160405280600781526020017f70726f6475636500000000000000000000000000000000000000000000000000815250600290805190602001906200005c929190620001db565b506040805190810160405280600781526020017f6d696c6b696e670000000000000000000000000000000000000000000000000081525060039080519060200190620000aa929190620001db565b506040805190810160405280600781526020017f70726f636573730000000000000000000000000000000000000000000000000081525060049080519060200190620000f8929190620001db565b506040805190810160405280600c81526020017f73746f72654578707265737300000000000000000000000000000000000000008152506005908051906020019062000146929190620001db565b506040805190810160405280600481526020017f73656c6c000000000000000000000000000000000000000000000000000000008152506006908051906020019062000194929190620001db565b50336000806101000a81548173ffffffffffffffffffffffffffffffffffffffff021916908373ffffffffffffffffffffffffffffffffffffffff1602179055506200028a565b828054600181600116156101000203166002900490600052602060002090601f016020900481019282601f106200021e57805160ff19168380011785556200024f565b828001600101855582156200024f579182015b828111156200024e57825182559160200191906001019062000231565b5b5090506200025e919062000262565b5090565b6200028791905b808211156200028357600081600090555060010162000269565b5090565b90565b615732806200029a6000396000f30060606040526004361061013e576000357c0100000000000000000000000000000000000000000000000000000000900463ffffffff1680630892aa63146101435780630accae56146101df5780630c430c381461027b578063140eb91d146102de5780631ea47a101461037a5780633e10c589146103a357806343d9ec7f1461054f5780634653db801461073e5780634ce5f8a6146107da5780635cfaee201461087657806362de682f1461099c578063897cab1714610a385780638da5cb5b14610ab45780639fe9e11614610b09578063b223aadd14610c72578063b28540d614610d0e578063ba8f439814610d37578063d4cbd9d414610dd3578063eb4e9b0914610e8b578063f19339b114610f65578063f2fde38b14611154578063f8262ac81461118d578063f9e1c500146111b6578063ff001aa014611252575b600080fd5b341561014e57600080fd5b61016460048080359060200190919050506112ee565b6040518080602001828103825283818151815260200191508051906020019080838360005b838110156101a4578082015181840152602081019050610189565b50505050905090810190601f1680156101d15780820380516001836020036101000a031916815260200191505b509250505060405180910390f35b34156101ea57600080fd5b61020060048080359060200190919050506113aa565b6040518080602001828103825283818151815260200191508051906020019080838360005b83811015610240578082015181840152602081019050610225565b50505050905090810190601f16801561026d5780820380516001836020036101000a031916815260200191505b509250505060405180910390f35b341561028657600080fd5b61029c600480803590602001909190505061145a565b604051808273ffffffffffffffffffffffffffffffffffffffff1673ffffffffffffffffffffffffffffffffffffffff16815260200191505060405180910390f35b34156102e957600080fd5b6102ff6004808035906020019091905050611499565b6040518080602001828103825283818151815260200191508051906020019080838360005b8381101561033f578082015181840152602081019050610324565b50505050905090810190601f16801561036c5780820380516001836020036101000a031916815260200191505b509250505060405180910390f35b341561038557600080fd5b61038d611555565b6040518082815260200191505060405180910390f35b34156103ae57600080fd5b61054d600480803590602001908201803590602001908080601f0160208091040260200160405190810160405280939291908181526020018383808284378201915050505050509190803590602001908201803590602001908080601f0160208091040260200160405190810160405280939291908181526020018383808284378201915050505050509190803590602001908201803590602001908080601f0160208091040260200160405190810160405280939291908181526020018383808284378201915050505050509190803590602001908201803590602001908080601f0160208091040260200160405190810160405280939291908181526020018383808284378201915050505050509190803590602001908201803590602001908080601f0160208091040260200160405190810160405280939291908181526020018383808284378201915050505050509190803590602001908201803590602001908080601f01602080910402602001604051908101604052809392919081815260200183838082843782019150505050505091905050611588565b005b341561055a57600080fd5b61073c600480803590602001908201803590602001908080601f0160208091040260200160405190810160405280939291908181526020018383808284378201915050505050509190803590602001908201803590602001908080601f0160208091040260200160405190810160405280939291908181526020018383808284378201915050505050509190803590602001908201803590602001908080601f0160208091040260200160405190810160405280939291908181526020018383808284378201915050505050509190803590602001908201803590602001908080601f0160208091040260200160405190810160405280939291908181526020018383808284378201915050505050509190803590602001908201803590602001908080601f0160208091040260200160405190810160405280939291908181526020018383808284378201915050505050509190803590602001908201803590602001908080601f0160208091040260200160405190810160405280939291908181526020018383808284378201915050505050509190803590602001908201803590602001908080601f0160208091040260200160405190810160405280939291908181526020018383808284378201915050505050509190505061191b565b005b341561074957600080fd5b61075f6004808035906020019091905050611d22565b6040518080602001828103825283818151815260200191508051906020019080838360005b8381101561079f578082015181840152602081019050610784565b50505050905090810190601f1680156107cc5780820380516001836020036101000a031916815260200191505b509250505060405180910390f35b34156107e557600080fd5b6107fb6004808035906020019091905050611dde565b6040518080602001828103825283818151815260200191508051906020019080838360005b8381101561083b578082015181840152602081019050610820565b50505050905090810190601f1680156108685780820380516001836020036101000a031916815260200191505b509250505060405180910390f35b341561088157600080fd5b61099a600480803590602001908201803590602001908080601f0160208091040260200160405190810160405280939291908181526020018383808284378201915050505050509190803590602001908201803590602001908080601f0160208091040260200160405190810160405280939291908181526020018383808284378201915050505050509190803590602001908201803590602001908080601f0160208091040260200160405190810160405280939291908181526020018383808284378201915050505050509190803590602001908201803590602001908080601f01602080910402602001604051908101604052809392919081815260200183838082843782019150505050505091905050611e8e565b005b34156109a757600080fd5b6109bd6004808035906020019091905050612139565b6040518080602001828103825283818151815260200191508051906020019080838360005b838110156109fd5780820151818401526020810190506109e2565b50505050905090810190601f168015610a2a5780820380516001836020036101000a031916815260200191505b509250505060405180910390f35b3415610a4357600080fd5b610ab2600480803573ffffffffffffffffffffffffffffffffffffffff1690602001909190803590602001908201803590602001908080601f016020809104026020016040519081016040528093929190818152602001838380828437820191505050505050919050506121f5565b005b3415610abf57600080fd5b610ac761243a565b604051808273ffffffffffffffffffffffffffffffffffffffff1673ffffffffffffffffffffffffffffffffffffffff16815260200191505060405180910390f35b3415610b1457600080fd5b610c70600480803590602001908201803590602001908080601f0160208091040260200160405190810160405280939291908181526020018383808284378201915050505050509190803590602001908201803590602001908080601f0160208091040260200160405190810160405280939291908181526020018383808284378201915050505050509190803590602001908201803590602001908080601f0160208091040260200160405190810160405280939291908181526020018383808284378201915050505050509190803590602001908201803590602001908080601f0160208091040260200160405190810160405280939291908181526020018383808284378201915050505050509190803590602001908201803590602001908080601f0160208091040260200160405190810160405280939291908181526020018383808284378201915050505050509190505061245f565b005b3415610c7d57600080fd5b610c93600480803590602001909190505061277e565b6040518080602001828103825283818151815260200191508051906020019080838360005b83811015610cd3578082015181840152602081019050610cb8565b50505050905090810190601f168015610d005780820380516001836020036101000a031916815260200191505b509250505060405180910390f35b3415610d1957600080fd5b610d2161282e565b6040518082815260200191505060405180910390f35b3415610d4257600080fd5b610d58600480803590602001909190505061283b565b6040518080602001828103825283818151815260200191508051906020019080838360005b83811015610d98578082015181840152602081019050610d7d565b50505050905090810190601f168015610dc55780820380516001836020036101000a031916815260200191505b509250505060405180910390f35b3415610dde57600080fd5b610e71600480803590602001908201803590602001908080601f0160208091040260200160405190810160405280939291908181526020018383808284378201915050505050509190803590602001908201803590602001908080601f016020809104026020016040519081016040528093929190818152602001838380828437820191505050505050919050506128f7565b604051808215151515815260200191505060405180910390f35b3415610e9657600080fd5b610ec2600480803573ffffffffffffffffffffffffffffffffffffffff169060200190919050506129d0565b604051808060200183151515158152602001828103825284818154600181600116156101000203166002900481526020019150805460018160011615610100020316600290048015610f555780601f10610f2a57610100808354040283529160200191610f55565b820191906000526020600020905b815481529060010190602001808311610f3857829003601f168201915b5050935050505060405180910390f35b3415610f7057600080fd5b611152600480803590602001908201803590602001908080601f0160208091040260200160405190810160405280939291908181526020018383808284378201915050505050509190803590602001908201803590602001908080601f0160208091040260200160405190810160405280939291908181526020018383808284378201915050505050509190803590602001908201803590602001908080601f0160208091040260200160405190810160405280939291908181526020018383808284378201915050505050509190803590602001908201803590602001908080601f0160208091040260200160405190810160405280939291908181526020018383808284378201915050505050509190803590602001908201803590602001908080601f0160208091040260200160405190810160405280939291908181526020018383808284378201915050505050509190803590602001908201803590602001908080601f0160208091040260200160405190810160405280939291908181526020018383808284378201915050505050509190803590602001908201803590602001908080601f01602080910402602001604051908101604052809392919081815260200183838082843782019150505050505091905050612a00565b005b341561115f57600080fd5b61118b600480803573ffffffffffffffffffffffffffffffffffffffff16906020019091905050612e07565b005b341561119857600080fd5b6111a0612f5c565b6040518082815260200191505060405180910390f35b34156111c157600080fd5b6111d76004808035906020019091905050612f69565b6040518080602001828103825283818151815260200191508051906020019080838360005b838110156112175780820151818401526020810190506111fc565b50505050905090810190601f1680156112445780820380516001836020036101000a031916815260200191505b509250505060405180910390f35b341561125d57600080fd5b6112736004808035906020019091905050613019565b6040518080602001828103825283818151815260200191508051906020019080838360005b838110156112b3578082015181840152602081019050611298565b50505050905090810190601f1680156112e05780820380516001836020036101000a031916815260200191505b509250505060405180910390f35b600a818154811015156112fd57fe5b90600052602060002090016000915090508054600181600116156101000203166002900480601f0160208091040260200160405190810160405280929190818152602001828054600181600116156101000203166002900480156113a25780601f10611377576101008083540402835291602001916113a2565b820191906000526020600020905b81548152906001019060200180831161138557829003601f168201915b505050505081565b60116020528060005260406000206000915090508054600181600116156101000203166002900480601f0160208091040260200160405190810160405280929190818152602001828054600181600116156101000203166002900480156114525780601f1061142757610100808354040283529160200191611452565b820191906000526020600020905b81548152906001019060200180831161143557829003601f168201915b505050505081565b60078181548110151561146957fe5b90600052602060002090016000915054906101000a900473ffffffffffffffffffffffffffffffffffffffff1681565b6010818154811015156114a857fe5b90600052602060002090016000915090508054600181600116156101000203166002900480601f01602080910402602001604051908101604052809291908181526020018280546001816001161561010002031660029004801561154d5780601f106115225761010080835404028352916020019161154d565b820191906000526020600020905b81548152906001019060200180831161153057829003601f168201915b505050505081565b600080426040518082815260200191505060405180910390206001900490506001548181151561158157fe5b0691505090565b60006115926153b3565b61159a61540e565b6115a2611555565b925060c0604051908101604052808a8152602001898152602001888152602001878152602001868152602001858152509150600e80548060010182816115e89190615422565b916000526020600020900160006115fe866130c9565b9091909150908051906020019061161692919061544e565b505061162182613217565b905080600d6000858152602001908152602001600020908051906020019061164a92919061544e565b507f05dd5486dc824520f5a55f84dfc4299683ba3fa6d32863f3d2f5397bd8f68a49838a8a8a8a8a8a6040518088815260200180602001806020018060200180602001806020018060200187810387528d818151815260200191508051906020019080838360005b838110156116cd5780820151818401526020810190506116b2565b50505050905090810190601f1680156116fa5780820380516001836020036101000a031916815260200191505b5087810386528c818151815260200191508051906020019080838360005b83811015611733578082015181840152602081019050611718565b50505050905090810190601f1680156117605780820380516001836020036101000a031916815260200191505b5087810385528b818151815260200191508051906020019080838360005b8381101561179957808201518184015260208101905061177e565b50505050905090810190601f1680156117c65780820380516001836020036101000a031916815260200191505b5087810384528a818151815260200191508051906020019080838360005b838110156117ff5780820151818401526020810190506117e4565b50505050905090810190601f16801561182c5780820380516001836020036101000a031916815260200191505b50878103835289818151815260200191508051906020019080838360005b8381101561186557808201518184015260208101905061184a565b50505050905090810190601f1680156118925780820380516001836020036101000a031916815260200191505b50878103825288818151815260200191508051906020019080838360005b838110156118cb5780820151818401526020810190506118b0565b50505050905090810190601f1680156118f85780820380516001836020036101000a031916815260200191505b509d505050505050505050505050505060405180910390a1505050505050505050565b60006119256154ce565b61192d61540e565b611935611555565b925060e0604051908101604052808b81526020018a8152602001898152602001888152602001878152602001868152602001858152509150601080548060010182816119819190615422565b91600052602060002090016000611997866130c9565b909190915090805190602001906119af92919061544e565b50506119ba82613899565b905080600f600085815260200190815260200160002090805190602001906119e392919061544e565b507f7f7b9f087b2498fa839b3a3731927dfc2fb55c100197f1b0ea8eeebb07d22ddb838b8b8b8b8b8b8b604051808981526020018060200180602001806020018060200180602001806020018060200188810388528f818151815260200191508051906020019080838360005b83811015611a6b578082015181840152602081019050611a50565b50505050905090810190601f168015611a985780820380516001836020036101000a031916815260200191505b5088810387528e818151815260200191508051906020019080838360005b83811015611ad1578082015181840152602081019050611ab6565b50505050905090810190601f168015611afe5780820380516001836020036101000a031916815260200191505b5088810386528d818151815260200191508051906020019080838360005b83811015611b37578082015181840152602081019050611b1c565b50505050905090810190601f168015611b645780820380516001836020036101000a031916815260200191505b5088810385528c818151815260200191508051906020019080838360005b83811015611b9d578082015181840152602081019050611b82565b50505050905090810190601f168015611bca5780820380516001836020036101000a031916815260200191505b5088810384528b818151815260200191508051906020019080838360005b83811015611c03578082015181840152602081019050611be8565b50505050905090810190601f168015611c305780820380516001836020036101000a031916815260200191505b5088810383528a818151815260200191508051906020019080838360005b83811015611c69578082015181840152602081019050611c4e565b50505050905090810190601f168015611c965780820380516001836020036101000a031916815260200191505b50888103825289818151815260200191508051906020019080838360005b83811015611ccf578082015181840152602081019050611cb4565b50505050905090810190601f168015611cfc5780820380516001836020036101000a031916815260200191505b509f5050505050505050505050505050505060405180910390a150505050505050505050565b600e81815481101515611d3157fe5b90600052602060002090016000915090508054600181600116156101000203166002900480601f016020809104026020016040519081016040528092919081815260200182805460018160011615610100020316600290048015611dd65780601f10611dab57610100808354040283529160200191611dd6565b820191906000526020600020905b815481529060010190602001808311611db957829003601f168201915b505050505081565b60096020528060005260406000206000915090508054600181600116156101000203166002900480601f016020809104026020016040519081016040528092919081815260200182805460018160011615610100020316600290048015611e865780601f10611e5b57610100808354040283529160200191611e86565b820191906000526020600020905b815481529060010190602001808311611e6957829003601f168201915b505050505081565b6000611e98615536565b611ea061540e565b611ea8611555565b9250608060405190810160405280888152602001878152602001868152602001858152509150600c8054806001018281611ee29190615422565b91600052602060002090016000611ef8866130c9565b90919091509080519060200190611f1092919061544e565b5050611f1b82614020565b905080600b60008581526020019081526020016000209080519060200190611f4492919061544e565b507f8a4cd49ad775a578dce89ed2a07cb01200f1aa96a097ced6a5f8fcea60155b6f83888888886040518086815260200180602001806020018060200180602001858103855289818151815260200191508051906020019080838360005b83811015611fbd578082015181840152602081019050611fa2565b50505050905090810190601f168015611fea5780820380516001836020036101000a031916815260200191505b50858103845288818151815260200191508051906020019080838360005b83811015612023578082015181840152602081019050612008565b50505050905090810190601f1680156120505780820380516001836020036101000a031916815260200191505b50858103835287818151815260200191508051906020019080838360005b8381101561208957808201518184015260208101905061206e565b50505050905090810190601f1680156120b65780820380516001836020036101000a031916815260200191505b50858103825286818151815260200191508051906020019080838360005b838110156120ef5780820151818401526020810190506120d4565b50505050905090810190601f16801561211c5780820380516001836020036101000a031916815260200191505b50995050505050505050505060405180910390a150505050505050565b60128181548110151561214857fe5b90600052602060002090016000915090508054600181600116156101000203166002900480601f0160208091040260200160405190810160405280929190818152602001828054600181600116156101000203166002900480156121ed5780601f106121c2576101008083540402835291602001916121ed565b820191906000526020600020905b8154815290600101906020018083116121d057829003601f168201915b505050505081565b600860008373ffffffffffffffffffffffffffffffffffffffff1673ffffffffffffffffffffffffffffffffffffffff16815260200190815260200160002060010160009054906101000a900460ff1615151561225157600080fd5b80600860008473ffffffffffffffffffffffffffffffffffffffff1673ffffffffffffffffffffffffffffffffffffffff16815260200190815260200160002060000190805190602001906122a792919061544e565b506001600860008473ffffffffffffffffffffffffffffffffffffffff1673ffffffffffffffffffffffffffffffffffffffff16815260200190815260200160002060010160006101000a81548160ff021916908315150217905550600780548060010182816123179190615577565b9160005260206000209001600084909190916101000a81548173ffffffffffffffffffffffffffffffffffffffff021916908373ffffffffffffffffffffffffffffffffffffffff160217905550507f30c866340f6b6c54e0aff2b1bdaf8f0215da88d148833e1b6fd123f81d790c908282604051808373ffffffffffffffffffffffffffffffffffffffff1673ffffffffffffffffffffffffffffffffffffffff16815260200180602001828103825283818151815260200191508051906020019080838360005b838110156123fb5780820151818401526020810190506123e0565b50505050905090810190601f1680156124285780820380516001836020036101000a031916815260200191505b50935050505060405180910390a15050565b6000809054906101000a900473ffffffffffffffffffffffffffffffffffffffff1681565b60006124696155a3565b61247161540e565b612479611555565b925060a060405190810160405280898152602001888152602001878152602001868152602001858152509150601280548060010182816124b99190615422565b916000526020600020900160006124cf866130c9565b909190915090805190602001906124e792919061544e565b50506124f282614498565b90508060116000858152602001908152602001600020908051906020019061251b92919061544e565b507fc71f0606e48c5542f2cc87562b0eb723bbf3c58d4e0d46003a514293d579021483898989898960405180878152602001806020018060200180602001806020018060200186810386528b818151815260200191508051906020019080838360005b8381101561259957808201518184015260208101905061257e565b50505050905090810190601f1680156125c65780820380516001836020036101000a031916815260200191505b5086810385528a818151815260200191508051906020019080838360005b838110156125ff5780820151818401526020810190506125e4565b50505050905090810190601f16801561262c5780820380516001836020036101000a031916815260200191505b50868103845289818151815260200191508051906020019080838360005b8381101561266557808201518184015260208101905061264a565b50505050905090810190601f1680156126925780820380516001836020036101000a031916815260200191505b50868103835288818151815260200191508051906020019080838360005b838110156126cb5780820151818401526020810190506126b0565b50505050905090810190601f1680156126f85780820380516001836020036101000a031916815260200191505b50868103825287818151815260200191508051906020019080838360005b83811015612731578082015181840152602081019050612716565b50505050905090810190601f16801561275e5780820380516001836020036101000a031916815260200191505b509b50505050505050505050505060405180910390a15050505050505050565b600d6020528060005260406000206000915090508054600181600116156101000203166002900480601f0160208091040260200160405190810160405280929190818152602001828054600181600116156101000203166002900480156128265780601f106127fb57610100808354040283529160200191612826565b820191906000526020600020905b81548152906001019060200180831161280957829003601f168201915b505050505081565b6000600a80549050905090565b600c8181548110151561284a57fe5b90600052602060002090016000915090508054600181600116156101000203166002900480601f0160208091040260200160405190810160405280929190818152602001828054600181600116156101000203166002900480156128ef5780601f106128c4576101008083540402835291602001916128ef565b820191906000526020600020905b8154815290600101906020018083116128d257829003601f168201915b505050505081565b6000816040518082805190602001908083835b60208310151561292f578051825260208201915060208101905060208303925061290a565b6001836020036101000a038019825116818451168082178552505050505050905001915050604051809103902060001916836040518082805190602001908083835b6020831015156129965780518252602082019150602081019050602083039250612971565b6001836020036101000a03801982511681845116808217855250505050505090500191505060405180910390206000191614905092915050565b600860205280600052604060002060009150905080600001908060010160009054906101000a900460ff16905082565b6000612a0a6155f1565b612a1261540e565b612a1a611555565b925060e0604051908101604052808b81526020018a8152602001898152602001888152602001878152602001868152602001858152509150600a8054806001018281612a669190615422565b91600052602060002090016000612a7c866130c9565b90919091509080519060200190612a9492919061544e565b5050612a9f82614a15565b905080600960008581526020019081526020016000209080519060200190612ac892919061544e565b507f18e61d2d93f9ea36eb43ae52d22a0dd36dadce8b463298d1a392e2db98617c16838b8b8b8b8b8b8b604051808981526020018060200180602001806020018060200180602001806020018060200188810388528f818151815260200191508051906020019080838360005b83811015612b50578082015181840152602081019050612b35565b50505050905090810190601f168015612b7d5780820380516001836020036101000a031916815260200191505b5088810387528e818151815260200191508051906020019080838360005b83811015612bb6578082015181840152602081019050612b9b565b50505050905090810190601f168015612be35780820380516001836020036101000a031916815260200191505b5088810386528d818151815260200191508051906020019080838360005b83811015612c1c578082015181840152602081019050612c01565b50505050905090810190601f168015612c495780820380516001836020036101000a031916815260200191505b5088810385528c818151815260200191508051906020019080838360005b83811015612c82578082015181840152602081019050612c67565b50505050905090810190601f168015612caf5780820380516001836020036101000a031916815260200191505b5088810384528b818151815260200191508051906020019080838360005b83811015612ce8578082015181840152602081019050612ccd565b50505050905090810190601f168015612d155780820380516001836020036101000a031916815260200191505b5088810383528a818151815260200191508051906020019080838360005b83811015612d4e578082015181840152602081019050612d33565b50505050905090810190601f168015612d7b5780820380516001836020036101000a031916815260200191505b50888103825289818151815260200191508051906020019080838360005b83811015612db4578082015181840152602081019050612d99565b50505050905090810190601f168015612de15780820380516001836020036101000a031916815260200191505b509f5050505050505050505050505050505060405180910390a150505050505050505050565b6000809054906101000a900473ffffffffffffffffffffffffffffffffffffffff1673ffffffffffffffffffffffffffffffffffffffff163373ffffffffffffffffffffffffffffffffffffffff16141515612e6257600080fd5b600073ffffffffffffffffffffffffffffffffffffffff168173ffffffffffffffffffffffffffffffffffffffff1614151515612e9e57600080fd5b8073ffffffffffffffffffffffffffffffffffffffff166000809054906101000a900473ffffffffffffffffffffffffffffffffffffffff1673ffffffffffffffffffffffffffffffffffffffff167f8be0079c531659141344cd1fd0a4f28419497f9722a3daafe3b4186f6b6457e060405160405180910390a3806000806101000a81548173ffffffffffffffffffffffffffffffffffffffff021916908373ffffffffffffffffffffffffffffffffffffffff16021790555050565b6000600780549050905090565b600b6020528060005260406000206000915090508054600181600116156101000203166002900480601f0160208091040260200160405190810160405280929190818152602001828054600181600116156101000203166002900480156130115780601f10612fe657610100808354040283529160200191613011565b820191906000526020600020905b815481529060010190602001808311612ff457829003601f168201915b505050505081565b600f6020528060005260406000206000915090508054600181600116156101000203166002900480601f0160208091040260200160405190810160405280929190818152602001828054600181600116156101000203166002900480156130c15780601f10613096576101008083540402835291602001916130c1565b820191906000526020600020905b8154815290600101906020018083116130a457829003601f168201915b505050505081565b6130d161540e565b60008060008085141561311b576040805190810160405280600181526020017f3000000000000000000000000000000000000000000000000000000000000000815250935061320f565b600092508491505b600082111561314857600a8281151561313857fe5b0491508280600101935050613123565b8260ff166040518059106131595750595b9080825280601f01601f191660200182016040525093506001830390505b600085111561320e576030600a8681151561318e57fe5b06017f01000000000000000000000000000000000000000000000000000000000000000284828060019003935060ff168151811015156131ca57fe5b9060200101907effffffffffffffffffffffffffffffffffffffffffffffffffffffffffffff1916908160001a905350600a8581151561320657fe5b049450613177565b5b505050919050565b61321f61540e565b61322761540e565b6040805190810160405280600181526020017f7b0000000000000000000000000000000000000000000000000000000000000081525090506133626040805190810160405280600e81526020017f2270726f6365737341646472223a00000000000000000000000000000000000081525061331b85600001516040805190810160405280600181526020017f22000000000000000000000000000000000000000000000000000000000000008152506040805190810160405280600181526020017f220000000000000000000000000000000000000000000000000000000000000081525061519c9092919063ffffffff16565b6040805190810160405280600181526020017f2c000000000000000000000000000000000000000000000000000000000000008152508461523c909392919063ffffffff16565b90506134676040805190810160405280600e81526020017f2270726f636573734e616d65223a00000000000000000000000000000000000081525061342085602001516040805190810160405280600181526020017f22000000000000000000000000000000000000000000000000000000000000008152506040805190810160405280600181526020017f220000000000000000000000000000000000000000000000000000000000000081525061519c9092919063ffffffff16565b6040805190810160405280600181526020017f2c000000000000000000000000000000000000000000000000000000000000008152508461523c909392919063ffffffff16565b905061356c6040805190810160405280600e81526020017f2270726f6365737354696d65223a00000000000000000000000000000000000081525061352585604001516040805190810160405280600181526020017f22000000000000000000000000000000000000000000000000000000000000008152506040805190810160405280600181526020017f220000000000000000000000000000000000000000000000000000000000000081525061519c9092919063ffffffff16565b6040805190810160405280600181526020017f2c000000000000000000000000000000000000000000000000000000000000008152508461523c909392919063ffffffff16565b90506136716040805190810160405280600d81526020017f2262616c696e6741646472223a0000000000000000000000000000000000000081525061362a85606001516040805190810160405280600181526020017f22000000000000000000000000000000000000000000000000000000000000008152506040805190810160405280600181526020017f220000000000000000000000000000000000000000000000000000000000000081525061519c9092919063ffffffff16565b6040805190810160405280600181526020017f2c000000000000000000000000000000000000000000000000000000000000008152508461523c909392919063ffffffff16565b90506137766040805190810160405280600d81526020017f2262616c696e674e616d65223a0000000000000000000000000000000000000081525061372f85608001516040805190810160405280600181526020017f22000000000000000000000000000000000000000000000000000000000000008152506040805190810160405280600181526020017f220000000000000000000000000000000000000000000000000000000000000081525061519c9092919063ffffffff16565b6040805190810160405280600181526020017f2c000000000000000000000000000000000000000000000000000000000000008152508461523c909392919063ffffffff16565b90506138446040805190810160405280600b81526020017f2265717569536b696c223a0000000000000000000000000000000000000000008152506138348560a001516040805190810160405280600181526020017f22000000000000000000000000000000000000000000000000000000000000008152506040805190810160405280600181526020017f220000000000000000000000000000000000000000000000000000000000000081525061519c9092919063ffffffff16565b8361519c9092919063ffffffff16565b905061388e6040805190810160405280600181526020017f7d00000000000000000000000000000000000000000000000000000000000000815250826152fc90919063ffffffff16565b905080915050919050565b6138a161540e565b6138a961540e565b6040805190810160405280600181526020017f7b0000000000000000000000000000000000000000000000000000000000000081525090506139e46040805190810160405280600c81526020017f2273746f726541646472223a000000000000000000000000000000000000000081525061399d85600001516040805190810160405280600181526020017f22000000000000000000000000000000000000000000000000000000000000008152506040805190810160405280600181526020017f220000000000000000000000000000000000000000000000000000000000000081525061519c9092919063ffffffff16565b6040805190810160405280600181526020017f2c000000000000000000000000000000000000000000000000000000000000008152508461523c909392919063ffffffff16565b9050613ae96040805190810160405280600c81526020017f2273746f72654e616d65223a0000000000000000000000000000000000000000815250613aa285602001516040805190810160405280600181526020017f22000000000000000000000000000000000000000000000000000000000000008152506040805190810160405280600181526020017f220000000000000000000000000000000000000000000000000000000000000081525061519c9092919063ffffffff16565b6040805190810160405280600181526020017f2c000000000000000000000000000000000000000000000000000000000000008152508461523c909392919063ffffffff16565b9050613bee6040805190810160405280600e81526020017f2273746f7261676554696d65223a000000000000000000000000000000000000815250613ba785604001516040805190810160405280600181526020017f22000000000000000000000000000000000000000000000000000000000000008152506040805190810160405280600181526020017f220000000000000000000000000000000000000000000000000000000000000081525061519c9092919063ffffffff16565b6040805190810160405280600181526020017f2c000000000000000000000000000000000000000000000000000000000000008152508461523c909392919063ffffffff16565b9050613cf36040805190810160405280600c81526020017f22726574697254696d65223a0000000000000000000000000000000000000000815250613cac85606001516040805190810160405280600181526020017f22000000000000000000000000000000000000000000000000000000000000008152506040805190810160405280600181526020017f220000000000000000000000000000000000000000000000000000000000000081525061519c9092919063ffffffff16565b6040805190810160405280600181526020017f2c000000000000000000000000000000000000000000000000000000000000008152508461523c909392919063ffffffff16565b9050613df86040805190810160405280600c81526020017f227472616e734e616d65223a0000000000000000000000000000000000000000815250613db185608001516040805190810160405280600181526020017f22000000000000000000000000000000000000000000000000000000000000008152506040805190810160405280600181526020017f220000000000000000000000000000000000000000000000000000000000000081525061519c9092919063ffffffff16565b6040805190810160405280600181526020017f2c000000000000000000000000000000000000000000000000000000000000008152508461523c909392919063ffffffff16565b9050613efd6040805190810160405280600c81526020017f227472616e73436f6465223a0000000000000000000000000000000000000000815250613eb68560a001516040805190810160405280600181526020017f22000000000000000000000000000000000000000000000000000000000000008152506040805190810160405280600181526020017f220000000000000000000000000000000000000000000000000000000000000081525061519c9092919063ffffffff16565b6040805190810160405280600181526020017f2c000000000000000000000000000000000000000000000000000000000000008152508461523c909392919063ffffffff16565b9050613fcb6040805190810160405280600c81526020017f227472616e7354696d65223a0000000000000000000000000000000000000000815250613fbb8560c001516040805190810160405280600181526020017f22000000000000000000000000000000000000000000000000000000000000008152506040805190810160405280600181526020017f220000000000000000000000000000000000000000000000000000000000000081525061519c9092919063ffffffff16565b8361519c9092919063ffffffff16565b90506140156040805190810160405280600181526020017f7d00000000000000000000000000000000000000000000000000000000000000815250826152fc90919063ffffffff16565b905080915050919050565b61402861540e565b61403061540e565b6040805190810160405280600181526020017f7b00000000000000000000000000000000000000000000000000000000000000815250905061416b6040805190810160405280601281526020017f226d696c6b696e6741646472436f6465223a000000000000000000000000000081525061412485600001516040805190810160405280600181526020017f22000000000000000000000000000000000000000000000000000000000000008152506040805190810160405280600181526020017f220000000000000000000000000000000000000000000000000000000000000081525061519c9092919063ffffffff16565b6040805190810160405280600181526020017f2c000000000000000000000000000000000000000000000000000000000000008152508461523c909392919063ffffffff16565b90506142706040805190810160405280600e81526020017f226d696c6b696e6755736572223a00000000000000000000000000000000000081525061422985602001516040805190810160405280600181526020017f22000000000000000000000000000000000000000000000000000000000000008152506040805190810160405280600181526020017f220000000000000000000000000000000000000000000000000000000000000081525061519c9092919063ffffffff16565b6040805190810160405280600181526020017f2c000000000000000000000000000000000000000000000000000000000000008152508461523c909392919063ffffffff16565b90506143756040805190810160405280600d81526020017f226d696c6b696e67456e76223a0000000000000000000000000000000000000081525061432e85604001516040805190810160405280600181526020017f22000000000000000000000000000000000000000000000000000000000000008152506040805190810160405280600181526020017f220000000000000000000000000000000000000000000000000000000000000081525061519c9092919063ffffffff16565b6040805190810160405280600181526020017f2c000000000000000000000000000000000000000000000000000000000000008152508461523c909392919063ffffffff16565b90506144436040805190810160405280600e81526020017f226d696c6b696e6754696d65223a00000000000000000000000000000000000081525061443385606001516040805190810160405280600181526020017f22000000000000000000000000000000000000000000000000000000000000008152506040805190810160405280600181526020017f220000000000000000000000000000000000000000000000000000000000000081525061519c9092919063ffffffff16565b8361519c9092919063ffffffff16565b905061448d6040805190810160405280600181526020017f7d00000000000000000000000000000000000000000000000000000000000000815250826152fc90919063ffffffff16565b905080915050919050565b6144a061540e565b6144a861540e565b6040805190810160405280600181526020017f7b0000000000000000000000000000000000000000000000000000000000000081525090506145e36040805190810160405280600b81526020017f2273656c6c436f6465223a00000000000000000000000000000000000000000081525061459c85600001516040805190810160405280600181526020017f22000000000000000000000000000000000000000000000000000000000000008152506040805190810160405280600181526020017f220000000000000000000000000000000000000000000000000000000000000081525061519c9092919063ffffffff16565b6040805190810160405280600181526020017f2c000000000000000000000000000000000000000000000000000000000000008152508461523c909392919063ffffffff16565b90506146e86040805190810160405280600b81526020017f2273656c6c4e616d65223a0000000000000000000000000000000000000000008152506146a185602001516040805190810160405280600181526020017f22000000000000000000000000000000000000000000000000000000000000008152506040805190810160405280600181526020017f220000000000000000000000000000000000000000000000000000000000000081525061519c9092919063ffffffff16565b6040805190810160405280600181526020017f2c000000000000000000000000000000000000000000000000000000000000008152508461523c909392919063ffffffff16565b90506147ed6040805190810160405280600b81526020017f2273656c6c54696d65223a0000000000000000000000000000000000000000008152506147a685604001516040805190810160405280600181526020017f22000000000000000000000000000000000000000000000000000000000000008152506040805190810160405280600181526020017f220000000000000000000000000000000000000000000000000000000000000081525061519c9092919063ffffffff16565b6040805190810160405280600181526020017f2c000000000000000000000000000000000000000000000000000000000000008152508461523c909392919063ffffffff16565b90506148f26040805190810160405280600b81526020017f2273656c6c41646472223a0000000000000000000000000000000000000000008152506148ab85606001516040805190810160405280600181526020017f22000000000000000000000000000000000000000000000000000000000000008152506040805190810160405280600181526020017f220000000000000000000000000000000000000000000000000000000000000081525061519c9092919063ffffffff16565b6040805190810160405280600181526020017f2c000000000000000000000000000000000000000000000000000000000000008152508461523c909392919063ffffffff16565b90506149c06040805190810160405280600c81526020017f2270726f647544617465223a00000000000000000000000000000000000000008152506149b085608001516040805190810160405280600181526020017f22000000000000000000000000000000000000000000000000000000000000008152506040805190810160405280600181526020017f220000000000000000000000000000000000000000000000000000000000000081525061519c9092919063ffffffff16565b8361519c9092919063ffffffff16565b9050614a0a6040805190810160405280600181526020017f7d00000000000000000000000000000000000000000000000000000000000000815250826152fc90919063ffffffff16565b905080915050919050565b614a1d61540e565b614a2561540e565b6040805190810160405280600181526020017f7b000000000000000000000000000000000000000000000000000000000000008152509050614b606040805190810160405280600a81526020017f226661726d734944223a00000000000000000000000000000000000000000000815250614b1985600001516040805190810160405280600181526020017f22000000000000000000000000000000000000000000000000000000000000008152506040805190810160405280600181526020017f220000000000000000000000000000000000000000000000000000000000000081525061519c9092919063ffffffff16565b6040805190810160405280600181526020017f2c000000000000000000000000000000000000000000000000000000000000008152508461523c909392919063ffffffff16565b9050614c656040805190810160405280600c81526020017f226661726d734e616d65223a0000000000000000000000000000000000000000815250614c1e85602001516040805190810160405280600181526020017f22000000000000000000000000000000000000000000000000000000000000008152506040805190810160405280600181526020017f220000000000000000000000000000000000000000000000000000000000000081525061519c9092919063ffffffff16565b6040805190810160405280600181526020017f2c000000000000000000000000000000000000000000000000000000000000008152508461523c909392919063ffffffff16565b9050614d6a6040805190810160405280600b81526020017f226661726d73416464223a000000000000000000000000000000000000000000815250614d2385604001516040805190810160405280600181526020017f22000000000000000000000000000000000000000000000000000000000000008152506040805190810160405280600181526020017f220000000000000000000000000000000000000000000000000000000000000081525061519c9092919063ffffffff16565b6040805190810160405280600181526020017f2c000000000000000000000000000000000000000000000000000000000000008152508461523c909392919063ffffffff16565b9050614e6f6040805190810160405280600981526020017f22636f77566172223a0000000000000000000000000000000000000000000000815250614e2885606001516040805190810160405280600181526020017f22000000000000000000000000000000000000000000000000000000000000008152506040805190810160405280600181526020017f220000000000000000000000000000000000000000000000000000000000000081525061519c9092919063ffffffff16565b6040805190810160405280600181526020017f2c000000000000000000000000000000000000000000000000000000000000008152508461523c909392919063ffffffff16565b9050614f746040805190810160405280600c81526020017f22636f77536f75726365223a0000000000000000000000000000000000000000815250614f2d85608001516040805190810160405280600181526020017f22000000000000000000000000000000000000000000000000000000000000008152506040805190810160405280600181526020017f220000000000000000000000000000000000000000000000000000000000000081525061519c9092919063ffffffff16565b6040805190810160405280600181526020017f2c000000000000000000000000000000000000000000000000000000000000008152508461523c909392919063ffffffff16565b90506150796040805190810160405280600a81526020017f2266656564417175223a000000000000000000000000000000000000000000008152506150328560a001516040805190810160405280600181526020017f22000000000000000000000000000000000000000000000000000000000000008152506040805190810160405280600181526020017f220000000000000000000000000000000000000000000000000000000000000081525061519c9092919063ffffffff16565b6040805190810160405280600181526020017f2c000000000000000000000000000000000000000000000000000000000000008152508461523c909392919063ffffffff16565b90506151476040805190810160405280600b81526020017f22666565644e616d65223a0000000000000000000000000000000000000000008152506151378560c001516040805190810160405280600181526020017f22000000000000000000000000000000000000000000000000000000000000008152506040805190810160405280600181526020017f220000000000000000000000000000000000000000000000000000000000000081525061519c9092919063ffffffff16565b8361519c9092919063ffffffff16565b90506151916040805190810160405280600181526020017f7d00000000000000000000000000000000000000000000000000000000000000815250826152fc90919063ffffffff16565b905080915050919050565b6151a461540e565b6000806000806000865188518a5101016040518059106151c15750595b9080825280601f01601f1916602001820160405250955060208901945060208801935060208701925060208601915060009050615202818301868b51615368565b885181019050615216818301858a51615368565b87518101905061522a818301848951615368565b86518101905050505050509392505050565b61524461540e565b600080600080600080875189518b518d510101016040518059106152655750595b9080825280601f01601f1916602001820160405250965060208b01955060208a019450602089019350602088019250602087019150600090506152ac818301878d51615368565b8a51810190506152c0818301868c51615368565b8951810190506152d4818301858b51615368565b8851810190506152e8818301848a51615368565b875181019050505050505050949350505050565b61530461540e565b6000806000845186510160405180591061531b5750595b9080825280601f01601f1916602001820160405250935060208601925060208501915060208401905061535081848851615368565b61535f86518201838751615368565b50505092915050565b60005b602082101515615390578251845260208401935060208301925060208203915061536b565b6001826020036101000a0390508019835116818551168181178652505050505050565b60c0604051908101604052806153c7615659565b81526020016153d4615659565b81526020016153e1615659565b81526020016153ee615659565b81526020016153fb615659565b8152602001615408615659565b81525090565b602060405190810160405280600081525090565b81548183558181151161544957818360005260206000209182019101615448919061566d565b5b505050565b828054600181600116156101000203166002900490600052602060002090601f016020900481019282601f1061548f57805160ff19168380011785556154bd565b828001600101855582156154bd579182015b828111156154bc5782518255916020019190600101906154a1565b5b5090506154ca9190615699565b5090565b60e0604051908101604052806154e2615659565b81526020016154ef615659565b81526020016154fc615659565b8152602001615509615659565b8152602001615516615659565b8152602001615523615659565b8152602001615530615659565b81525090565b60806040519081016040528061554a615659565b8152602001615557615659565b8152602001615564615659565b8152602001615571615659565b81525090565b81548183558181151161559e5781836000526020600020918201910161559d9190615699565b5b505050565b60a0604051908101604052806155b7615659565b81526020016155c4615659565b81526020016155d1615659565b81526020016155de615659565b81526020016155eb615659565b81525090565b60e060405190810160405280615605615659565b8152602001615612615659565b815260200161561f615659565b815260200161562c615659565b8152602001615639615659565b8152602001615646615659565b8152602001615653615659565b81525090565b602060405190810160405280600081525090565b61569691905b80821115615692576000818161568991906156be565b50600101615673565b5090565b90565b6156bb91905b808211156156b757600081600090555060010161569f565b5090565b90565b50805460018160011615610100020316600290046000825580601f106156e45750615703565b601f0160209004906000526020600020908101906157029190615699565b5b505600a165627a7a723058201d522a8c94865779d4c86f737c9a6da457c409c3b7453923a72dde90c7f2a8050029",
  "source": "pragma solidity ^0.4.19;\r\nimport './Account.sol';\r\n\r\nimport \"./utils/LibString.sol\";\r\nimport \"./utils/LibInt.sol\";\r\n\r\ncontract Info is Account{\r\n    using LibString for *;\r\n    using LibInt for *;\r\n    //--------------- 打算的account.sol\r\n    //--------------- 打算的account.sol\r\n    //--------------- 打算的Utils.sol\r\n    //--------------- 打算的Utils.sol\r\n\r\n    // 生产商部分数据的上链和获取\r\n    struct ProduceInfo{\r\n        // 养殖场代号id\r\n        string farmsID;\r\n        // 养殖场名称；\r\n        string farmsName;\r\n        // 养殖厂地址；\r\n        string farmsAdd;\r\n        // 奶牛品种；\r\n        string cowVar;\r\n        // 奶牛来源\r\n        string cowSource;\r\n        // 养殖饲料；\r\n        string feedAqu;\r\n        // 饲料喂养人；\r\n        string feedName;\r\n    }\r\n    // 挤奶阶段数据\r\n    struct MilkingInfo {\r\n        // 挤奶地址编号\r\n        string milkingAddrCode;\r\n        // 挤奶员；\r\n        string milkingUser;\r\n        // 挤奶卫生情况\r\n        string milkingEnv;\r\n        // 挤奶时间\r\n        string milkingTime;\r\n    }\r\n\r\n    // 加工阶段信息\r\n    struct ProcessInfo {\r\n        // 加工地址代号\r\n        string processAddr;\r\n        // 加工员\r\n        string processName;\r\n        // 加工时间\r\n        string processTime;\r\n        // 包装地址代号\r\n        string balingAddr;\r\n        // 包装员\r\n        string balingName;\r\n        // 加工工艺和设备\r\n        string equiSkil;\r\n    }\r\n\r\n    // 存储与物流阶段数据\r\n    struct StoreExpressInfo{\r\n        // 仓库地址代码\r\n        string storeAddr;\r\n        // 仓储操作员\r\n        string storeName;\r\n        // 入库时间\r\n        string storageTime;\r\n        // 出库时间\r\n        string retirTime;\r\n        // 承运人\r\n        string transName;\r\n        // // 运输单号\r\n        string transCode;\r\n        // // 运输时间\r\n        string transTime;\r\n    }\r\n    // 销售部分数据\r\n    struct SellInfo{\r\n        // 销售单号\r\n        string sellCode;\r\n        // 销售员\r\n        string sellName;\r\n        // 销售日期\r\n        string sellTime;\r\n        // 销售地址\r\n        string sellAddr;\r\n        // 保质期\r\n        string produDate;\r\n    }\r\n\r\n    // id与对应得 上传溯源信息；\r\n    // 各身份得id数组；\r\n    mapping(uint => string) public idToProduce;  //用json的格式代替了\r\n    string[] public produceId;\r\n    // string[] public proJson;\r\n\r\n    mapping(uint => string) public idToMilking;\r\n    string[] public milkingId;\r\n    // string[] public milkJson;\r\n\r\n\r\n    mapping(uint => string) public idToProcess;\r\n    string[] public processId;\r\n    // string[] public processJson;\r\n\r\n    mapping(uint => string) public idToStoreExpress;\r\n    string[] public storeExpressId;\r\n    // string[] public storeExpressJson;\r\n\r\n    mapping(uint => string) public idToSell;\r\n    string[] public sellId;\r\n    // string[] public sellJson;\r\n\r\n\r\n    // 数据上链成功事件定义\r\n    event ProduceDateAdded(uint _ID, string _farmsID, string _farmsName, string _farmsAdd, string _cowVar, string _cowSource, string _feedAqu, string _feedName);\r\n    event MilkingDateAdded(uint _ID, string _milkingAddrCode, string _milkingUser, string _milkingEnv, string _milkingTime);\r\n    event ProcessDateAdded(uint _ID, string _processAddr, string _processName, string _processTime, string _balingAddr, string _balingName, string _equiSkil);\r\n    event StoreExpressDateAdded(uint _ID, string _storeAddr, string _storeName, string _storageTime, string _retirTime, string _transName, string _transCode, string _transTime);\r\n    event SellDateAdded(uint _ID, string _sellCode, string _sellName, string _sellTime, string _sellAddr, string _produDate);\r\n\r\n    // 有咩有办法合成一个方法 上传数据得方法\r\n    \r\n    // 设置生产者信息\r\n    function _setProduceInfo(string _farmsID, string _farmsName, string _farmsAdd, string _cowVar, string _cowSource, string _feedAqu, string _feedName) public {\r\n        // require(PRODUCE.equals(addressToIdentity[msg.sender].identity));\r\n        uint _id = _createId();\r\n        ProduceInfo memory produceOne = ProduceInfo(_farmsID, _farmsName, _farmsAdd, _cowVar, _cowSource, _feedAqu, _feedName);\r\n        produceId.push(_id.toString());\r\n        // string memory _json = proJson1(produceOne, _id);\r\n        // proJson.push(_json);\r\n        string memory _temp = proJson2(produceOne);\r\n        // 字符串不能作为mapping的键嘛？？？\r\n        // 报错：Accessors for mapping with dynamically-sized keys not yet implemented.\r\n        idToProduce[_id] = _temp;\r\n        //proJson2.push(_json2);\r\n        ProduceDateAdded(_id, _farmsID, _farmsName, _farmsAdd, _cowVar, _cowSource, _feedAqu, _feedName);\r\n    }\r\n\r\n    function getProlength() public returns(uint){\r\n        return produceId.length;\r\n    }\r\n\r\n    function proJson1(ProduceInfo _self, uint _id) internal returns(string) {\r\n        // 拼接成这样  ： '{\"id\":\"281401138014041\",\"farmsID\":\"12\",\"farmsName\":\"fad\",\"farmsAdd\":\"a\",\"cowVar\":\"adf\",\"cowSource\":\"a\"}'\r\n        string memory _json = '{';\r\n        _json = _json.concat('\"id\":','\"'.concat(_id.toString(),'\"') ,',');\r\n        _json = _json.concat('\"farmsID\":', '\"'.concat(_self.farmsID,'\"'),',');\r\n        _json = _json.concat('\"farmsName\":', '\"'.concat(_self.farmsName,'\"'),',');\r\n        _json = _json.concat('\"farmsAdd\":', '\"'.concat(_self.farmsAdd,'\"'),',');\r\n        _json = _json.concat('\"cowVar\":', '\"'.concat(_self.cowVar,'\"'),',');\r\n        _json = _json.concat('\"cowSource\":', '\"'.concat(_self.cowSource,'\"'),',');\r\n        _json = _json.concat('\"feedAqu\":', '\"'.concat(_self.feedAqu,'\"'),',');\r\n        _json = _json.concat('\"feedName\":', '\"'.concat(_self.feedName,'\"'));\r\n        _json = _json = _json.concat('}');\r\n        return _json;\r\n    }\r\n\r\n    function proJson2(ProduceInfo _self) internal returns(string){\r\n        // 拼接成这样  ： '{\"281401138014041\":{\"farmsID\":\"12\",\"farmsName\":\"fad\",\"farmsAdd\":\"a\",\"cowVar\":\"adf\",\"cowSource\":\"a\"}}'\r\n        string memory _json = '{';\r\n        _json = _json.concat('\"farmsID\":', '\"'.concat(_self.farmsID,'\"'),',');\r\n        _json = _json.concat('\"farmsName\":', '\"'.concat(_self.farmsName,'\"'),',');\r\n        _json = _json.concat('\"farmsAdd\":', '\"'.concat(_self.farmsAdd,'\"'),',');\r\n        _json = _json.concat('\"cowVar\":', '\"'.concat(_self.cowVar,'\"'),',');\r\n        _json = _json.concat('\"cowSource\":', '\"'.concat(_self.cowSource,'\"'),',');\r\n        _json = _json.concat('\"feedAqu\":', '\"'.concat(_self.feedAqu,'\"'),',');\r\n        _json = _json.concat('\"feedName\":', '\"'.concat(_self.feedName,'\"'));\r\n        _json = _json.concat('}');\r\n        return _json;\r\n    }\r\n    \r\n    // 设置jinai环节信息\r\n    function _setMilkingInfo(string _milkingAddrCode, string _milkingUser, string _milkingEnv, string _milkingTime) public {\r\n        // require(MILKING.equals(addressToIdentity[msg.sender].identity));\r\n        uint _id = _createId();\r\n        MilkingInfo memory milkOne = MilkingInfo(_milkingAddrCode, _milkingUser, _milkingEnv, _milkingTime);\r\n        // idToMilking[_id] = milkOne;\r\n        milkingId.push(_id.toString());\r\n        // string memory _json= milkJson1(milkOne, _id);\r\n        // milkJson.push(_json);\r\n        string memory _temp = milkJson2(milkOne);\r\n        idToMilking[_id] = _temp;\r\n        MilkingDateAdded(_id, _milkingAddrCode, _milkingUser, _milkingEnv, _milkingTime);\r\n    }\r\n\r\n    function milkJson1(MilkingInfo _self, uint _id) internal returns(string) {\r\n        // 拼接成这样  ： '{\"id\":\"281401138014041\",\"farmsID\":\"12\",\"farmsName\":\"fad\",\"farmsAdd\":\"a\",\"cowVar\":\"adf\",\"cowSource\":\"a\"}'\r\n        string memory _json = '{';\r\n        _json = _json.concat('\"id\":','\"'.concat(_id.toString(),'\"') ,',');\r\n        _json = _json.concat('\"milkingAddrCode\":', '\"'.concat(_self.milkingAddrCode,'\"'),',');\r\n        _json = _json.concat('\"milkingUser\":', '\"'.concat(_self.milkingUser,'\"'),',');\r\n        _json = _json.concat('\"milkingEnv\":', '\"'.concat(_self.milkingEnv,'\"'),',');\r\n        _json = _json.concat('\"milkingTime\":', '\"'.concat(_self.milkingTime,'\"'));\r\n        _json = _json = _json.concat('}');\r\n        return _json;\r\n    }\r\n\r\n    function milkJson2(MilkingInfo _self) internal returns(string){\r\n        // 拼接成这样  ： '{\"281401138014041\":{\"farmsID\":\"12\",\"farmsName\":\"fad\",\"farmsAdd\":\"a\",\"cowVar\":\"adf\",\"cowSource\":\"a\"}}'\r\n        string memory _json = '{';\r\n        _json = _json.concat('\"milkingAddrCode\":', '\"'.concat(_self.milkingAddrCode,'\"'),',');\r\n        _json = _json.concat('\"milkingUser\":', '\"'.concat(_self.milkingUser,'\"'),',');\r\n        _json = _json.concat('\"milkingEnv\":', '\"'.concat(_self.milkingEnv,'\"'),',');\r\n        _json = _json.concat('\"milkingTime\":', '\"'.concat(_self.milkingTime,'\"'));\r\n        _json = _json.concat('}');\r\n        return _json;\r\n    }\r\n\r\n    // 设置加工环节的信息\r\n    function _setProcessInfo(string _processAddr, string _processName, string _processTime, string _balingAddr, string _balingName, string _equiSkil) public {\r\n        // require(PROCESS.equals(addressToIdentity[msg.sender].identity));\r\n        uint _id = _createId();\r\n        ProcessInfo memory processOne = ProcessInfo(_processAddr, _processName, _processTime, _balingAddr, _balingName, _equiSkil);\r\n        // idToProcess[_id] = processOne;\r\n        processId.push(_id.toString());\r\n        // string memory _json = processJson1(processOne, _id);\r\n        // processJson.push(_json);\r\n        string memory _temp = processJson2(processOne);\r\n        idToProcess[_id] = _temp;\r\n        ProcessDateAdded(_id, _processAddr, _processName, _processTime, _balingAddr, _balingName, _equiSkil);\r\n    }\r\n\r\n    function processJson1(ProcessInfo _self, uint _id) internal returns(string) {\r\n        // 拼接成这样  ： '{\"id\":\"281401138014041\",\"farmsID\":\"12\",\"farmsName\":\"fad\",\"farmsAdd\":\"a\",\"cowVar\":\"adf\",\"cowSource\":\"a\"}'\r\n        string memory _json = '{';\r\n        _json = _json.concat('\"id\":','\"'.concat(_id.toString(),'\"') ,',');\r\n        _json = _json.concat('\"processAddr\":', '\"'.concat(_self.processAddr,'\"'),',');\r\n        _json = _json.concat('\"processName\":', '\"'.concat(_self.processName,'\"'),',');\r\n        _json = _json.concat('\"processTime\":', '\"'.concat(_self.processTime,'\"'),',');\r\n        _json = _json.concat('\"balingAddr\":', '\"'.concat(_self.balingAddr,'\"'),',');\r\n        _json = _json.concat('\"balingName\":', '\"'.concat(_self.balingName,'\"'),',');\r\n        _json = _json.concat('\"equiSkil\":', '\"'.concat(_self.equiSkil,'\"'));\r\n        _json = _json = _json.concat('}');\r\n        return _json;\r\n    }\r\n\r\n    function processJson2(ProcessInfo _self) internal returns(string){\r\n        // 拼接成这样  ： '{\"281401138014041\":{\"farmsID\":\"12\",\"farmsName\":\"fad\",\"farmsAdd\":\"a\",\"cowVar\":\"adf\",\"cowSource\":\"a\"}}'\r\n        string memory _json = '{';\r\n        _json = _json.concat('\"processAddr\":', '\"'.concat(_self.processAddr,'\"'),',');\r\n        _json = _json.concat('\"processName\":', '\"'.concat(_self.processName,'\"'),',');\r\n        _json = _json.concat('\"processTime\":', '\"'.concat(_self.processTime,'\"'),',');\r\n        _json = _json.concat('\"balingAddr\":', '\"'.concat(_self.balingAddr,'\"'),',');\r\n        _json = _json.concat('\"balingName\":', '\"'.concat(_self.balingName,'\"'),',');\r\n        _json = _json.concat('\"equiSkil\":', '\"'.concat(_self.equiSkil,'\"'));\r\n        _json = _json.concat('}');\r\n        return _json;\r\n    }\r\n\r\n\r\n    // 设置包装物流环节信息\r\n    function _setStoreExpressInfo(string _storeAddr, string _storeName, string _storageTime, string _retirTime, string _transName, string _transCode, string _transTime) public {\r\n        // require(STOREEXPRESS.equals(addressToIdentity[msg.sender].identity));\r\n        uint _id = _createId();\r\n        StoreExpressInfo memory storeExpressOne = StoreExpressInfo(_storeAddr, _storeName, _storageTime, _retirTime, _transName, _transCode, _transTime);\r\n        // idToStoreExpress[_id] = storeExpressOne;\r\n        storeExpressId.push(_id.toString());\r\n        // string memory _json = storeExpressJson1(storeExpressOne, _id);\r\n        // storeExpressJson.push(_json);\r\n        string memory _temp = storeExpressJson2(storeExpressOne);\r\n        idToStoreExpress[_id] = _temp; \r\n        StoreExpressDateAdded(_id, _storeAddr, _storeName, _storageTime, _retirTime, _transName, _transCode, _transTime);\r\n    }\r\n    function storeExpressJson1(StoreExpressInfo _self, uint _id) internal returns(string) {\r\n        // 拼接成这样  ： '{\"id\":\"281401138014041\",\"farmsID\":\"12\",\"farmsName\":\"fad\",\"farmsAdd\":\"a\",\"cowVar\":\"adf\",\"cowSource\":\"a\"}'\r\n        string memory _json = '{';\r\n        _json = _json.concat('\"id\":','\"'.concat(_id.toString(),'\"') ,',');\r\n        _json = _json.concat('\"storeAddr\":', '\"'.concat(_self.storeAddr,'\"'),',');\r\n        _json = _json.concat('\"storeName\":', '\"'.concat(_self.storeName,'\"'),',');\r\n        _json = _json.concat('\"storageTime\":', '\"'.concat(_self.storageTime,'\"'),',');\r\n        _json = _json.concat('\"retirTime\":', '\"'.concat(_self.retirTime,'\"'),',');\r\n        _json = _json.concat('\"transName\":', '\"'.concat(_self.transName,'\"'),',');\r\n        _json = _json.concat('\"transCode\":', '\"'.concat(_self.transCode,'\"'),',');\r\n        _json = _json.concat('\"transTime\":', '\"'.concat(_self.transTime,'\"'));\r\n        _json = _json = _json.concat('}');\r\n        return _json;\r\n    }\r\n\r\n    function storeExpressJson2(StoreExpressInfo _self) internal returns(string){\r\n        // 拼接成这样  ： '{\"281401138014041\":{\"farmsID\":\"12\",\"farmsName\":\"fad\",\"farmsAdd\":\"a\",\"cowVar\":\"adf\",\"cowSource\":\"a\"}}'\r\n        string memory _json = '{';\r\n        _json = _json.concat('\"storeAddr\":', '\"'.concat(_self.storeAddr,'\"'),',');\r\n        _json = _json.concat('\"storeName\":', '\"'.concat(_self.storeName,'\"'),',');\r\n        _json = _json.concat('\"storageTime\":', '\"'.concat(_self.storageTime,'\"'),',');\r\n        _json = _json.concat('\"retirTime\":', '\"'.concat(_self.retirTime,'\"'),',');\r\n        _json = _json.concat('\"transName\":', '\"'.concat(_self.transName,'\"'),',');\r\n        _json = _json.concat('\"transCode\":', '\"'.concat(_self.transCode,'\"'),',');\r\n        _json = _json.concat('\"transTime\":', '\"'.concat(_self.transTime,'\"'));\r\n        _json = _json.concat('}');\r\n        return _json;\r\n    }\r\n    \r\n    // // 设置销售环节信息\r\n    function _setSellInfo(string _sellCode, string _sellName, string _sellTime, string _sellAddr, string _produDate) public {\r\n        // require(SELL.equals(addressToIdentity[msg.sender].identity));\r\n        uint _id = _createId();\r\n        SellInfo memory sellOne = SellInfo(_sellCode, _sellName, _sellTime, _sellAddr, _produDate);\r\n        // idToSell[_id] = sellOne;\r\n        sellId.push(_id.toString());\r\n        // string memory _json = sellJson1(sellOne, _id);\r\n        // sellJson.push(_json);\r\n        string memory _temp = sellJson2(sellOne);\r\n        idToSell[_id] = _temp; \r\n        SellDateAdded(_id, _sellCode, _sellName, _sellTime, _sellAddr, _produDate);\r\n    }\r\n\r\n    function sellJson1(SellInfo _self, uint _id) internal returns(string) {\r\n        // 拼接成这样  ： '{\"id\":\"281401138014041\",\"farmsID\":\"12\",\"farmsName\":\"fad\",\"farmsAdd\":\"a\",\"cowVar\":\"adf\",\"cowSource\":\"a\"}'\r\n        string memory _json = '{';\r\n        _json = _json.concat('\"id\":','\"'.concat(_id.toString(),'\"') ,',');\r\n        _json = _json.concat('\"sellCode\":', '\"'.concat(_self.sellCode,'\"'),',');\r\n        _json = _json.concat('\"sellName\":', '\"'.concat(_self.sellName,'\"'),',');\r\n        _json = _json.concat('\"sellTime\":', '\"'.concat(_self.sellTime,'\"'),',');\r\n        _json = _json.concat('\"sellAddr\":', '\"'.concat(_self.sellAddr,'\"'),',');\r\n        _json = _json.concat('\"produDate\":', '\"'.concat(_self.produDate,'\"'));\r\n        _json = _json = _json.concat('}');\r\n        return _json;\r\n    }\r\n\r\n    function sellJson2(SellInfo _self) internal returns(string){\r\n        // 拼接成这样  ： '{\"281401138014041\":{\"farmsID\":\"12\",\"farmsName\":\"fad\",\"farmsAdd\":\"a\",\"cowVar\":\"adf\",\"cowSource\":\"a\"}}'\r\n        string memory _json = '{';\r\n        _json = _json.concat('\"sellCode\":', '\"'.concat(_self.sellCode,'\"'),',');\r\n        _json = _json.concat('\"sellName\":', '\"'.concat(_self.sellName,'\"'),',');\r\n        _json = _json.concat('\"sellTime\":', '\"'.concat(_self.sellTime,'\"'),',');\r\n        _json = _json.concat('\"sellAddr\":', '\"'.concat(_self.sellAddr,'\"'),',');\r\n        _json = _json.concat('\"produDate\":', '\"'.concat(_self.produDate,'\"'));\r\n        _json = _json.concat('}');\r\n        return _json;\r\n    }\r\n    \r\n}",
  "sourcePath": "C:\\Users\\keruisiya\\Desktop\\溯源实践\\合约练习\\truffle-vue-master\\contracts\\Info.sol",
  "compiler": {
    "name": "solc",
    "version": "0.4.19+commit.c4cbbb05.Emscripten.clang"
  },
  "schemaVersion": "3.0.23",
  "updatedAt": "2021-01-04T11:28:43.990Z",
  "networkType": "ethereum",
  "devdoc": {
    "methods": {
      "transferOwnership(address)": {
        "details": "Allows the current owner to transfer control of the contract to a newOwner.\r",
        "params": {
          "newOwner": "The address to transfer ownership to.\r"
        }
      }
    }
  },
  "userdoc": {
    "methods": {}
  }
}