{
  "contractName": "Info",
  "abi": [
    {
      "constant": true,
      "inputs": [
        {
          "name": "",
          "type": "uint256"
        }
      ],
      "name": "idToSell",
      "outputs": [
        {
          "name": "sellCode",
          "type": "string"
        },
        {
          "name": "sellName",
          "type": "string"
        },
        {
          "name": "sellTime",
          "type": "string"
        },
        {
          "name": "sellAddr",
          "type": "string"
        },
        {
          "name": "produDate",
          "type": "string"
        }
      ],
      "payable": false,
      "stateMutability": "view",
      "type": "function"
    },
    {
      "constant": true,
      "inputs": [
        {
          "name": "",
          "type": "uint256"
        }
      ],
      "name": "participateArr",
      "outputs": [
        {
          "name": "",
          "type": "address"
        }
      ],
      "payable": false,
      "stateMutability": "view",
      "type": "function"
    },
    {
      "constant": true,
      "inputs": [],
      "name": "_createId",
      "outputs": [
        {
          "name": "",
          "type": "uint256"
        }
      ],
      "payable": false,
      "stateMutability": "view",
      "type": "function"
    },
    {
      "constant": true,
      "inputs": [
        {
          "name": "_address",
          "type": "address"
        }
      ],
      "name": "getIdentity",
      "outputs": [
        {
          "name": "",
          "type": "string"
        }
      ],
      "payable": false,
      "stateMutability": "view",
      "type": "function"
    },
    {
      "constant": true,
      "inputs": [
        {
          "name": "",
          "type": "uint256"
        }
      ],
      "name": "idToProduce",
      "outputs": [
        {
          "name": "farmsID",
          "type": "string"
        },
        {
          "name": "farmsName",
          "type": "string"
        },
        {
          "name": "farmsAdd",
          "type": "string"
        },
        {
          "name": "cowVar",
          "type": "string"
        },
        {
          "name": "cowSource",
          "type": "string"
        },
        {
          "name": "feedAqu",
          "type": "string"
        },
        {
          "name": "feedName",
          "type": "string"
        }
      ],
      "payable": false,
      "stateMutability": "view",
      "type": "function"
    },
    {
      "constant": false,
      "inputs": [
        {
          "name": "_address",
          "type": "address"
        },
        {
          "name": "_str",
          "type": "string"
        }
      ],
      "name": "setIdentity",
      "outputs": [],
      "payable": false,
      "stateMutability": "nonpayable",
      "type": "function"
    },
    {
      "constant": true,
      "inputs": [],
      "name": "owner",
      "outputs": [
        {
          "name": "",
          "type": "address"
        }
      ],
      "payable": false,
      "stateMutability": "view",
      "type": "function"
    },
    {
      "constant": true,
      "inputs": [
        {
          "name": "",
          "type": "uint256"
        }
      ],
      "name": "idToProcess",
      "outputs": [
        {
          "name": "processAddr",
          "type": "string"
        },
        {
          "name": "processName",
          "type": "string"
        },
        {
          "name": "processTime",
          "type": "string"
        },
        {
          "name": "balingAddr",
          "type": "string"
        },
        {
          "name": "balingName",
          "type": "string"
        },
        {
          "name": "equiSkil",
          "type": "string"
        }
      ],
      "payable": false,
      "stateMutability": "view",
      "type": "function"
    },
    {
      "constant": true,
      "inputs": [
        {
          "name": "_str1",
          "type": "string"
        },
        {
          "name": "_str2",
          "type": "string"
        }
      ],
      "name": "isStrEqual",
      "outputs": [
        {
          "name": "",
          "type": "bool"
        }
      ],
      "payable": false,
      "stateMutability": "pure",
      "type": "function"
    },
    {
      "constant": true,
      "inputs": [
        {
          "name": "",
          "type": "address"
        }
      ],
      "name": "addressToIdentity",
      "outputs": [
        {
          "name": "identity",
          "type": "string"
        },
        {
          "name": "isVaild",
          "type": "bool"
        }
      ],
      "payable": false,
      "stateMutability": "view",
      "type": "function"
    },
    {
      "constant": false,
      "inputs": [
        {
          "name": "newOwner",
          "type": "address"
        }
      ],
      "name": "transferOwnership",
      "outputs": [],
      "payable": false,
      "stateMutability": "nonpayable",
      "type": "function"
    },
    {
      "constant": true,
      "inputs": [],
      "name": "getIdentityArrLength",
      "outputs": [
        {
          "name": "",
          "type": "uint256"
        }
      ],
      "payable": false,
      "stateMutability": "view",
      "type": "function"
    },
    {
      "constant": true,
      "inputs": [
        {
          "name": "",
          "type": "uint256"
        }
      ],
      "name": "idToMilking",
      "outputs": [
        {
          "name": "milkingAddrCode",
          "type": "string"
        },
        {
          "name": "milkingUser",
          "type": "string"
        },
        {
          "name": "milkingEnv",
          "type": "string"
        },
        {
          "name": "milkingTime",
          "type": "string"
        }
      ],
      "payable": false,
      "stateMutability": "view",
      "type": "function"
    },
    {
      "constant": true,
      "inputs": [
        {
          "name": "",
          "type": "uint256"
        }
      ],
      "name": "idToStoreExpress",
      "outputs": [
        {
          "name": "storeAddr",
          "type": "string"
        },
        {
          "name": "storeName",
          "type": "string"
        },
        {
          "name": "storageTime",
          "type": "string"
        },
        {
          "name": "retirTime",
          "type": "string"
        },
        {
          "name": "transName",
          "type": "string"
        },
        {
          "name": "transCode",
          "type": "string"
        },
        {
          "name": "transTime",
          "type": "string"
        }
      ],
      "payable": false,
      "stateMutability": "view",
      "type": "function"
    },
    {
      "anonymous": false,
      "inputs": [
        {
          "indexed": false,
          "name": "_farmsID",
          "type": "string"
        },
        {
          "indexed": false,
          "name": "_farmsName",
          "type": "string"
        },
        {
          "indexed": false,
          "name": "_farmsAdd",
          "type": "string"
        },
        {
          "indexed": false,
          "name": "_cowVar",
          "type": "string"
        },
        {
          "indexed": false,
          "name": "_cowSource",
          "type": "string"
        },
        {
          "indexed": false,
          "name": "_feedAqu",
          "type": "string"
        },
        {
          "indexed": false,
          "name": "_feedName",
          "type": "string"
        }
      ],
      "name": "ProduceDateAdded",
      "type": "event"
    },
    {
      "anonymous": false,
      "inputs": [
        {
          "indexed": false,
          "name": "_milkingAddrCode",
          "type": "string"
        },
        {
          "indexed": false,
          "name": "_milkingUser",
          "type": "string"
        },
        {
          "indexed": false,
          "name": "_milkingEnv",
          "type": "string"
        },
        {
          "indexed": false,
          "name": "_milkingTime",
          "type": "string"
        }
      ],
      "name": "MilkingDateAdded",
      "type": "event"
    },
    {
      "anonymous": false,
      "inputs": [
        {
          "indexed": false,
          "name": "_processAddr",
          "type": "string"
        },
        {
          "indexed": false,
          "name": "_processName",
          "type": "string"
        },
        {
          "indexed": false,
          "name": "_processTime",
          "type": "string"
        },
        {
          "indexed": false,
          "name": "_balingAddr",
          "type": "string"
        },
        {
          "indexed": false,
          "name": "_balingName",
          "type": "string"
        },
        {
          "indexed": false,
          "name": "_equiSkil",
          "type": "string"
        }
      ],
      "name": "ProcessDateAdded",
      "type": "event"
    },
    {
      "anonymous": false,
      "inputs": [
        {
          "indexed": false,
          "name": "_storeAddr",
          "type": "string"
        },
        {
          "indexed": false,
          "name": "_storeName",
          "type": "string"
        },
        {
          "indexed": false,
          "name": "_storageTime",
          "type": "string"
        },
        {
          "indexed": false,
          "name": "_retirTime",
          "type": "string"
        },
        {
          "indexed": false,
          "name": "_transName",
          "type": "string"
        },
        {
          "indexed": false,
          "name": "_transCode",
          "type": "string"
        },
        {
          "indexed": false,
          "name": "_transTime",
          "type": "string"
        }
      ],
      "name": "StoreExpressDateAdded",
      "type": "event"
    },
    {
      "anonymous": false,
      "inputs": [
        {
          "indexed": false,
          "name": "_sellCode",
          "type": "string"
        },
        {
          "indexed": false,
          "name": "_sellName",
          "type": "string"
        },
        {
          "indexed": false,
          "name": "_sellTime",
          "type": "string"
        },
        {
          "indexed": false,
          "name": "_sellAddr",
          "type": "string"
        },
        {
          "indexed": false,
          "name": "_produDate",
          "type": "string"
        }
      ],
      "name": "SellDateAdded",
      "type": "event"
    },
    {
      "anonymous": false,
      "inputs": [
        {
          "indexed": false,
          "name": "_address",
          "type": "address"
        },
        {
          "indexed": false,
          "name": "_str",
          "type": "string"
        }
      ],
      "name": "identitySetSucc",
      "type": "event"
    },
    {
      "anonymous": false,
      "inputs": [
        {
          "indexed": true,
          "name": "previousOwner",
          "type": "address"
        },
        {
          "indexed": true,
          "name": "newOwner",
          "type": "address"
        }
      ],
      "name": "OwnershipTransferred",
      "type": "event"
    },
    {
      "constant": false,
      "inputs": [
        {
          "name": "_farmsID",
          "type": "string"
        },
        {
          "name": "_farmsName",
          "type": "string"
        },
        {
          "name": "_farmsAdd",
          "type": "string"
        },
        {
          "name": "_cowVar",
          "type": "string"
        },
        {
          "name": "_cowSource",
          "type": "string"
        },
        {
          "name": "_feedAqu",
          "type": "string"
        },
        {
          "name": "_feedName",
          "type": "string"
        }
      ],
      "name": "_setProduceInfo",
      "outputs": [],
      "payable": false,
      "stateMutability": "nonpayable",
      "type": "function"
    },
    {
      "constant": false,
      "inputs": [
        {
          "name": "_milkingAddrCode",
          "type": "string"
        },
        {
          "name": "_milkingUser",
          "type": "string"
        },
        {
          "name": "_milkingEnv",
          "type": "string"
        },
        {
          "name": "_milkingTime",
          "type": "string"
        }
      ],
      "name": "_setMilkingInfo",
      "outputs": [],
      "payable": false,
      "stateMutability": "nonpayable",
      "type": "function"
    },
    {
      "constant": false,
      "inputs": [
        {
          "name": "_processAddr",
          "type": "string"
        },
        {
          "name": "_processName",
          "type": "string"
        },
        {
          "name": "_processTime",
          "type": "string"
        },
        {
          "name": "_balingAddr",
          "type": "string"
        },
        {
          "name": "_balingName",
          "type": "string"
        },
        {
          "name": "_equiSkil",
          "type": "string"
        }
      ],
      "name": "_setProcessInfo",
      "outputs": [],
      "payable": false,
      "stateMutability": "nonpayable",
      "type": "function"
    },
    {
      "constant": false,
      "inputs": [
        {
          "name": "_storeAddr",
          "type": "string"
        },
        {
          "name": "_storeName",
          "type": "string"
        },
        {
          "name": "_storageTime",
          "type": "string"
        },
        {
          "name": "_retirTime",
          "type": "string"
        },
        {
          "name": "_transName",
          "type": "string"
        },
        {
          "name": "_transCode",
          "type": "string"
        },
        {
          "name": "_transTime",
          "type": "string"
        }
      ],
      "name": "_setStoreExpressInfo",
      "outputs": [],
      "payable": false,
      "stateMutability": "nonpayable",
      "type": "function"
    },
    {
      "constant": false,
      "inputs": [
        {
          "name": "_sellCode",
          "type": "string"
        },
        {
          "name": "_sellName",
          "type": "string"
        },
        {
          "name": "_sellTime",
          "type": "string"
        },
        {
          "name": "_sellAddr",
          "type": "string"
        },
        {
          "name": "_produDate",
          "type": "string"
        }
      ],
      "name": "_setSellInfo",
      "outputs": [],
      "payable": false,
      "stateMutability": "nonpayable",
      "type": "function"
    }
  ],
  "bytecode": "0x6060604052662386f26fc100006001556040805190810160405280600781526020017f70726f6475636500000000000000000000000000000000000000000000000000815250600290805190602001906200005c929190620001db565b506040805190810160405280600781526020017f6d696c6b696e670000000000000000000000000000000000000000000000000081525060039080519060200190620000aa929190620001db565b506040805190810160405280600781526020017f70726f636573730000000000000000000000000000000000000000000000000081525060049080519060200190620000f8929190620001db565b506040805190810160405280600c81526020017f73746f72654578707265737300000000000000000000000000000000000000008152506005908051906020019062000146929190620001db565b506040805190810160405280600481526020017f73656c6c000000000000000000000000000000000000000000000000000000008152506006908051906020019062000194929190620001db565b50336000806101000a81548173ffffffffffffffffffffffffffffffffffffffff021916908373ffffffffffffffffffffffffffffffffffffffff1602179055506200028a565b828054600181600116156101000203166002900490600052602060002090601f016020900481019282601f106200021e57805160ff19168380011785556200024f565b828001600101855582156200024f579182015b828111156200024e57825182559160200191906001019062000231565b5b5090506200025e919062000262565b5090565b6200028791905b808211156200028357600081600090555060010162000269565b5090565b90565b61435b806200029a6000396000f300606060405260043610610107576000357c0100000000000000000000000000000000000000000000000000000000900463ffffffff1680630accae561461010c5780630c430c38146103e95780631ea47a101461044c5780632fea7b81146104755780633e10c5891461052757806343d9ec7f146106d35780634ce5f8a6146108c25780635cfaee2014610cb1578063897cab1714610dd75780638da5cb5b14610e535780639fe9e11614610ea8578063b223aadd14611011578063d4cbd9d414611377578063eb4e9b091461142f578063f19339b114611509578063f2fde38b146116f8578063f8262ac814611731578063f9e1c5001461175a578063ff001aa0146119ae575b600080fd5b341561011757600080fd5b61012d6004808035906020019091905050611d9d565b60405180806020018060200180602001806020018060200186810386528b8181546001816001161561010002031660029004815260200191508054600181600116156101000203166002900480156101c65780601f1061019b576101008083540402835291602001916101c6565b820191906000526020600020905b8154815290600101906020018083116101a957829003601f168201915b505086810385528a8181546001816001161561010002031660029004815260200191508054600181600116156101000203166002900480156102495780601f1061021e57610100808354040283529160200191610249565b820191906000526020600020905b81548152906001019060200180831161022c57829003601f168201915b50508681038452898181546001816001161561010002031660029004815260200191508054600181600116156101000203166002900480156102cc5780601f106102a1576101008083540402835291602001916102cc565b820191906000526020600020905b8154815290600101906020018083116102af57829003601f168201915b505086810383528881815460018160011615610100020316600290048152602001915080546001816001161561010002031660029004801561034f5780601f106103245761010080835404028352916020019161034f565b820191906000526020600020905b81548152906001019060200180831161033257829003601f168201915b50508681038252878181546001816001161561010002031660029004815260200191508054600181600116156101000203166002900480156103d25780601f106103a7576101008083540402835291602001916103d2565b820191906000526020600020905b8154815290600101906020018083116103b557829003601f168201915b50509a505050505050505050505060405180910390f35b34156103f457600080fd5b61040a6004808035906020019091905050611dce565b604051808273ffffffffffffffffffffffffffffffffffffffff1673ffffffffffffffffffffffffffffffffffffffff16815260200191505060405180910390f35b341561045757600080fd5b61045f611e0d565b6040518082815260200191505060405180910390f35b341561048057600080fd5b6104ac600480803573ffffffffffffffffffffffffffffffffffffffff16906020019091905050611e40565b6040518080602001828103825283818151815260200191508051906020019080838360005b838110156104ec5780820151818401526020810190506104d1565b50505050905090810190601f1680156105195780820380516001836020036101000a031916815260200191505b509250505060405180910390f35b341561053257600080fd5b6106d1600480803590602001908201803590602001908080601f0160208091040260200160405190810160405280939291908181526020018383808284378201915050505050509190803590602001908201803590602001908080601f0160208091040260200160405190810160405280939291908181526020018383808284378201915050505050509190803590602001908201803590602001908080601f0160208091040260200160405190810160405280939291908181526020018383808284378201915050505050509190803590602001908201803590602001908080601f0160208091040260200160405190810160405280939291908181526020018383808284378201915050505050509190803590602001908201803590602001908080601f0160208091040260200160405190810160405280939291908181526020018383808284378201915050505050509190803590602001908201803590602001908080601f01602080910402602001604051908101604052809392919081815260200183838082843782019150505050505091905050611f2a565b005b34156106de57600080fd5b6108c0600480803590602001908201803590602001908080601f0160208091040260200160405190810160405280939291908181526020018383808284378201915050505050509190803590602001908201803590602001908080601f0160208091040260200160405190810160405280939291908181526020018383808284378201915050505050509190803590602001908201803590602001908080601f0160208091040260200160405190810160405280939291908181526020018383808284378201915050505050509190803590602001908201803590602001908080601f0160208091040260200160405190810160405280939291908181526020018383808284378201915050505050509190803590602001908201803590602001908080601f0160208091040260200160405190810160405280939291908181526020018383808284378201915050505050509190803590602001908201803590602001908080601f0160208091040260200160405190810160405280939291908181526020018383808284378201915050505050509190803590602001908201803590602001908080601f016020809104026020016040519081016040528093929190818152602001838380828437820191505050505050919050506124ac565b005b34156108cd57600080fd5b6108e36004808035906020019091905050612abf565b604051808060200180602001806020018060200180602001806020018060200188810388528f8181546001816001161561010002031660029004815260200191508054600181600116156101000203166002900480156109845780601f1061095957610100808354040283529160200191610984565b820191906000526020600020905b81548152906001019060200180831161096757829003601f168201915b505088810387528e818154600181600116156101000203166002900481526020019150805460018160011615610100020316600290048015610a075780601f106109dc57610100808354040283529160200191610a07565b820191906000526020600020905b8154815290600101906020018083116109ea57829003601f168201915b505088810386528d818154600181600116156101000203166002900481526020019150805460018160011615610100020316600290048015610a8a5780601f10610a5f57610100808354040283529160200191610a8a565b820191906000526020600020905b815481529060010190602001808311610a6d57829003601f168201915b505088810385528c818154600181600116156101000203166002900481526020019150805460018160011615610100020316600290048015610b0d5780601f10610ae257610100808354040283529160200191610b0d565b820191906000526020600020905b815481529060010190602001808311610af057829003601f168201915b505088810384528b818154600181600116156101000203166002900481526020019150805460018160011615610100020316600290048015610b905780601f10610b6557610100808354040283529160200191610b90565b820191906000526020600020905b815481529060010190602001808311610b7357829003601f168201915b505088810383528a818154600181600116156101000203166002900481526020019150805460018160011615610100020316600290048015610c135780601f10610be857610100808354040283529160200191610c13565b820191906000526020600020905b815481529060010190602001808311610bf657829003601f168201915b5050888103825289818154600181600116156101000203166002900481526020019150805460018160011615610100020316600290048015610c965780601f10610c6b57610100808354040283529160200191610c96565b820191906000526020600020905b815481529060010190602001808311610c7957829003601f168201915b50509e50505050505050505050505050505060405180910390f35b3415610cbc57600080fd5b610dd5600480803590602001908201803590602001908080601f0160208091040260200160405190810160405280939291908181526020018383808284378201915050505050509190803590602001908201803590602001908080601f0160208091040260200160405190810160405280939291908181526020018383808284378201915050505050509190803590602001908201803590602001908080601f0160208091040260200160405190810160405280939291908181526020018383808284378201915050505050509190803590602001908201803590602001908080601f01602080910402602001604051908101604052809392919081815260200183838082843782019150505050505091905050612afa565b005b3415610de257600080fd5b610e51600480803573ffffffffffffffffffffffffffffffffffffffff1690602001909190803590602001908201803590602001908080601f01602080910402602001604051908101604052809392919081815260200183838082843782019150505050505091905050612f5a565b005b3415610e5e57600080fd5b610e6661319f565b604051808273ffffffffffffffffffffffffffffffffffffffff1673ffffffffffffffffffffffffffffffffffffffff16815260200191505060405180910390f35b3415610eb357600080fd5b61100f600480803590602001908201803590602001908080601f0160208091040260200160405190810160405280939291908181526020018383808284378201915050505050509190803590602001908201803590602001908080601f0160208091040260200160405190810160405280939291908181526020018383808284378201915050505050509190803590602001908201803590602001908080601f0160208091040260200160405190810160405280939291908181526020018383808284378201915050505050509190803590602001908201803590602001908080601f0160208091040260200160405190810160405280939291908181526020018383808284378201915050505050509190803590602001908201803590602001908080601f016020809104026020016040519081016040528093929190818152602001838380828437820191505050505050919050506131c4565b005b341561101c57600080fd5b61103260048080359060200190919050506136b5565b6040518080602001806020018060200180602001806020018060200187810387528d8181546001816001161561010002031660029004815260200191508054600181600116156101000203166002900480156110cf5780601f106110a4576101008083540402835291602001916110cf565b820191906000526020600020905b8154815290600101906020018083116110b257829003601f168201915b505087810386528c8181546001816001161561010002031660029004815260200191508054600181600116156101000203166002900480156111525780601f1061112757610100808354040283529160200191611152565b820191906000526020600020905b81548152906001019060200180831161113557829003601f168201915b505087810385528b8181546001816001161561010002031660029004815260200191508054600181600116156101000203166002900480156111d55780601f106111aa576101008083540402835291602001916111d5565b820191906000526020600020905b8154815290600101906020018083116111b857829003601f168201915b505087810384528a8181546001816001161561010002031660029004815260200191508054600181600116156101000203166002900480156112585780601f1061122d57610100808354040283529160200191611258565b820191906000526020600020905b81548152906001019060200180831161123b57829003601f168201915b50508781038352898181546001816001161561010002031660029004815260200191508054600181600116156101000203166002900480156112db5780601f106112b0576101008083540402835291602001916112db565b820191906000526020600020905b8154815290600101906020018083116112be57829003601f168201915b505087810382528881815460018160011615610100020316600290048152602001915080546001816001161561010002031660029004801561135e5780601f106113335761010080835404028352916020019161135e565b820191906000526020600020905b81548152906001019060200180831161134157829003601f168201915b50509c5050505050505050505050505060405180910390f35b341561138257600080fd5b611415600480803590602001908201803590602001908080601f0160208091040260200160405190810160405280939291908181526020018383808284378201915050505050509190803590602001908201803590602001908080601f016020809104026020016040519081016040528093929190818152602001838380828437820191505050505050919050506136eb565b604051808215151515815260200191505060405180910390f35b341561143a57600080fd5b611466600480803573ffffffffffffffffffffffffffffffffffffffff169060200190919050506137c4565b6040518080602001831515151581526020018281038252848181546001816001161561010002031660029004815260200191508054600181600116156101000203166002900480156114f95780601f106114ce576101008083540402835291602001916114f9565b820191906000526020600020905b8154815290600101906020018083116114dc57829003601f168201915b5050935050505060405180910390f35b341561151457600080fd5b6116f6600480803590602001908201803590602001908080601f0160208091040260200160405190810160405280939291908181526020018383808284378201915050505050509190803590602001908201803590602001908080601f0160208091040260200160405190810160405280939291908181526020018383808284378201915050505050509190803590602001908201803590602001908080601f0160208091040260200160405190810160405280939291908181526020018383808284378201915050505050509190803590602001908201803590602001908080601f0160208091040260200160405190810160405280939291908181526020018383808284378201915050505050509190803590602001908201803590602001908080601f0160208091040260200160405190810160405280939291908181526020018383808284378201915050505050509190803590602001908201803590602001908080601f0160208091040260200160405190810160405280939291908181526020018383808284378201915050505050509190803590602001908201803590602001908080601f016020809104026020016040519081016040528093929190818152602001838380828437820191505050505050919050506137f4565b005b341561170357600080fd5b61172f600480803573ffffffffffffffffffffffffffffffffffffffff16906020019091905050613e07565b005b341561173c57600080fd5b611744613f5c565b6040518082815260200191505060405180910390f35b341561176557600080fd5b61177b6004808035906020019091905050613f69565b60405180806020018060200180602001806020018581038552898181546001816001161561010002031660029004815260200191508054600181600116156101000203166002900480156118105780601f106117e557610100808354040283529160200191611810565b820191906000526020600020905b8154815290600101906020018083116117f357829003601f168201915b50508581038452888181546001816001161561010002031660029004815260200191508054600181600116156101000203166002900480156118935780601f1061186857610100808354040283529160200191611893565b820191906000526020600020905b81548152906001019060200180831161187657829003601f168201915b50508581038352878181546001816001161561010002031660029004815260200191508054600181600116156101000203166002900480156119165780601f106118eb57610100808354040283529160200191611916565b820191906000526020600020905b8154815290600101906020018083116118f957829003601f168201915b50508581038252868181546001816001161561010002031660029004815260200191508054600181600116156101000203166002900480156119995780601f1061196e57610100808354040283529160200191611999565b820191906000526020600020905b81548152906001019060200180831161197c57829003601f168201915b50509850505050505050505060405180910390f35b34156119b957600080fd5b6119cf6004808035906020019091905050613f95565b604051808060200180602001806020018060200180602001806020018060200188810388528f818154600181600116156101000203166002900481526020019150805460018160011615610100020316600290048015611a705780601f10611a4557610100808354040283529160200191611a70565b820191906000526020600020905b815481529060010190602001808311611a5357829003601f168201915b505088810387528e818154600181600116156101000203166002900481526020019150805460018160011615610100020316600290048015611af35780601f10611ac857610100808354040283529160200191611af3565b820191906000526020600020905b815481529060010190602001808311611ad657829003601f168201915b505088810386528d818154600181600116156101000203166002900481526020019150805460018160011615610100020316600290048015611b765780601f10611b4b57610100808354040283529160200191611b76565b820191906000526020600020905b815481529060010190602001808311611b5957829003601f168201915b505088810385528c818154600181600116156101000203166002900481526020019150805460018160011615610100020316600290048015611bf95780601f10611bce57610100808354040283529160200191611bf9565b820191906000526020600020905b815481529060010190602001808311611bdc57829003601f168201915b505088810384528b818154600181600116156101000203166002900481526020019150805460018160011615610100020316600290048015611c7c5780601f10611c5157610100808354040283529160200191611c7c565b820191906000526020600020905b815481529060010190602001808311611c5f57829003601f168201915b505088810383528a818154600181600116156101000203166002900481526020019150805460018160011615610100020316600290048015611cff5780601f10611cd457610100808354040283529160200191611cff565b820191906000526020600020905b815481529060010190602001808311611ce257829003601f168201915b5050888103825289818154600181600116156101000203166002900481526020019150805460018160011615610100020316600290048015611d825780601f10611d5757610100808354040283529160200191611d82565b820191906000526020600020905b815481529060010190602001808311611d6557829003601f168201915b50509e50505050505050505050505050505060405180910390f35b6011602052806000526040600020600091509050806000019080600101908060020190806003019080600401905085565b600781815481101515611ddd57fe5b90600052602060002090016000915054906101000a900473ffffffffffffffffffffffffffffffffffffffff1681565b6000804260405180828152602001915050604051809103902060019004905060015481811515611e3957fe5b0691505090565b611e48613fd0565b600860008373ffffffffffffffffffffffffffffffffffffffff1673ffffffffffffffffffffffffffffffffffffffff1681526020019081526020016000206000018054600181600116156101000203166002900480601f016020809104026020016040519081016040528092919081815260200182805460018160011615610100020316600290048015611f1e5780601f10611ef357610100808354040283529160200191611f1e565b820191906000526020600020905b815481529060010190602001808311611f0157829003601f168201915b50505050509050919050565b6000611f34613fe4565b6120b2600860003373ffffffffffffffffffffffffffffffffffffffff1673ffffffffffffffffffffffffffffffffffffffff1681526020019081526020016000206000018054600181600116156101000203166002900480601f01602080910402602001604051908101604052809291908181526020018280546001816001161561010002031660029004801561200d5780601f10611fe25761010080835404028352916020019161200d565b820191906000526020600020905b815481529060010190602001808311611ff057829003601f168201915b505050505060048054600181600116156101000203166002900480601f0160208091040260200160405190810160405280929190818152602001828054600181600116156101000203166002900480156120a85780601f1061207d576101008083540402835291602001916120a8565b820191906000526020600020905b81548152906001019060200180831161208b57829003601f168201915b50505050506136eb565b15156120bd57600080fd5b6120c5611e0d565b915060c06040519081016040528089815260200188815260200187815260200186815260200185815260200184815250905080600d6000848152602001908152602001600020600082015181600001908051906020019061212792919061403f565b50602082015181600101908051906020019061214492919061403f565b50604082015181600201908051906020019061216192919061403f565b50606082015181600301908051906020019061217e92919061403f565b50608082015181600401908051906020019061219b92919061403f565b5060a08201518160050190805190602001906121b892919061403f565b50905050600e80548060010182816121d091906140bf565b9160005260206000209001600084909190915055507f5b80655908927a80d1b27a0ed0a545d0614c3eb715ae226b86a6835b158c94788888888888886040518080602001806020018060200180602001806020018060200187810387528d818151815260200191508051906020019080838360005b83811015612260578082015181840152602081019050612245565b50505050905090810190601f16801561228d5780820380516001836020036101000a031916815260200191505b5087810386528c818151815260200191508051906020019080838360005b838110156122c65780820151818401526020810190506122ab565b50505050905090810190601f1680156122f35780820380516001836020036101000a031916815260200191505b5087810385528b818151815260200191508051906020019080838360005b8381101561232c578082015181840152602081019050612311565b50505050905090810190601f1680156123595780820380516001836020036101000a031916815260200191505b5087810384528a818151815260200191508051906020019080838360005b83811015612392578082015181840152602081019050612377565b50505050905090810190601f1680156123bf5780820380516001836020036101000a031916815260200191505b50878103835289818151815260200191508051906020019080838360005b838110156123f85780820151818401526020810190506123dd565b50505050905090810190601f1680156124255780820380516001836020036101000a031916815260200191505b50878103825288818151815260200191508051906020019080838360005b8381101561245e578082015181840152602081019050612443565b50505050905090810190601f16801561248b5780820380516001836020036101000a031916815260200191505b509c5050505050505050505050505060405180910390a15050505050505050565b60006124b66140eb565b612634600860003373ffffffffffffffffffffffffffffffffffffffff1673ffffffffffffffffffffffffffffffffffffffff1681526020019081526020016000206000018054600181600116156101000203166002900480601f01602080910402602001604051908101604052809291908181526020018280546001816001161561010002031660029004801561258f5780601f106125645761010080835404028352916020019161258f565b820191906000526020600020905b81548152906001019060200180831161257257829003601f168201915b505050505060058054600181600116156101000203166002900480601f01602080910402602001604051908101604052809291908181526020018280546001816001161561010002031660029004801561262a5780601f106125ff5761010080835404028352916020019161262a565b820191906000526020600020905b81548152906001019060200180831161260d57829003601f168201915b50505050506136eb565b151561263f57600080fd5b612647611e0d565b915060e0604051908101604052808a815260200189815260200188815260200187815260200186815260200185815260200184815250905080600f600084815260200190815260200160002060008201518160000190805190602001906126af92919061403f565b5060208201518160010190805190602001906126cc92919061403f565b5060408201518160020190805190602001906126e992919061403f565b50606082015181600301908051906020019061270692919061403f565b50608082015181600401908051906020019061272392919061403f565b5060a082015181600501908051906020019061274092919061403f565b5060c082015181600601908051906020019061275d92919061403f565b509050506010805480600101828161277591906140bf565b9160005260206000209001600084909190915055507fac456624630f482286063b6967b5046d3a6fd7828b0da595d8cb653236a979f289898989898989604051808060200180602001806020018060200180602001806020018060200188810388528f818151815260200191508051906020019080838360005b8381101561280a5780820151818401526020810190506127ef565b50505050905090810190601f1680156128375780820380516001836020036101000a031916815260200191505b5088810387528e818151815260200191508051906020019080838360005b83811015612870578082015181840152602081019050612855565b50505050905090810190601f16801561289d5780820380516001836020036101000a031916815260200191505b5088810386528d818151815260200191508051906020019080838360005b838110156128d65780820151818401526020810190506128bb565b50505050905090810190601f1680156129035780820380516001836020036101000a031916815260200191505b5088810385528c818151815260200191508051906020019080838360005b8381101561293c578082015181840152602081019050612921565b50505050905090810190601f1680156129695780820380516001836020036101000a031916815260200191505b5088810384528b818151815260200191508051906020019080838360005b838110156129a2578082015181840152602081019050612987565b50505050905090810190601f1680156129cf5780820380516001836020036101000a031916815260200191505b5088810383528a818151815260200191508051906020019080838360005b83811015612a085780820151818401526020810190506129ed565b50505050905090810190601f168015612a355780820380516001836020036101000a031916815260200191505b50888103825289818151815260200191508051906020019080838360005b83811015612a6e578082015181840152602081019050612a53565b50505050905090810190601f168015612a9b5780820380516001836020036101000a031916815260200191505b509e50505050505050505050505050505060405180910390a1505050505050505050565b600960205280600052604060002060009150905080600001908060010190806002019080600301908060040190806005019080600601905087565b6000612b04614153565b612c82600860003373ffffffffffffffffffffffffffffffffffffffff1673ffffffffffffffffffffffffffffffffffffffff1681526020019081526020016000206000018054600181600116156101000203166002900480601f016020809104026020016040519081016040528092919081815260200182805460018160011615610100020316600290048015612bdd5780601f10612bb257610100808354040283529160200191612bdd565b820191906000526020600020905b815481529060010190602001808311612bc057829003601f168201915b505050505060038054600181600116156101000203166002900480601f016020809104026020016040519081016040528092919081815260200182805460018160011615610100020316600290048015612c785780601f10612c4d57610100808354040283529160200191612c78565b820191906000526020600020905b815481529060010190602001808311612c5b57829003601f168201915b50505050506136eb565b1515612c8d57600080fd5b612c95611e0d565b915060806040519081016040528087815260200186815260200185815260200184815250905080600b60008481526020019081526020016000206000820151816000019080519060200190612ceb92919061403f565b506020820151816001019080519060200190612d0892919061403f565b506040820151816002019080519060200190612d2592919061403f565b506060820151816003019080519060200190612d4292919061403f565b50905050600c8054806001018281612d5a91906140bf565b9160005260206000209001600084909190915055507fa83bfee1c00e80bebb5284bc6d2fb43a4cc6338c75613e28208c711a89bb881e868686866040518080602001806020018060200180602001858103855289818151815260200191508051906020019080838360005b83811015612de0578082015181840152602081019050612dc5565b50505050905090810190601f168015612e0d5780820380516001836020036101000a031916815260200191505b50858103845288818151815260200191508051906020019080838360005b83811015612e46578082015181840152602081019050612e2b565b50505050905090810190601f168015612e735780820380516001836020036101000a031916815260200191505b50858103835287818151815260200191508051906020019080838360005b83811015612eac578082015181840152602081019050612e91565b50505050905090810190601f168015612ed95780820380516001836020036101000a031916815260200191505b50858103825286818151815260200191508051906020019080838360005b83811015612f12578082015181840152602081019050612ef7565b50505050905090810190601f168015612f3f5780820380516001836020036101000a031916815260200191505b509850505050505050505060405180910390a1505050505050565b600860008373ffffffffffffffffffffffffffffffffffffffff1673ffffffffffffffffffffffffffffffffffffffff16815260200190815260200160002060010160009054906101000a900460ff16151515612fb657600080fd5b80600860008473ffffffffffffffffffffffffffffffffffffffff1673ffffffffffffffffffffffffffffffffffffffff168152602001908152602001600020600001908051906020019061300c929190614194565b506001600860008473ffffffffffffffffffffffffffffffffffffffff1673ffffffffffffffffffffffffffffffffffffffff16815260200190815260200160002060010160006101000a81548160ff0219169083151502179055506007805480600101828161307c9190614214565b9160005260206000209001600084909190916101000a81548173ffffffffffffffffffffffffffffffffffffffff021916908373ffffffffffffffffffffffffffffffffffffffff160217905550507f30c866340f6b6c54e0aff2b1bdaf8f0215da88d148833e1b6fd123f81d790c908282604051808373ffffffffffffffffffffffffffffffffffffffff1673ffffffffffffffffffffffffffffffffffffffff16815260200180602001828103825283818151815260200191508051906020019080838360005b83811015613160578082015181840152602081019050613145565b50505050905090810190601f16801561318d5780820380516001836020036101000a031916815260200191505b50935050505060405180910390a15050565b6000809054906101000a900473ffffffffffffffffffffffffffffffffffffffff1681565b60006131ce614240565b61334c600860003373ffffffffffffffffffffffffffffffffffffffff1673ffffffffffffffffffffffffffffffffffffffff1681526020019081526020016000206000018054600181600116156101000203166002900480601f0160208091040260200160405190810160405280929190818152602001828054600181600116156101000203166002900480156132a75780601f1061327c576101008083540402835291602001916132a7565b820191906000526020600020905b81548152906001019060200180831161328a57829003601f168201915b505050505060068054600181600116156101000203166002900480601f0160208091040260200160405190810160405280929190818152602001828054600181600116156101000203166002900480156133425780601f1061331757610100808354040283529160200191613342565b820191906000526020600020905b81548152906001019060200180831161332557829003601f168201915b50505050506136eb565b151561335757600080fd5b61335f611e0d565b915060a060405190810160405280888152602001878152602001868152602001858152602001848152509050806011600084815260200190815260200160002060008201518160000190805190602001906133bb92919061403f565b5060208201518160010190805190602001906133d892919061403f565b5060408201518160020190805190602001906133f592919061403f565b50606082015181600301908051906020019061341292919061403f565b50608082015181600401908051906020019061342f92919061403f565b509050506012805480600101828161344791906140bf565b9160005260206000209001600084909190915055507fe991d4e58db80e3cbe72b61b47d17fabe20fd54e223a2dc9592e4110be8ac6f7878787878760405180806020018060200180602001806020018060200186810386528b818151815260200191508051906020019080838360005b838110156134d25780820151818401526020810190506134b7565b50505050905090810190601f1680156134ff5780820380516001836020036101000a031916815260200191505b5086810385528a818151815260200191508051906020019080838360005b8381101561353857808201518184015260208101905061351d565b50505050905090810190601f1680156135655780820380516001836020036101000a031916815260200191505b50868103845289818151815260200191508051906020019080838360005b8381101561359e578082015181840152602081019050613583565b50505050905090810190601f1680156135cb5780820380516001836020036101000a031916815260200191505b50868103835288818151815260200191508051906020019080838360005b838110156136045780820151818401526020810190506135e9565b50505050905090810190601f1680156136315780820380516001836020036101000a031916815260200191505b50868103825287818151815260200191508051906020019080838360005b8381101561366a57808201518184015260208101905061364f565b50505050905090810190601f1680156136975780820380516001836020036101000a031916815260200191505b509a505050505050505050505060405180910390a150505050505050565b600d6020528060005260406000206000915090508060000190806001019080600201908060030190806004019080600501905086565b6000816040518082805190602001908083835b60208310151561372357805182526020820191506020810190506020830392506136fe565b6001836020036101000a038019825116818451168082178552505050505050905001915050604051809103902060001916836040518082805190602001908083835b60208310151561378a5780518252602082019150602081019050602083039250613765565b6001836020036101000a03801982511681845116808217855250505050505090500191505060405180910390206000191614905092915050565b600860205280600052604060002060009150905080600001908060010160009054906101000a900460ff16905082565b60006137fe61428e565b61397c600860003373ffffffffffffffffffffffffffffffffffffffff1673ffffffffffffffffffffffffffffffffffffffff1681526020019081526020016000206000018054600181600116156101000203166002900480601f0160208091040260200160405190810160405280929190818152602001828054600181600116156101000203166002900480156138d75780601f106138ac576101008083540402835291602001916138d7565b820191906000526020600020905b8154815290600101906020018083116138ba57829003601f168201915b505050505060028054600181600116156101000203166002900480601f0160208091040260200160405190810160405280929190818152602001828054600181600116156101000203166002900480156139725780601f1061394757610100808354040283529160200191613972565b820191906000526020600020905b81548152906001019060200180831161395557829003601f168201915b50505050506136eb565b151561398757600080fd5b61398f611e0d565b915060e0604051908101604052808a8152602001898152602001888152602001878152602001868152602001858152602001848152509050806009600084815260200190815260200160002060008201518160000190805190602001906139f792919061403f565b506020820151816001019080519060200190613a1492919061403f565b506040820151816002019080519060200190613a3192919061403f565b506060820151816003019080519060200190613a4e92919061403f565b506080820151816004019080519060200190613a6b92919061403f565b5060a0820151816005019080519060200190613a8892919061403f565b5060c0820151816006019080519060200190613aa592919061403f565b50905050600a8054806001018281613abd91906140bf565b9160005260206000209001600084909190915055507f0c6404e3c22d55d4ae42e3878013877043028683b9d44103aaa20a33f52ff80a89898989898989604051808060200180602001806020018060200180602001806020018060200188810388528f818151815260200191508051906020019080838360005b83811015613b52578082015181840152602081019050613b37565b50505050905090810190601f168015613b7f5780820380516001836020036101000a031916815260200191505b5088810387528e818151815260200191508051906020019080838360005b83811015613bb8578082015181840152602081019050613b9d565b50505050905090810190601f168015613be55780820380516001836020036101000a031916815260200191505b5088810386528d818151815260200191508051906020019080838360005b83811015613c1e578082015181840152602081019050613c03565b50505050905090810190601f168015613c4b5780820380516001836020036101000a031916815260200191505b5088810385528c818151815260200191508051906020019080838360005b83811015613c84578082015181840152602081019050613c69565b50505050905090810190601f168015613cb15780820380516001836020036101000a031916815260200191505b5088810384528b818151815260200191508051906020019080838360005b83811015613cea578082015181840152602081019050613ccf565b50505050905090810190601f168015613d175780820380516001836020036101000a031916815260200191505b5088810383528a818151815260200191508051906020019080838360005b83811015613d50578082015181840152602081019050613d35565b50505050905090810190601f168015613d7d5780820380516001836020036101000a031916815260200191505b50888103825289818151815260200191508051906020019080838360005b83811015613db6578082015181840152602081019050613d9b565b50505050905090810190601f168015613de35780820380516001836020036101000a031916815260200191505b509e50505050505050505050505050505060405180910390a1505050505050505050565b6000809054906101000a900473ffffffffffffffffffffffffffffffffffffffff1673ffffffffffffffffffffffffffffffffffffffff163373ffffffffffffffffffffffffffffffffffffffff16141515613e6257600080fd5b600073ffffffffffffffffffffffffffffffffffffffff168173ffffffffffffffffffffffffffffffffffffffff1614151515613e9e57600080fd5b8073ffffffffffffffffffffffffffffffffffffffff166000809054906101000a900473ffffffffffffffffffffffffffffffffffffffff1673ffffffffffffffffffffffffffffffffffffffff167f8be0079c531659141344cd1fd0a4f28419497f9722a3daafe3b4186f6b6457e060405160405180910390a3806000806101000a81548173ffffffffffffffffffffffffffffffffffffffff021916908373ffffffffffffffffffffffffffffffffffffffff16021790555050565b6000600780549050905090565b600b60205280600052604060002060009150905080600001908060010190806002019080600301905084565b600f60205280600052604060002060009150905080600001908060010190806002019080600301908060040190806005019080600601905087565b602060405190810160405280600081525090565b60c060405190810160405280613ff86142f6565b81526020016140056142f6565b81526020016140126142f6565b815260200161401f6142f6565b815260200161402c6142f6565b81526020016140396142f6565b81525090565b828054600181600116156101000203166002900490600052602060002090601f016020900481019282601f1061408057805160ff19168380011785556140ae565b828001600101855582156140ae579182015b828111156140ad578251825591602001919060010190614092565b5b5090506140bb919061430a565b5090565b8154818355818115116140e6578183600052602060002091820191016140e5919061430a565b5b505050565b60e0604051908101604052806140ff6142f6565b815260200161410c6142f6565b81526020016141196142f6565b81526020016141266142f6565b81526020016141336142f6565b81526020016141406142f6565b815260200161414d6142f6565b81525090565b6080604051908101604052806141676142f6565b81526020016141746142f6565b81526020016141816142f6565b815260200161418e6142f6565b81525090565b828054600181600116156101000203166002900490600052602060002090601f016020900481019282601f106141d557805160ff1916838001178555614203565b82800160010185558215614203579182015b828111156142025782518255916020019190600101906141e7565b5b509050614210919061430a565b5090565b81548183558181151161423b5781836000526020600020918201910161423a919061430a565b5b505050565b60a0604051908101604052806142546142f6565b81526020016142616142f6565b815260200161426e6142f6565b815260200161427b6142f6565b81526020016142886142f6565b81525090565b60e0604051908101604052806142a26142f6565b81526020016142af6142f6565b81526020016142bc6142f6565b81526020016142c96142f6565b81526020016142d66142f6565b81526020016142e36142f6565b81526020016142f06142f6565b81525090565b602060405190810160405280600081525090565b61432c91905b80821115614328576000816000905550600101614310565b5090565b905600a165627a7a72305820412e243a41367c8208ab7fa2ddbd9bd0626c235e530c45b20354635c2938a40b0029",
  "source": "pragma solidity ^0.4.19;\r\nimport './Account.sol';\r\n\r\ncontract Info is Account{\r\n\r\n    //--------------- 打算的account.sol\r\n\r\n    //--------------- 打算的account.sol\r\n\r\n    //--------------- 打算的Utils.sol\r\n\r\n    \r\n    //--------------- 打算的Utils.sol\r\n\r\n\r\n    // 生产商部分数据的上链和获取\r\n    struct ProduceInfo{\r\n        // 养殖场代号id\r\n        string farmsID;\r\n        // 养殖场名称；\r\n        string farmsName;\r\n        // 养殖厂地址；\r\n        string farmsAdd;\r\n        // 奶牛品种；\r\n        string cowVar;\r\n        // 奶牛来源\r\n        string cowSource;\r\n        // 养殖饲料；\r\n        string feedAqu;\r\n        // 饲料喂养人；\r\n        string feedName;\r\n    }\r\n    // 挤奶阶段数据\r\n    struct MilkingInfo {\r\n        // 挤奶地址编号\r\n        string milkingAddrCode;\r\n        // 挤奶员；\r\n        string milkingUser;\r\n        // 挤奶卫生情况\r\n        string milkingEnv;\r\n        // 挤奶时间\r\n        string milkingTime;\r\n    }\r\n\r\n    // 加工阶段信息\r\n    struct ProcessInfo {\r\n        // 加工地址代号\r\n        string processAddr;\r\n        // 加工员\r\n        string processName;\r\n        // 加工时间\r\n        string processTime;\r\n        // 包装地址代号\r\n        string balingAddr;\r\n        // 包装员\r\n        string balingName;\r\n        // 加工工艺和设备\r\n        string equiSkil;\r\n    }\r\n\r\n    // 存储与物流阶段数据\r\n    struct StoreExpressInfo{\r\n        // 仓库地址代码\r\n        string storeAddr;\r\n        // 仓储操作员\r\n        string storeName;\r\n        // 入库时间\r\n        string storageTime;\r\n        // 出库时间\r\n        string retirTime;\r\n        // 承运人\r\n        string transName;\r\n        // // 运输单号\r\n        string transCode;\r\n        // // 运输时间\r\n        string transTime;\r\n    }\r\n    // 销售部分数据\r\n    struct SellInfo{\r\n        // 销售单号\r\n        string sellCode;\r\n        // 销售员\r\n        string sellName;\r\n        // 销售日期\r\n        string sellTime;\r\n        // 销售地址\r\n        string sellAddr;\r\n        // 保质期\r\n        string produDate;\r\n    }\r\n\r\n    // id与对应得 上传溯源信息；\r\n    // 各身份得id数组；\r\n    mapping(uint => ProduceInfo) public idToProduce;\r\n    uint[] produceId;\r\n\r\n    mapping(uint => MilkingInfo) public idToMilking;\r\n    uint[] milkingId;\r\n\r\n    mapping(uint => ProcessInfo) public idToProcess;\r\n    uint[] processId;\r\n\r\n    mapping(uint => StoreExpressInfo) public idToStoreExpress;\r\n    uint[] storeExpressId;\r\n\r\n    mapping(uint => SellInfo) public idToSell;\r\n    uint[] sellId;\r\n    \r\n\r\n    // 数据上链成功事件定义\r\n    event ProduceDateAdded(string _farmsID, string _farmsName, string _farmsAdd, string _cowVar, string _cowSource, string _feedAqu, string _feedName);\r\n    event MilkingDateAdded(string _milkingAddrCode, string _milkingUser, string _milkingEnv, string _milkingTime);\r\n    event ProcessDateAdded(string _processAddr, string _processName, string _processTime, string _balingAddr, string _balingName, string _equiSkil);\r\n    event StoreExpressDateAdded(string _storeAddr, string _storeName, string _storageTime, string _retirTime, string _transName, string _transCode, string _transTime);\r\n    event SellDateAdded(string _sellCode, string _sellName, string _sellTime, string _sellAddr, string _produDate);\r\n\r\n    // 有咩有办法合成一个方法 上传数据得方法\r\n    \r\n    // 设置生产者信息\r\n    function _setProduceInfo(string _farmsID, string _farmsName, string _farmsAdd, string _cowVar, string _cowSource, string _feedAqu, string _feedName) public {\r\n        require(isStrEqual(addressToIdentity[msg.sender].identity, PRODUCE));\r\n        uint _id = _createId();\r\n        ProduceInfo memory produceOne = ProduceInfo(_farmsID, _farmsName, _farmsAdd, _cowVar, _cowSource, _feedAqu, _feedName);\r\n        idToProduce[_id] = produceOne;\r\n        produceId.push(_id);\r\n        ProduceDateAdded(_farmsID, _farmsName, _farmsAdd, _cowVar, _cowSource, _feedAqu, _feedName);\r\n\r\n    }\r\n\r\n    // 设置jinai环节信息\r\n    function _setMilkingInfo(string _milkingAddrCode, string _milkingUser, string _milkingEnv, string _milkingTime) public {\r\n        require(isStrEqual(addressToIdentity[msg.sender].identity, MILKING));\r\n        uint _id = _createId();\r\n        MilkingInfo memory milkOne = MilkingInfo(_milkingAddrCode, _milkingUser, _milkingEnv, _milkingTime);\r\n        idToMilking[_id] = milkOne;\r\n        milkingId.push(_id);\r\n        MilkingDateAdded(_milkingAddrCode, _milkingUser, _milkingEnv, _milkingTime);\r\n    }\r\n\r\n    // 设置加工环节的信息\r\n    function _setProcessInfo(string _processAddr, string _processName, string _processTime, string _balingAddr, string _balingName, string _equiSkil) public {\r\n        require(isStrEqual(addressToIdentity[msg.sender].identity, PROCESS));\r\n        uint _id = _createId();\r\n        ProcessInfo memory processOne = ProcessInfo(_processAddr, _processName, _processTime, _balingAddr, _balingName, _equiSkil);\r\n        idToProcess[_id] = processOne;\r\n        processId.push(_id);\r\n        ProcessDateAdded(_processAddr, _processName, _processTime, _balingAddr, _balingName, _equiSkil);\r\n    }\r\n\r\n    // 设置包装物流环节信息\r\n    function _setStoreExpressInfo(string _storeAddr, string _storeName, string _storageTime, string _retirTime, string _transName, string _transCode, string _transTime) public {\r\n        require(isStrEqual(addressToIdentity[msg.sender].identity,STOREEXPRESS));\r\n        uint _id = _createId();\r\n        StoreExpressInfo memory storeExpressOne = StoreExpressInfo(_storeAddr, _storeName, _storageTime, _retirTime, _transName, _transCode, _transTime);\r\n        idToStoreExpress[_id] = storeExpressOne;\r\n        storeExpressId.push(_id);\r\n        StoreExpressDateAdded(_storeAddr, _storeName, _storageTime, _retirTime, _transName, _transCode, _transTime);\r\n    }\r\n    \r\n    // 设置销售环节信息\r\n    function _setSellInfo(string _sellCode, string _sellName, string _sellTime, string _sellAddr, string _produDate) public {\r\n        require(isStrEqual(addressToIdentity[msg.sender].identity, SELL));\r\n        uint _id = _createId();\r\n        SellInfo memory sellOne = SellInfo(_sellCode, _sellName, _sellTime, _sellAddr, _produDate);\r\n        idToSell[_id] = sellOne;\r\n        sellId.push(_id);\r\n        SellDateAdded(_sellCode, _sellName, _sellTime, _sellAddr, _produDate);\r\n    }\r\n    \r\n}",
  "sourcePath": "C:\\Users\\keruisiya\\Desktop\\溯源实践\\合约练习\\truffle-vue-master\\contracts\\Info.sol",
  "compiler": {
    "name": "solc",
    "version": "0.4.19+commit.c4cbbb05.Emscripten.clang"
  },
  "schemaVersion": "3.0.23",
  "updatedAt": "2020-12-02T08:12:20.707Z",
  "networkType": "ethereum",
  "devdoc": {
    "methods": {
      "transferOwnership(address)": {
        "details": "Allows the current owner to transfer control of the contract to a newOwner.\r",
        "params": {
          "newOwner": "The address to transfer ownership to.\r"
        }
      }
    }
  },
  "userdoc": {
    "methods": {}
  }
}