{
    "contractName": "Info",
    "abi": [
        {
            "constant": true,
            "inputs": [
                {
                    "name": "",
                    "type": "uint256"
                }
            ],
            "name": "idToSell",
            "outputs": [
                {
                    "name": "sellCode",
                    "type": "string"
                },
                {
                    "name": "sellName",
                    "type": "string"
                },
                {
                    "name": "sellTime",
                    "type": "string"
                },
                {
                    "name": "sellAddr",
                    "type": "string"
                },
                {
                    "name": "produDate",
                    "type": "string"
                }
            ],
            "payable": false,
            "stateMutability": "view",
            "type": "function"
        },
        {
            "constant": true,
            "inputs": [
                {
                    "name": "",
                    "type": "uint256"
                }
            ],
            "name": "processArr",
            "outputs": [
                {
                    "name": "",
                    "type": "address"
                }
            ],
            "payable": false,
            "stateMutability": "view",
            "type": "function"
        },
        {
            "constant": true,
            "inputs": [
                {
                    "name": "",
                    "type": "uint256"
                }
            ],
            "name": "produceArr",
            "outputs": [
                {
                    "name": "",
                    "type": "address"
                }
            ],
            "payable": false,
            "stateMutability": "view",
            "type": "function"
        },
        {
            "constant": true,
            "inputs": [
                {
                    "name": "",
                    "type": "uint256"
                }
            ],
            "name": "idToProduce",
            "outputs": [
                {
                    "name": "farmsID",
                    "type": "string"
                },
                {
                    "name": "farmsName",
                    "type": "string"
                },
                {
                    "name": "farmsAdd",
                    "type": "string"
                },
                {
                    "name": "cowVar",
                    "type": "string"
                },
                {
                    "name": "cowSource",
                    "type": "string"
                },
                {
                    "name": "feedAqu",
                    "type": "string"
                },
                {
                    "name": "feedName",
                    "type": "string"
                }
            ],
            "payable": false,
            "stateMutability": "view",
            "type": "function"
        },
        {
            "constant": true,
            "inputs": [
                {
                    "name": "",
                    "type": "uint256"
                }
            ],
            "name": "milkingArr",
            "outputs": [
                {
                    "name": "",
                    "type": "address"
                }
            ],
            "payable": false,
            "stateMutability": "view",
            "type": "function"
        },
        {
            "constant": true,
            "inputs": [
                {
                    "name": "",
                    "type": "uint256"
                }
            ],
            "name": "storeExpressArr",
            "outputs": [
                {
                    "name": "",
                    "type": "address"
                }
            ],
            "payable": false,
            "stateMutability": "view",
            "type": "function"
        },
        {
            "constant": true,
            "inputs": [
                {
                    "name": "",
                    "type": "uint256"
                }
            ],
            "name": "sellArr",
            "outputs": [
                {
                    "name": "",
                    "type": "address"
                }
            ],
            "payable": false,
            "stateMutability": "view",
            "type": "function"
        },
        {
            "constant": true,
            "inputs": [
                {
                    "name": "",
                    "type": "uint256"
                }
            ],
            "name": "idToProcess",
            "outputs": [
                {
                    "name": "processAddr",
                    "type": "string"
                },
                {
                    "name": "processName",
                    "type": "string"
                },
                {
                    "name": "processTime",
                    "type": "string"
                },
                {
                    "name": "balingAddr",
                    "type": "string"
                },
                {
                    "name": "balingName",
                    "type": "string"
                },
                {
                    "name": "equiSkil",
                    "type": "string"
                }
            ],
            "payable": false,
            "stateMutability": "view",
            "type": "function"
        },
        {
            "constant": true,
            "inputs": [
                {
                    "name": "",
                    "type": "uint256"
                }
            ],
            "name": "idToMilking",
            "outputs": [
                {
                    "name": "milkingAddrCode",
                    "type": "string"
                },
                {
                    "name": "milkingUser",
                    "type": "string"
                },
                {
                    "name": "milkingEnv",
                    "type": "string"
                },
                {
                    "name": "milkingTime",
                    "type": "string"
                }
            ],
            "payable": false,
            "stateMutability": "view",
            "type": "function"
        },
        {
            "constant": true,
            "inputs": [
                {
                    "name": "",
                    "type": "uint256"
                }
            ],
            "name": "idToStoreExpress",
            "outputs": [
                {
                    "name": "storeAddr",
                    "type": "string"
                },
                {
                    "name": "storeName",
                    "type": "string"
                },
                {
                    "name": "storageTime",
                    "type": "string"
                },
                {
                    "name": "retirTime",
                    "type": "string"
                },
                {
                    "name": "transName",
                    "type": "string"
                },
                {
                    "name": "transCode",
                    "type": "string"
                },
                {
                    "name": "transTime",
                    "type": "string"
                }
            ],
            "payable": false,
            "stateMutability": "view",
            "type": "function"
        },
        {
            "anonymous": false,
            "inputs": [
                {
                    "indexed": false,
                    "name": "_farmsID",
                    "type": "string"
                },
                {
                    "indexed": false,
                    "name": "_farmsName",
                    "type": "string"
                },
                {
                    "indexed": false,
                    "name": "_farmsAdd",
                    "type": "string"
                },
                {
                    "indexed": false,
                    "name": "_cowVar",
                    "type": "string"
                },
                {
                    "indexed": false,
                    "name": "_cowSource",
                    "type": "string"
                },
                {
                    "indexed": false,
                    "name": "_feedAqu",
                    "type": "string"
                },
                {
                    "indexed": false,
                    "name": "_feedName",
                    "type": "string"
                }
            ],
            "name": "ProduceDateAdded",
            "type": "event"
        },
        {
            "anonymous": false,
            "inputs": [
                {
                    "indexed": false,
                    "name": "_milkingAddrCode",
                    "type": "string"
                },
                {
                    "indexed": false,
                    "name": "_milkingUser",
                    "type": "string"
                },
                {
                    "indexed": false,
                    "name": "_milkingEnv",
                    "type": "string"
                },
                {
                    "indexed": false,
                    "name": "_milkingTime",
                    "type": "string"
                }
            ],
            "name": "MilkingDateAdded",
            "type": "event"
        },
        {
            "anonymous": false,
            "inputs": [
                {
                    "indexed": false,
                    "name": "_processAddr",
                    "type": "string"
                },
                {
                    "indexed": false,
                    "name": "_processName",
                    "type": "string"
                },
                {
                    "indexed": false,
                    "name": "_processTime",
                    "type": "string"
                },
                {
                    "indexed": false,
                    "name": "_balingAddr",
                    "type": "string"
                },
                {
                    "indexed": false,
                    "name": "_balingName",
                    "type": "string"
                },
                {
                    "indexed": false,
                    "name": "_equiSkil",
                    "type": "string"
                }
            ],
            "name": "ProcessDateAdded",
            "type": "event"
        },
        {
            "anonymous": false,
            "inputs": [
                {
                    "indexed": false,
                    "name": "_storeAddr",
                    "type": "string"
                },
                {
                    "indexed": false,
                    "name": "_storeName",
                    "type": "string"
                },
                {
                    "indexed": false,
                    "name": "_storageTime",
                    "type": "string"
                },
                {
                    "indexed": false,
                    "name": "_retirTime",
                    "type": "string"
                },
                {
                    "indexed": false,
                    "name": "_transName",
                    "type": "string"
                },
                {
                    "indexed": false,
                    "name": "_transCode",
                    "type": "string"
                },
                {
                    "indexed": false,
                    "name": "_transTime",
                    "type": "string"
                }
            ],
            "name": "StoreExpressDateAdded",
            "type": "event"
        },
        {
            "anonymous": false,
            "inputs": [
                {
                    "indexed": false,
                    "name": "_sellCode",
                    "type": "string"
                },
                {
                    "indexed": false,
                    "name": "_sellName",
                    "type": "string"
                },
                {
                    "indexed": false,
                    "name": "_sellTime",
                    "type": "string"
                },
                {
                    "indexed": false,
                    "name": "_sellAddr",
                    "type": "string"
                },
                {
                    "indexed": false,
                    "name": "_produDate",
                    "type": "string"
                }
            ],
            "name": "SellDateAdded",
            "type": "event"
        },
        {
            "constant": false,
            "inputs": [
                {
                    "name": "_address",
                    "type": "address"
                },
                {
                    "name": "_str",
                    "type": "string"
                }
            ],
            "name": "setIdentity",
            "outputs": [],
            "payable": false,
            "stateMutability": "nonpayable",
            "type": "function"
        },
        {
            "constant": false,
            "inputs": [
                {
                    "name": "_farmsID",
                    "type": "string"
                },
                {
                    "name": "_farmsName",
                    "type": "string"
                },
                {
                    "name": "_farmsAdd",
                    "type": "string"
                },
                {
                    "name": "_cowVar",
                    "type": "string"
                },
                {
                    "name": "_cowSource",
                    "type": "string"
                },
                {
                    "name": "_feedAqu",
                    "type": "string"
                },
                {
                    "name": "_feedName",
                    "type": "string"
                }
            ],
            "name": "_setProduceInfo",
            "outputs": [],
            "payable": false,
            "stateMutability": "nonpayable",
            "type": "function"
        },
        {
            "constant": false,
            "inputs": [
                {
                    "name": "_milkingAddrCode",
                    "type": "string"
                },
                {
                    "name": "_milkingUser",
                    "type": "string"
                },
                {
                    "name": "_milkingEnv",
                    "type": "string"
                },
                {
                    "name": "_milkingTime",
                    "type": "string"
                }
            ],
            "name": "_setMilkingInfo",
            "outputs": [],
            "payable": false,
            "stateMutability": "nonpayable",
            "type": "function"
        },
        {
            "constant": false,
            "inputs": [
                {
                    "name": "_processAddr",
                    "type": "string"
                },
                {
                    "name": "_processName",
                    "type": "string"
                },
                {
                    "name": "_processTime",
                    "type": "string"
                },
                {
                    "name": "_balingAddr",
                    "type": "string"
                },
                {
                    "name": "_balingName",
                    "type": "string"
                },
                {
                    "name": "_equiSkil",
                    "type": "string"
                }
            ],
            "name": "_setProcessInfo",
            "outputs": [],
            "payable": false,
            "stateMutability": "nonpayable",
            "type": "function"
        },
        {
            "constant": false,
            "inputs": [
                {
                    "name": "_storeAddr",
                    "type": "string"
                },
                {
                    "name": "_storeName",
                    "type": "string"
                },
                {
                    "name": "_storageTime",
                    "type": "string"
                },
                {
                    "name": "_retirTime",
                    "type": "string"
                },
                {
                    "name": "_transName",
                    "type": "string"
                },
                {
                    "name": "_transCode",
                    "type": "string"
                },
                {
                    "name": "_transTime",
                    "type": "string"
                }
            ],
            "name": "_setStoreExpressInfo",
            "outputs": [],
            "payable": false,
            "stateMutability": "nonpayable",
            "type": "function"
        },
        {
            "constant": false,
            "inputs": [
                {
                    "name": "_sellCode",
                    "type": "string"
                },
                {
                    "name": "_sellName",
                    "type": "string"
                },
                {
                    "name": "_sellTime",
                    "type": "string"
                },
                {
                    "name": "_sellAddr",
                    "type": "string"
                },
                {
                    "name": "_produDate",
                    "type": "string"
                }
            ],
            "name": "_setSellInfo",
            "outputs": [],
            "payable": false,
            "stateMutability": "nonpayable",
            "type": "function"
        },
        {
            "constant": true,
            "inputs": [
                {
                    "name": "_str1",
                    "type": "string"
                },
                {
                    "name": "_str2",
                    "type": "string"
                }
            ],
            "name": "isStrEqual",
            "outputs": [
                {
                    "name": "",
                    "type": "bool"
                }
            ],
            "payable": false,
            "stateMutability": "pure",
            "type": "function"
        }
    ],
    "bytecode": "0x6060604052662386f26fc100006000556040805190810160405280600781526020017f70726f6475636500000000000000000000000000000000000000000000000000815250600190805190602001906200005c929190620001a7565b506040805190810160405280600781526020017f6d696c6b696e670000000000000000000000000000000000000000000000000081525060029080519060200190620000aa929190620001a7565b506040805190810160405280600781526020017f70726f636573730000000000000000000000000000000000000000000000000081525060039080519060200190620000f8929190620001a7565b506040805190810160405280600c81526020017f73746f72654578707265737300000000000000000000000000000000000000008152506004908051906020019062000146929190620001a7565b506040805190810160405280600481526020017f73656c6c000000000000000000000000000000000000000000000000000000008152506005908051906020019062000194929190620001a7565b503415620001a157600080fd5b62000256565b828054600181600116156101000203166002900490600052602060002090601f016020900481019282601f10620001ea57805160ff19168380011785556200021b565b828001600101855582156200021b579182015b828111156200021a578251825591602001919060010190620001fd565b5b5090506200022a91906200022e565b5090565b6200025391905b808211156200024f57600081600090555060010162000235565b5090565b90565b6144ce80620002666000396000f3006060604052600436106100f1576000357c0100000000000000000000000000000000000000000000000000000000900463ffffffff1680630accae56146100f65780630cb30859146103d35780630d1f79ac146104365780633e10c5891461049957806343d9ec7f146106455780634ce5f8a6146108345780635cfaee2014610c235780635ef5faa614610d495780636d9d37f114610dac578063897cab1714610e0f57806392b7c7c314610e8b5780639fe9e11614610eee578063b223aadd14611057578063d4cbd9d4146113bd578063f19339b114611475578063f9e1c50014611664578063ff001aa0146118b8575b600080fd5b341561010157600080fd5b6101176004808035906020019091905050611ca7565b60405180806020018060200180602001806020018060200186810386528b8181546001816001161561010002031660029004815260200191508054600181600116156101000203166002900480156101b05780601f10610185576101008083540402835291602001916101b0565b820191906000526020600020905b81548152906001019060200180831161019357829003601f168201915b505086810385528a8181546001816001161561010002031660029004815260200191508054600181600116156101000203166002900480156102335780601f1061020857610100808354040283529160200191610233565b820191906000526020600020905b81548152906001019060200180831161021657829003601f168201915b50508681038452898181546001816001161561010002031660029004815260200191508054600181600116156101000203166002900480156102b65780601f1061028b576101008083540402835291602001916102b6565b820191906000526020600020905b81548152906001019060200180831161029957829003601f168201915b50508681038352888181546001816001161561010002031660029004815260200191508054600181600116156101000203166002900480156103395780601f1061030e57610100808354040283529160200191610339565b820191906000526020600020905b81548152906001019060200180831161031c57829003601f168201915b50508681038252878181546001816001161561010002031660029004815260200191508054600181600116156101000203166002900480156103bc5780601f10610391576101008083540402835291602001916103bc565b820191906000526020600020905b81548152906001019060200180831161039f57829003601f168201915b50509a505050505050505050505060405180910390f35b34156103de57600080fd5b6103f46004808035906020019091905050611cd8565b604051808273ffffffffffffffffffffffffffffffffffffffff1673ffffffffffffffffffffffffffffffffffffffff16815260200191505060405180910390f35b341561044157600080fd5b6104576004808035906020019091905050611d17565b604051808273ffffffffffffffffffffffffffffffffffffffff1673ffffffffffffffffffffffffffffffffffffffff16815260200191505060405180910390f35b34156104a457600080fd5b610643600480803590602001908201803590602001908080601f0160208091040260200160405190810160405280939291908181526020018383808284378201915050505050509190803590602001908201803590602001908080601f0160208091040260200160405190810160405280939291908181526020018383808284378201915050505050509190803590602001908201803590602001908080601f0160208091040260200160405190810160405280939291908181526020018383808284378201915050505050509190803590602001908201803590602001908080601f0160208091040260200160405190810160405280939291908181526020018383808284378201915050505050509190803590602001908201803590602001908080601f0160208091040260200160405190810160405280939291908181526020018383808284378201915050505050509190803590602001908201803590602001908080601f01602080910402602001604051908101604052809392919081815260200183838082843782019150505050505091905050611d56565b005b341561065057600080fd5b610832600480803590602001908201803590602001908080601f0160208091040260200160405190810160405280939291908181526020018383808284378201915050505050509190803590602001908201803590602001908080601f0160208091040260200160405190810160405280939291908181526020018383808284378201915050505050509190803590602001908201803590602001908080601f0160208091040260200160405190810160405280939291908181526020018383808284378201915050505050509190803590602001908201803590602001908080601f0160208091040260200160405190810160405280939291908181526020018383808284378201915050505050509190803590602001908201803590602001908080601f0160208091040260200160405190810160405280939291908181526020018383808284378201915050505050509190803590602001908201803590602001908080601f0160208091040260200160405190810160405280939291908181526020018383808284378201915050505050509190803590602001908201803590602001908080601f016020809104026020016040519081016040528093929190818152602001838380828437820191505050505050919050506122d8565b005b341561083f57600080fd5b61085560048080359060200190919050506128eb565b604051808060200180602001806020018060200180602001806020018060200188810388528f8181546001816001161561010002031660029004815260200191508054600181600116156101000203166002900480156108f65780601f106108cb576101008083540402835291602001916108f6565b820191906000526020600020905b8154815290600101906020018083116108d957829003601f168201915b505088810387528e8181546001816001161561010002031660029004815260200191508054600181600116156101000203166002900480156109795780601f1061094e57610100808354040283529160200191610979565b820191906000526020600020905b81548152906001019060200180831161095c57829003601f168201915b505088810386528d8181546001816001161561010002031660029004815260200191508054600181600116156101000203166002900480156109fc5780601f106109d1576101008083540402835291602001916109fc565b820191906000526020600020905b8154815290600101906020018083116109df57829003601f168201915b505088810385528c818154600181600116156101000203166002900481526020019150805460018160011615610100020316600290048015610a7f5780601f10610a5457610100808354040283529160200191610a7f565b820191906000526020600020905b815481529060010190602001808311610a6257829003601f168201915b505088810384528b818154600181600116156101000203166002900481526020019150805460018160011615610100020316600290048015610b025780601f10610ad757610100808354040283529160200191610b02565b820191906000526020600020905b815481529060010190602001808311610ae557829003601f168201915b505088810383528a818154600181600116156101000203166002900481526020019150805460018160011615610100020316600290048015610b855780601f10610b5a57610100808354040283529160200191610b85565b820191906000526020600020905b815481529060010190602001808311610b6857829003601f168201915b5050888103825289818154600181600116156101000203166002900481526020019150805460018160011615610100020316600290048015610c085780601f10610bdd57610100808354040283529160200191610c08565b820191906000526020600020905b815481529060010190602001808311610beb57829003601f168201915b50509e50505050505050505050505050505060405180910390f35b3415610c2e57600080fd5b610d47600480803590602001908201803590602001908080601f0160208091040260200160405190810160405280939291908181526020018383808284378201915050505050509190803590602001908201803590602001908080601f0160208091040260200160405190810160405280939291908181526020018383808284378201915050505050509190803590602001908201803590602001908080601f0160208091040260200160405190810160405280939291908181526020018383808284378201915050505050509190803590602001908201803590602001908080601f01602080910402602001604051908101604052809392919081815260200183838082843782019150505050505091905050612926565b005b3415610d5457600080fd5b610d6a6004808035906020019091905050612d86565b604051808273ffffffffffffffffffffffffffffffffffffffff1673ffffffffffffffffffffffffffffffffffffffff16815260200191505060405180910390f35b3415610db757600080fd5b610dcd6004808035906020019091905050612dc5565b604051808273ffffffffffffffffffffffffffffffffffffffff1673ffffffffffffffffffffffffffffffffffffffff16815260200191505060405180910390f35b3415610e1a57600080fd5b610e89600480803573ffffffffffffffffffffffffffffffffffffffff1690602001909190803590602001908201803590602001908080601f01602080910402602001604051908101604052809392919081815260200183838082843782019150505050505091905050612e04565b005b3415610e9657600080fd5b610eac600480803590602001909190505061346b565b604051808273ffffffffffffffffffffffffffffffffffffffff1673ffffffffffffffffffffffffffffffffffffffff16815260200191505060405180910390f35b3415610ef957600080fd5b611055600480803590602001908201803590602001908080601f0160208091040260200160405190810160405280939291908181526020018383808284378201915050505050509190803590602001908201803590602001908080601f0160208091040260200160405190810160405280939291908181526020018383808284378201915050505050509190803590602001908201803590602001908080601f0160208091040260200160405190810160405280939291908181526020018383808284378201915050505050509190803590602001908201803590602001908080601f0160208091040260200160405190810160405280939291908181526020018383808284378201915050505050509190803590602001908201803590602001908080601f016020809104026020016040519081016040528093929190818152602001838380828437820191505050505050919050506134aa565b005b341561106257600080fd5b611078600480803590602001909190505061399b565b6040518080602001806020018060200180602001806020018060200187810387528d8181546001816001161561010002031660029004815260200191508054600181600116156101000203166002900480156111155780601f106110ea57610100808354040283529160200191611115565b820191906000526020600020905b8154815290600101906020018083116110f857829003601f168201915b505087810386528c8181546001816001161561010002031660029004815260200191508054600181600116156101000203166002900480156111985780601f1061116d57610100808354040283529160200191611198565b820191906000526020600020905b81548152906001019060200180831161117b57829003601f168201915b505087810385528b81815460018160011615610100020316600290048152602001915080546001816001161561010002031660029004801561121b5780601f106111f05761010080835404028352916020019161121b565b820191906000526020600020905b8154815290600101906020018083116111fe57829003601f168201915b505087810384528a81815460018160011615610100020316600290048152602001915080546001816001161561010002031660029004801561129e5780601f106112735761010080835404028352916020019161129e565b820191906000526020600020905b81548152906001019060200180831161128157829003601f168201915b50508781038352898181546001816001161561010002031660029004815260200191508054600181600116156101000203166002900480156113215780601f106112f657610100808354040283529160200191611321565b820191906000526020600020905b81548152906001019060200180831161130457829003601f168201915b50508781038252888181546001816001161561010002031660029004815260200191508054600181600116156101000203166002900480156113a45780601f10611379576101008083540402835291602001916113a4565b820191906000526020600020905b81548152906001019060200180831161138757829003601f168201915b50509c5050505050505050505050505060405180910390f35b34156113c857600080fd5b61145b600480803590602001908201803590602001908080601f0160208091040260200160405190810160405280939291908181526020018383808284378201915050505050509190803590602001908201803590602001908080601f016020809104026020016040519081016040528093929190818152602001838380828437820191505050505050919050506139d1565b604051808215151515815260200191505060405180910390f35b341561148057600080fd5b611662600480803590602001908201803590602001908080601f0160208091040260200160405190810160405280939291908181526020018383808284378201915050505050509190803590602001908201803590602001908080601f0160208091040260200160405190810160405280939291908181526020018383808284378201915050505050509190803590602001908201803590602001908080601f0160208091040260200160405190810160405280939291908181526020018383808284378201915050505050509190803590602001908201803590602001908080601f0160208091040260200160405190810160405280939291908181526020018383808284378201915050505050509190803590602001908201803590602001908080601f0160208091040260200160405190810160405280939291908181526020018383808284378201915050505050509190803590602001908201803590602001908080601f0160208091040260200160405190810160405280939291908181526020018383808284378201915050505050509190803590602001908201803590602001908080601f01602080910402602001604051908101604052809392919081815260200183838082843782019150505050505091905050613aaa565b005b341561166f57600080fd5b61168560048080359060200190919050506140bd565b604051808060200180602001806020018060200185810385528981815460018160011615610100020316600290048152602001915080546001816001161561010002031660029004801561171a5780601f106116ef5761010080835404028352916020019161171a565b820191906000526020600020905b8154815290600101906020018083116116fd57829003601f168201915b505085810384528881815460018160011615610100020316600290048152602001915080546001816001161561010002031660029004801561179d5780601f106117725761010080835404028352916020019161179d565b820191906000526020600020905b81548152906001019060200180831161178057829003601f168201915b50508581038352878181546001816001161561010002031660029004815260200191508054600181600116156101000203166002900480156118205780601f106117f557610100808354040283529160200191611820565b820191906000526020600020905b81548152906001019060200180831161180357829003601f168201915b50508581038252868181546001816001161561010002031660029004815260200191508054600181600116156101000203166002900480156118a35780601f10611878576101008083540402835291602001916118a3565b820191906000526020600020905b81548152906001019060200180831161188657829003601f168201915b50509850505050505050505060405180910390f35b34156118c357600080fd5b6118d960048080359060200190919050506140e9565b604051808060200180602001806020018060200180602001806020018060200188810388528f81815460018160011615610100020316600290048152602001915080546001816001161561010002031660029004801561197a5780601f1061194f5761010080835404028352916020019161197a565b820191906000526020600020905b81548152906001019060200180831161195d57829003601f168201915b505088810387528e8181546001816001161561010002031660029004815260200191508054600181600116156101000203166002900480156119fd5780601f106119d2576101008083540402835291602001916119fd565b820191906000526020600020905b8154815290600101906020018083116119e057829003601f168201915b505088810386528d818154600181600116156101000203166002900481526020019150805460018160011615610100020316600290048015611a805780601f10611a5557610100808354040283529160200191611a80565b820191906000526020600020905b815481529060010190602001808311611a6357829003601f168201915b505088810385528c818154600181600116156101000203166002900481526020019150805460018160011615610100020316600290048015611b035780601f10611ad857610100808354040283529160200191611b03565b820191906000526020600020905b815481529060010190602001808311611ae657829003601f168201915b505088810384528b818154600181600116156101000203166002900481526020019150805460018160011615610100020316600290048015611b865780601f10611b5b57610100808354040283529160200191611b86565b820191906000526020600020905b815481529060010190602001808311611b6957829003601f168201915b505088810383528a818154600181600116156101000203166002900481526020019150805460018160011615610100020316600290048015611c095780601f10611bde57610100808354040283529160200191611c09565b820191906000526020600020905b815481529060010190602001808311611bec57829003601f168201915b5050888103825289818154600181600116156101000203166002900481526020019150805460018160011615610100020316600290048015611c8c5780601f10611c6157610100808354040283529160200191611c8c565b820191906000526020600020905b815481529060010190602001808311611c6f57829003601f168201915b50509e50505050505050505050505050505060405180910390f35b6014602052806000526040600020600091509050806000019080600101908060020190806003019080600401905085565b600881815481101515611ce757fe5b90600052602060002090016000915054906101000a900473ffffffffffffffffffffffffffffffffffffffff1681565b600681815481101515611d2657fe5b90600052602060002090016000915054906101000a900473ffffffffffffffffffffffffffffffffffffffff1681565b6000611d60614157565b611ede600b60003373ffffffffffffffffffffffffffffffffffffffff1673ffffffffffffffffffffffffffffffffffffffff1681526020019081526020016000206000018054600181600116156101000203166002900480601f016020809104026020016040519081016040528092919081815260200182805460018160011615610100020316600290048015611e395780601f10611e0e57610100808354040283529160200191611e39565b820191906000526020600020905b815481529060010190602001808311611e1c57829003601f168201915b505050505060038054600181600116156101000203166002900480601f016020809104026020016040519081016040528092919081815260200182805460018160011615610100020316600290048015611ed45780601f10611ea957610100808354040283529160200191611ed4565b820191906000526020600020905b815481529060010190602001808311611eb757829003601f168201915b50505050506139d1565b1515611ee957600080fd5b611ef1614124565b915060c06040519081016040528089815260200188815260200187815260200186815260200185815260200184815250905080601060008481526020019081526020016000206000820151816000019080519060200190611f539291906141b2565b506020820151816001019080519060200190611f709291906141b2565b506040820151816002019080519060200190611f8d9291906141b2565b506060820151816003019080519060200190611faa9291906141b2565b506080820151816004019080519060200190611fc79291906141b2565b5060a0820151816005019080519060200190611fe49291906141b2565b5090505060118054806001018281611ffc9190614232565b9160005260206000209001600084909190915055507f5b80655908927a80d1b27a0ed0a545d0614c3eb715ae226b86a6835b158c94788888888888886040518080602001806020018060200180602001806020018060200187810387528d818151815260200191508051906020019080838360005b8381101561208c578082015181840152602081019050612071565b50505050905090810190601f1680156120b95780820380516001836020036101000a031916815260200191505b5087810386528c818151815260200191508051906020019080838360005b838110156120f25780820151818401526020810190506120d7565b50505050905090810190601f16801561211f5780820380516001836020036101000a031916815260200191505b5087810385528b818151815260200191508051906020019080838360005b8381101561215857808201518184015260208101905061213d565b50505050905090810190601f1680156121855780820380516001836020036101000a031916815260200191505b5087810384528a818151815260200191508051906020019080838360005b838110156121be5780820151818401526020810190506121a3565b50505050905090810190601f1680156121eb5780820380516001836020036101000a031916815260200191505b50878103835289818151815260200191508051906020019080838360005b83811015612224578082015181840152602081019050612209565b50505050905090810190601f1680156122515780820380516001836020036101000a031916815260200191505b50878103825288818151815260200191508051906020019080838360005b8381101561228a57808201518184015260208101905061226f565b50505050905090810190601f1680156122b75780820380516001836020036101000a031916815260200191505b509c5050505050505050505050505060405180910390a15050505050505050565b60006122e261425e565b612460600b60003373ffffffffffffffffffffffffffffffffffffffff1673ffffffffffffffffffffffffffffffffffffffff1681526020019081526020016000206000018054600181600116156101000203166002900480601f0160208091040260200160405190810160405280929190818152602001828054600181600116156101000203166002900480156123bb5780601f10612390576101008083540402835291602001916123bb565b820191906000526020600020905b81548152906001019060200180831161239e57829003601f168201915b505050505060048054600181600116156101000203166002900480601f0160208091040260200160405190810160405280929190818152602001828054600181600116156101000203166002900480156124565780601f1061242b57610100808354040283529160200191612456565b820191906000526020600020905b81548152906001019060200180831161243957829003601f168201915b50505050506139d1565b151561246b57600080fd5b612473614124565b915060e0604051908101604052808a8152602001898152602001888152602001878152602001868152602001858152602001848152509050806012600084815260200190815260200160002060008201518160000190805190602001906124db9291906141b2565b5060208201518160010190805190602001906124f89291906141b2565b5060408201518160020190805190602001906125159291906141b2565b5060608201518160030190805190602001906125329291906141b2565b50608082015181600401908051906020019061254f9291906141b2565b5060a082015181600501908051906020019061256c9291906141b2565b5060c08201518160060190805190602001906125899291906141b2565b50905050601380548060010182816125a19190614232565b9160005260206000209001600084909190915055507fac456624630f482286063b6967b5046d3a6fd7828b0da595d8cb653236a979f289898989898989604051808060200180602001806020018060200180602001806020018060200188810388528f818151815260200191508051906020019080838360005b8381101561263657808201518184015260208101905061261b565b50505050905090810190601f1680156126635780820380516001836020036101000a031916815260200191505b5088810387528e818151815260200191508051906020019080838360005b8381101561269c578082015181840152602081019050612681565b50505050905090810190601f1680156126c95780820380516001836020036101000a031916815260200191505b5088810386528d818151815260200191508051906020019080838360005b838110156127025780820151818401526020810190506126e7565b50505050905090810190601f16801561272f5780820380516001836020036101000a031916815260200191505b5088810385528c818151815260200191508051906020019080838360005b8381101561276857808201518184015260208101905061274d565b50505050905090810190601f1680156127955780820380516001836020036101000a031916815260200191505b5088810384528b818151815260200191508051906020019080838360005b838110156127ce5780820151818401526020810190506127b3565b50505050905090810190601f1680156127fb5780820380516001836020036101000a031916815260200191505b5088810383528a818151815260200191508051906020019080838360005b83811015612834578082015181840152602081019050612819565b50505050905090810190601f1680156128615780820380516001836020036101000a031916815260200191505b50888103825289818151815260200191508051906020019080838360005b8381101561289a57808201518184015260208101905061287f565b50505050905090810190601f1680156128c75780820380516001836020036101000a031916815260200191505b509e50505050505050505050505050505060405180910390a1505050505050505050565b600c60205280600052604060002060009150905080600001908060010190806002019080600301908060040190806005019080600601905087565b60006129306142c6565b612aae600b60003373ffffffffffffffffffffffffffffffffffffffff1673ffffffffffffffffffffffffffffffffffffffff1681526020019081526020016000206000018054600181600116156101000203166002900480601f016020809104026020016040519081016040528092919081815260200182805460018160011615610100020316600290048015612a095780601f106129de57610100808354040283529160200191612a09565b820191906000526020600020905b8154815290600101906020018083116129ec57829003601f168201915b505050505060028054600181600116156101000203166002900480601f016020809104026020016040519081016040528092919081815260200182805460018160011615610100020316600290048015612aa45780601f10612a7957610100808354040283529160200191612aa4565b820191906000526020600020905b815481529060010190602001808311612a8757829003601f168201915b50505050506139d1565b1515612ab957600080fd5b612ac1614124565b915060806040519081016040528087815260200186815260200185815260200184815250905080600e60008481526020019081526020016000206000820151816000019080519060200190612b179291906141b2565b506020820151816001019080519060200190612b349291906141b2565b506040820151816002019080519060200190612b519291906141b2565b506060820151816003019080519060200190612b6e9291906141b2565b50905050600f8054806001018281612b869190614232565b9160005260206000209001600084909190915055507fa83bfee1c00e80bebb5284bc6d2fb43a4cc6338c75613e28208c711a89bb881e868686866040518080602001806020018060200180602001858103855289818151815260200191508051906020019080838360005b83811015612c0c578082015181840152602081019050612bf1565b50505050905090810190601f168015612c395780820380516001836020036101000a031916815260200191505b50858103845288818151815260200191508051906020019080838360005b83811015612c72578082015181840152602081019050612c57565b50505050905090810190601f168015612c9f5780820380516001836020036101000a031916815260200191505b50858103835287818151815260200191508051906020019080838360005b83811015612cd8578082015181840152602081019050612cbd565b50505050905090810190601f168015612d055780820380516001836020036101000a031916815260200191505b50858103825286818151815260200191508051906020019080838360005b83811015612d3e578082015181840152602081019050612d23565b50505050905090810190601f168015612d6b5780820380516001836020036101000a031916815260200191505b509850505050505050505060405180910390a1505050505050565b600781815481101515612d9557fe5b90600052602060002090016000915054906101000a900473ffffffffffffffffffffffffffffffffffffffff1681565b600981815481101515612dd457fe5b90600052602060002090016000915054906101000a900473ffffffffffffffffffffffffffffffffffffffff1681565b600b60008373ffffffffffffffffffffffffffffffffffffffff1673ffffffffffffffffffffffffffffffffffffffff16815260200190815260200160002060010160009054906101000a900460ff16151515612e6057600080fd5b80600b60008473ffffffffffffffffffffffffffffffffffffffff1673ffffffffffffffffffffffffffffffffffffffff1681526020019081526020016000206000019080519060200190612eb6929190614307565b506001600b60008473ffffffffffffffffffffffffffffffffffffffff1673ffffffffffffffffffffffffffffffffffffffff16815260200190815260200160002060010160006101000a81548160ff021916908315150217905550612fb68160018054600181600116156101000203166002900480601f016020809104026020016040519081016040528092919081815260200182805460018160011615610100020316600290048015612fac5780601f10612f8157610100808354040283529160200191612fac565b820191906000526020600020905b815481529060010190602001808311612f8f57829003601f168201915b50505050506139d1565b156130235760068054806001018281612fcf9190614387565b9160005260206000209001600084909190916101000a81548173ffffffffffffffffffffffffffffffffffffffff021916908373ffffffffffffffffffffffffffffffffffffffff16021790555050613467565b6130c78160028054600181600116156101000203166002900480601f0160208091040260200160405190810160405280929190818152602001828054600181600116156101000203166002900480156130bd5780601f10613092576101008083540402835291602001916130bd565b820191906000526020600020905b8154815290600101906020018083116130a057829003601f168201915b50505050506139d1565b1561313457600780548060010182816130e09190614387565b9160005260206000209001600084909190916101000a81548173ffffffffffffffffffffffffffffffffffffffff021916908373ffffffffffffffffffffffffffffffffffffffff16021790555050613466565b6131d88160038054600181600116156101000203166002900480601f0160208091040260200160405190810160405280929190818152602001828054600181600116156101000203166002900480156131ce5780601f106131a3576101008083540402835291602001916131ce565b820191906000526020600020905b8154815290600101906020018083116131b157829003601f168201915b50505050506139d1565b1561324557600880548060010182816131f19190614387565b9160005260206000209001600084909190916101000a81548173ffffffffffffffffffffffffffffffffffffffff021916908373ffffffffffffffffffffffffffffffffffffffff16021790555050613465565b6132e98160048054600181600116156101000203166002900480601f0160208091040260200160405190810160405280929190818152602001828054600181600116156101000203166002900480156132df5780601f106132b4576101008083540402835291602001916132df565b820191906000526020600020905b8154815290600101906020018083116132c257829003601f168201915b50505050506139d1565b1561335657600980548060010182816133029190614387565b9160005260206000209001600084909190916101000a81548173ffffffffffffffffffffffffffffffffffffffff021916908373ffffffffffffffffffffffffffffffffffffffff16021790555050613464565b6133fa8160058054600181600116156101000203166002900480601f0160208091040260200160405190810160405280929190818152602001828054600181600116156101000203166002900480156133f05780601f106133c5576101008083540402835291602001916133f0565b820191906000526020600020905b8154815290600101906020018083116133d357829003601f168201915b50505050506139d1565b1561346357600a80548060010182816134139190614387565b9160005260206000209001600084909190916101000a81548173ffffffffffffffffffffffffffffffffffffffff021916908373ffffffffffffffffffffffffffffffffffffffff160217905550505b5b5b5b5b5050565b600a8181548110151561347a57fe5b90600052602060002090016000915054906101000a900473ffffffffffffffffffffffffffffffffffffffff1681565b60006134b46143b3565b613632600b60003373ffffffffffffffffffffffffffffffffffffffff1673ffffffffffffffffffffffffffffffffffffffff1681526020019081526020016000206000018054600181600116156101000203166002900480601f01602080910402602001604051908101604052809291908181526020018280546001816001161561010002031660029004801561358d5780601f106135625761010080835404028352916020019161358d565b820191906000526020600020905b81548152906001019060200180831161357057829003601f168201915b505050505060058054600181600116156101000203166002900480601f0160208091040260200160405190810160405280929190818152602001828054600181600116156101000203166002900480156136285780601f106135fd57610100808354040283529160200191613628565b820191906000526020600020905b81548152906001019060200180831161360b57829003601f168201915b50505050506139d1565b151561363d57600080fd5b613645614124565b915060a060405190810160405280888152602001878152602001868152602001858152602001848152509050806014600084815260200190815260200160002060008201518160000190805190602001906136a19291906141b2565b5060208201518160010190805190602001906136be9291906141b2565b5060408201518160020190805190602001906136db9291906141b2565b5060608201518160030190805190602001906136f89291906141b2565b5060808201518160040190805190602001906137159291906141b2565b509050506015805480600101828161372d9190614232565b9160005260206000209001600084909190915055507fe991d4e58db80e3cbe72b61b47d17fabe20fd54e223a2dc9592e4110be8ac6f7878787878760405180806020018060200180602001806020018060200186810386528b818151815260200191508051906020019080838360005b838110156137b857808201518184015260208101905061379d565b50505050905090810190601f1680156137e55780820380516001836020036101000a031916815260200191505b5086810385528a818151815260200191508051906020019080838360005b8381101561381e578082015181840152602081019050613803565b50505050905090810190601f16801561384b5780820380516001836020036101000a031916815260200191505b50868103845289818151815260200191508051906020019080838360005b83811015613884578082015181840152602081019050613869565b50505050905090810190601f1680156138b15780820380516001836020036101000a031916815260200191505b50868103835288818151815260200191508051906020019080838360005b838110156138ea5780820151818401526020810190506138cf565b50505050905090810190601f1680156139175780820380516001836020036101000a031916815260200191505b50868103825287818151815260200191508051906020019080838360005b83811015613950578082015181840152602081019050613935565b50505050905090810190601f16801561397d5780820380516001836020036101000a031916815260200191505b509a505050505050505050505060405180910390a150505050505050565b60106020528060005260406000206000915090508060000190806001019080600201908060030190806004019080600501905086565b6000816040518082805190602001908083835b602083101515613a0957805182526020820191506020810190506020830392506139e4565b6001836020036101000a038019825116818451168082178552505050505050905001915050604051809103902060001916836040518082805190602001908083835b602083101515613a705780518252602082019150602081019050602083039250613a4b565b6001836020036101000a03801982511681845116808217855250505050505090500191505060405180910390206000191614905092915050565b6000613ab4614401565b613c32600b60003373ffffffffffffffffffffffffffffffffffffffff1673ffffffffffffffffffffffffffffffffffffffff1681526020019081526020016000206000018054600181600116156101000203166002900480601f016020809104026020016040519081016040528092919081815260200182805460018160011615610100020316600290048015613b8d5780601f10613b6257610100808354040283529160200191613b8d565b820191906000526020600020905b815481529060010190602001808311613b7057829003601f168201915b505050505060018054600181600116156101000203166002900480601f016020809104026020016040519081016040528092919081815260200182805460018160011615610100020316600290048015613c285780601f10613bfd57610100808354040283529160200191613c28565b820191906000526020600020905b815481529060010190602001808311613c0b57829003601f168201915b50505050506139d1565b1515613c3d57600080fd5b613c45614124565b915060e0604051908101604052808a815260200189815260200188815260200187815260200186815260200185815260200184815250905080600c60008481526020019081526020016000206000820151816000019080519060200190613cad9291906141b2565b506020820151816001019080519060200190613cca9291906141b2565b506040820151816002019080519060200190613ce79291906141b2565b506060820151816003019080519060200190613d049291906141b2565b506080820151816004019080519060200190613d219291906141b2565b5060a0820151816005019080519060200190613d3e9291906141b2565b5060c0820151816006019080519060200190613d5b9291906141b2565b50905050600d8054806001018281613d739190614232565b9160005260206000209001600084909190915055507f0c6404e3c22d55d4ae42e3878013877043028683b9d44103aaa20a33f52ff80a89898989898989604051808060200180602001806020018060200180602001806020018060200188810388528f818151815260200191508051906020019080838360005b83811015613e08578082015181840152602081019050613ded565b50505050905090810190601f168015613e355780820380516001836020036101000a031916815260200191505b5088810387528e818151815260200191508051906020019080838360005b83811015613e6e578082015181840152602081019050613e53565b50505050905090810190601f168015613e9b5780820380516001836020036101000a031916815260200191505b5088810386528d818151815260200191508051906020019080838360005b83811015613ed4578082015181840152602081019050613eb9565b50505050905090810190601f168015613f015780820380516001836020036101000a031916815260200191505b5088810385528c818151815260200191508051906020019080838360005b83811015613f3a578082015181840152602081019050613f1f565b50505050905090810190601f168015613f675780820380516001836020036101000a031916815260200191505b5088810384528b818151815260200191508051906020019080838360005b83811015613fa0578082015181840152602081019050613f85565b50505050905090810190601f168015613fcd5780820380516001836020036101000a031916815260200191505b5088810383528a818151815260200191508051906020019080838360005b83811015614006578082015181840152602081019050613feb565b50505050905090810190601f1680156140335780820380516001836020036101000a031916815260200191505b50888103825289818151815260200191508051906020019080838360005b8381101561406c578082015181840152602081019050614051565b50505050905090810190601f1680156140995780820380516001836020036101000a031916815260200191505b509e50505050505050505050505050505060405180910390a1505050505050505050565b600e60205280600052604060002060009150905080600001908060010190806002019080600301905084565b601260205280600052604060002060009150905080600001908060010190806002019080600301908060040190806005019080600601905087565b600080426040518082815260200191505060405180910390206001900490506000548181151561415057fe5b0691505090565b60c06040519081016040528061416b614469565b8152602001614178614469565b8152602001614185614469565b8152602001614192614469565b815260200161419f614469565b81526020016141ac614469565b81525090565b828054600181600116156101000203166002900490600052602060002090601f016020900481019282601f106141f357805160ff1916838001178555614221565b82800160010185558215614221579182015b82811115614220578251825591602001919060010190614205565b5b50905061422e919061447d565b5090565b81548183558181151161425957818360005260206000209182019101614258919061447d565b5b505050565b60e060405190810160405280614272614469565b815260200161427f614469565b815260200161428c614469565b8152602001614299614469565b81526020016142a6614469565b81526020016142b3614469565b81526020016142c0614469565b81525090565b6080604051908101604052806142da614469565b81526020016142e7614469565b81526020016142f4614469565b8152602001614301614469565b81525090565b828054600181600116156101000203166002900490600052602060002090601f016020900481019282601f1061434857805160ff1916838001178555614376565b82800160010185558215614376579182015b8281111561437557825182559160200191906001019061435a565b5b509050614383919061447d565b5090565b8154818355818115116143ae578183600052602060002091820191016143ad919061447d565b5b505050565b60a0604051908101604052806143c7614469565b81526020016143d4614469565b81526020016143e1614469565b81526020016143ee614469565b81526020016143fb614469565b81525090565b60e060405190810160405280614415614469565b8152602001614422614469565b815260200161442f614469565b815260200161443c614469565b8152602001614449614469565b8152602001614456614469565b8152602001614463614469565b81525090565b602060405190810160405280600081525090565b61449f91905b8082111561449b576000816000905550600101614483565b5090565b905600a165627a7a723058204a6a6a1155c8af5268b989436b1ef30b6832220d49647a34e77badcf5cfd1d480029",
    "source": "pragma solidity ^0.4.17;\r\n// import './ownable.sol';\r\n\r\ncontract Info{\r\n    // \r\n    uint modulus = 10 ** 16;\r\n\r\n    // \r\n    string PRODUCE = 'produce';\r\n    string MILKING = 'milking';\r\n    string PROCESS = 'process';\r\n    string STOREEXPRESS ='storeExpress';\r\n    string SELL = 'sell';\r\n\r\n    // \r\n    struct ProduceInfo{\r\n        // id\r\n        string farmsID;\r\n        // \r\n        string farmsName;\r\n        // \r\n        string farmsAdd;\r\n        // \r\n        string cowVar;\r\n        // \r\n        string cowSource;\r\n        // \r\n        string feedAqu;\r\n        // \r\n        string feedName;\r\n    }\r\n    // \r\n    struct MilkingInfo {\r\n        // \r\n        string milkingAddrCode;\r\n        // \r\n        string milkingUser;\r\n        // \r\n        string milkingEnv;\r\n        // \r\n        string milkingTime;\r\n    }\r\n\r\n    // \r\n    struct ProcessInfo {\r\n        // \r\n        string processAddr;\r\n        // \r\n        string processName;\r\n        // \r\n        string processTime;\r\n        // \r\n        string balingAddr;\r\n        // \r\n        string balingName;\r\n        // \r\n        string equiSkil;\r\n    }\r\n\r\n    // \r\n    struct StoreExpressInfo{\r\n        // \r\n        string storeAddr;\r\n        // \r\n        string storeName;\r\n        // \r\n        string storageTime;\r\n        // \r\n        string retirTime;\r\n        // \r\n        string transName;\r\n        // // \r\n        string transCode;\r\n        // // \r\n        string transTime;\r\n    }\r\n    // \r\n    struct SellInfo{\r\n        // \r\n        string sellCode;\r\n        // \r\n        string sellName;\r\n        // \r\n        string sellTime;\r\n        // \r\n        string sellAddr;\r\n        // \r\n        string produDate;\r\n    }\r\n\r\n    // \r\n    // \r\n    address[] public produceArr;\r\n    // jinai\r\n    address[] public milkingArr;\r\n    // \r\n    address[] public processArr;\r\n    // \r\n    address[] public storeExpressArr;\r\n    // \r\n    address[] public sellArr;\r\n\r\n    struct Member{\r\n        string identity;\r\n        bool isVaild;\r\n    }\r\n\r\n    //    0x123456 ===> 'produce' \r\n    mapping(address => Member) private addressToIdentity;\r\n    // ------****\r\n    function setIdentity(address _address, string _str) public {\r\n        require(!addressToIdentity[_address].isVaild);\r\n        addressToIdentity[_address].identity = _str;\r\n        addressToIdentity[_address].isVaild = true;\r\n        if(isStrEqual(_str,PRODUCE)){\r\n            produceArr.push(_address);\r\n        }else if(isStrEqual(_str,MILKING)){\r\n            milkingArr.push(_address);\r\n        }else if(isStrEqual(_str,PROCESS)){\r\n            processArr.push(_address);\r\n        }else if(isStrEqual(_str,STOREEXPRESS)){\r\n            storeExpressArr.push(_address);\r\n        }else if(isStrEqual(_str,SELL)){\r\n            sellArr.push(_address);\r\n        }\r\n    }\r\n\r\n    // id \r\n    // id\r\n    mapping(uint => ProduceInfo) public idToProduce;\r\n    uint[] produceId;\r\n\r\n    mapping(uint => MilkingInfo) public idToMilking;\r\n    uint[] milkingId;\r\n\r\n    mapping(uint => ProcessInfo) public idToProcess;\r\n    uint[] processId;\r\n\r\n    mapping(uint => StoreExpressInfo) public idToStoreExpress;\r\n    uint[] storeExpressId;\r\n\r\n    mapping(uint => SellInfo) public idToSell;\r\n    uint[] sellId;\r\n    \r\n\r\n    // \r\n    event ProduceDateAdded(string _farmsID, string _farmsName, string _farmsAdd, string _cowVar, string _cowSource, string _feedAqu, string _feedName);\r\n    event MilkingDateAdded(string _milkingAddrCode, string _milkingUser, string _milkingEnv, string _milkingTime);\r\n    event ProcessDateAdded(string _processAddr, string _processName, string _processTime, string _balingAddr, string _balingName, string _equiSkil);\r\n    event StoreExpressDateAdded(string _storeAddr, string _storeName, string _storageTime, string _retirTime, string _transName, string _transCode, string _transTime);\r\n    event SellDateAdded(string _sellCode, string _sellName, string _sellTime, string _sellAddr, string _produDate);\r\n\r\n    //  \r\n    \r\n    //id\r\n    function _createId() private view returns(uint){\r\n        uint rand = uint(keccak256(now));\r\n        return rand % modulus;\r\n    }\r\n\r\n    // \r\n    function _setProduceInfo(string _farmsID, string _farmsName, string _farmsAdd, string _cowVar, string _cowSource, string _feedAqu, string _feedName) public {\r\n        require(isStrEqual(addressToIdentity[msg.sender].identity, PRODUCE));\r\n        uint _id = _createId();\r\n        ProduceInfo memory produceOne = ProduceInfo(_farmsID, _farmsName, _farmsAdd, _cowVar, _cowSource, _feedAqu, _feedName);\r\n        idToProduce[_id] = produceOne;\r\n        produceId.push(_id);\r\n        ProduceDateAdded(_farmsID, _farmsName, _farmsAdd, _cowVar, _cowSource, _feedAqu, _feedName);\r\n\r\n    }\r\n\r\n    // jinai\r\n    function _setMilkingInfo(string _milkingAddrCode, string _milkingUser, string _milkingEnv, string _milkingTime) public {\r\n        require(isStrEqual(addressToIdentity[msg.sender].identity, MILKING));\r\n        uint _id = _createId();\r\n        MilkingInfo memory milkOne = MilkingInfo(_milkingAddrCode, _milkingUser, _milkingEnv, _milkingTime);\r\n        idToMilking[_id] = milkOne;\r\n        milkingId.push(_id);\r\n        MilkingDateAdded(_milkingAddrCode, _milkingUser, _milkingEnv, _milkingTime);\r\n    }\r\n\r\n    // \r\n    function _setProcessInfo(string _processAddr, string _processName, string _processTime, string _balingAddr, string _balingName, string _equiSkil) public {\r\n        require(isStrEqual(addressToIdentity[msg.sender].identity, PROCESS));\r\n        uint _id = _createId();\r\n        ProcessInfo memory processOne = ProcessInfo(_processAddr, _processName, _processTime, _balingAddr, _balingName, _equiSkil);\r\n        idToProcess[_id] = processOne;\r\n        processId.push(_id);\r\n        ProcessDateAdded(_processAddr, _processName, _processTime, _balingAddr, _balingName, _equiSkil);\r\n    }\r\n\r\n    // \r\n    function _setStoreExpressInfo(string _storeAddr, string _storeName, string _storageTime, string _retirTime, string _transName, string _transCode, string _transTime) public {\r\n        require(isStrEqual(addressToIdentity[msg.sender].identity,STOREEXPRESS));\r\n        uint _id = _createId();\r\n        StoreExpressInfo memory storeExpressOne = StoreExpressInfo(_storeAddr, _storeName, _storageTime, _retirTime, _transName, _transCode, _transTime);\r\n        idToStoreExpress[_id] = storeExpressOne;\r\n        storeExpressId.push(_id);\r\n        StoreExpressDateAdded(_storeAddr, _storeName, _storageTime, _retirTime, _transName, _transCode, _transTime);\r\n    }\r\n    \r\n    // \r\n    function _setSellInfo(string _sellCode, string _sellName, string _sellTime, string _sellAddr, string _produDate) public {\r\n        require(isStrEqual(addressToIdentity[msg.sender].identity, SELL));\r\n        uint _id = _createId();\r\n        SellInfo memory sellOne = SellInfo(_sellCode, _sellName, _sellTime, _sellAddr, _produDate);\r\n        idToSell[_id] = sellOne;\r\n        sellId.push(_id);\r\n        SellDateAdded(_sellCode, _sellName, _sellTime, _sellAddr, _produDate);\r\n    }\r\n    \r\n    // \r\n    function isStrEqual(string _str1, string _str2)  public pure  returns(bool){\r\n       return keccak256(_str1) == keccak256(_str2);\r\n    }\r\n}",
    "sourcePath": "C:/Users/dell/Desktop/pro-1/contracts/Info.sol",
    "compiler": {
        "name": "solc",
        "version": "0.4.19+commit.c4cbbb05.Emscripten.clang"
    },
    "schemaVersion": "3.3.2",
    "updatedAt": "2020-11-24T03:40:10.730Z",
    "networkType": "ethereum",
    "devdoc": {
        "methods": {}
    },
    "userdoc": {
        "methods": {}
    }
}