{
  "contractName": "Info",
  "abi": [
    {
      "constant": true,
      "inputs": [
        {
          "name": "",
          "type": "uint256"
        }
      ],
      "name": "produceId",
      "outputs": [
        {
          "name": "",
          "type": "string"
        }
      ],
      "payable": false,
      "stateMutability": "view",
      "type": "function"
    },
    {
      "constant": true,
      "inputs": [
        {
          "name": "",
          "type": "uint256"
        }
      ],
      "name": "participateArr",
      "outputs": [
        {
          "name": "",
          "type": "address"
        }
      ],
      "payable": false,
      "stateMutability": "view",
      "type": "function"
    },
    {
      "constant": true,
      "inputs": [
        {
          "name": "",
          "type": "uint256"
        }
      ],
      "name": "storeExpressId",
      "outputs": [
        {
          "name": "",
          "type": "string"
        }
      ],
      "payable": false,
      "stateMutability": "view",
      "type": "function"
    },
    {
      "constant": true,
      "inputs": [],
      "name": "_createId",
      "outputs": [
        {
          "name": "",
          "type": "uint256"
        }
      ],
      "payable": false,
      "stateMutability": "view",
      "type": "function"
    },
    {
      "constant": false,
      "inputs": [
        {
          "name": "_address",
          "type": "address"
        },
        {
          "name": "_str",
          "type": "string"
        },
        {
          "name": "_date",
          "type": "string"
        }
      ],
      "name": "setIdentity",
      "outputs": [],
      "payable": false,
      "stateMutability": "nonpayable",
      "type": "function"
    },
    {
      "constant": true,
      "inputs": [
        {
          "name": "",
          "type": "uint256"
        }
      ],
      "name": "processId",
      "outputs": [
        {
          "name": "",
          "type": "string"
        }
      ],
      "payable": false,
      "stateMutability": "view",
      "type": "function"
    },
    {
      "constant": true,
      "inputs": [
        {
          "name": "",
          "type": "uint256"
        }
      ],
      "name": "sellId",
      "outputs": [
        {
          "name": "",
          "type": "string"
        }
      ],
      "payable": false,
      "stateMutability": "view",
      "type": "function"
    },
    {
      "constant": false,
      "inputs": [
        {
          "name": "_address",
          "type": "address"
        }
      ],
      "name": "confirmIdentity",
      "outputs": [],
      "payable": false,
      "stateMutability": "nonpayable",
      "type": "function"
    },
    {
      "constant": true,
      "inputs": [],
      "name": "owner",
      "outputs": [
        {
          "name": "",
          "type": "address"
        }
      ],
      "payable": false,
      "stateMutability": "view",
      "type": "function"
    },
    {
      "constant": true,
      "inputs": [
        {
          "name": "",
          "type": "uint256"
        }
      ],
      "name": "milkingId",
      "outputs": [
        {
          "name": "",
          "type": "string"
        }
      ],
      "payable": false,
      "stateMutability": "view",
      "type": "function"
    },
    {
      "constant": true,
      "inputs": [
        {
          "name": "_str1",
          "type": "string"
        },
        {
          "name": "_str2",
          "type": "string"
        }
      ],
      "name": "isStrEqual",
      "outputs": [
        {
          "name": "",
          "type": "bool"
        }
      ],
      "payable": false,
      "stateMutability": "pure",
      "type": "function"
    },
    {
      "constant": true,
      "inputs": [
        {
          "name": "",
          "type": "address"
        }
      ],
      "name": "addressToIdentity",
      "outputs": [
        {
          "name": "identity",
          "type": "string"
        },
        {
          "name": "isVaild",
          "type": "bool"
        },
        {
          "name": "isExist",
          "type": "bool"
        },
        {
          "name": "applyDate",
          "type": "string"
        }
      ],
      "payable": false,
      "stateMutability": "view",
      "type": "function"
    },
    {
      "constant": false,
      "inputs": [
        {
          "name": "newOwner",
          "type": "address"
        }
      ],
      "name": "transferOwnership",
      "outputs": [],
      "payable": false,
      "stateMutability": "nonpayable",
      "type": "function"
    },
    {
      "constant": true,
      "inputs": [],
      "name": "getIdentityArrLength",
      "outputs": [
        {
          "name": "",
          "type": "uint256"
        }
      ],
      "payable": false,
      "stateMutability": "view",
      "type": "function"
    },
    {
      "anonymous": false,
      "inputs": [
        {
          "indexed": false,
          "name": "_ID",
          "type": "string"
        },
        {
          "indexed": false,
          "name": "_index",
          "type": "uint256"
        }
      ],
      "name": "ProduceDateAdded",
      "type": "event"
    },
    {
      "anonymous": false,
      "inputs": [
        {
          "indexed": false,
          "name": "_ID",
          "type": "string"
        },
        {
          "indexed": false,
          "name": "_index",
          "type": "uint256"
        }
      ],
      "name": "MilkingDateAdded",
      "type": "event"
    },
    {
      "anonymous": false,
      "inputs": [
        {
          "indexed": false,
          "name": "_ID",
          "type": "string"
        },
        {
          "indexed": false,
          "name": "_index",
          "type": "uint256"
        }
      ],
      "name": "ProcessDateAdded",
      "type": "event"
    },
    {
      "anonymous": false,
      "inputs": [
        {
          "indexed": false,
          "name": "_ID",
          "type": "string"
        },
        {
          "indexed": false,
          "name": "_index",
          "type": "uint256"
        }
      ],
      "name": "StoreExpressDateAdded",
      "type": "event"
    },
    {
      "anonymous": false,
      "inputs": [
        {
          "indexed": false,
          "name": "_ID",
          "type": "string"
        },
        {
          "indexed": false,
          "name": "_index",
          "type": "uint256"
        }
      ],
      "name": "SellDateAdded",
      "type": "event"
    },
    {
      "anonymous": false,
      "inputs": [
        {
          "indexed": false,
          "name": "_address",
          "type": "address"
        },
        {
          "indexed": false,
          "name": "_str",
          "type": "string"
        }
      ],
      "name": "identitySetSucc",
      "type": "event"
    },
    {
      "anonymous": false,
      "inputs": [
        {
          "indexed": true,
          "name": "previousOwner",
          "type": "address"
        },
        {
          "indexed": true,
          "name": "newOwner",
          "type": "address"
        }
      ],
      "name": "OwnershipTransferred",
      "type": "event"
    },
    {
      "constant": true,
      "inputs": [
        {
          "name": "_num",
          "type": "uint256"
        }
      ],
      "name": "_paddingZero",
      "outputs": [
        {
          "name": "",
          "type": "string"
        }
      ],
      "payable": false,
      "stateMutability": "view",
      "type": "function"
    },
    {
      "constant": false,
      "inputs": [
        {
          "name": "_farmsID",
          "type": "string"
        },
        {
          "name": "_farmsName",
          "type": "string"
        },
        {
          "name": "_farmsAdd",
          "type": "string"
        },
        {
          "name": "_cowVar",
          "type": "string"
        },
        {
          "name": "_cowSource",
          "type": "string"
        },
        {
          "name": "_feedAqu",
          "type": "string"
        },
        {
          "name": "_feedName",
          "type": "string"
        }
      ],
      "name": "_setProduceInfo",
      "outputs": [],
      "payable": false,
      "stateMutability": "nonpayable",
      "type": "function"
    },
    {
      "constant": false,
      "inputs": [],
      "name": "getProlength",
      "outputs": [
        {
          "name": "",
          "type": "uint256"
        }
      ],
      "payable": false,
      "stateMutability": "nonpayable",
      "type": "function"
    },
    {
      "constant": false,
      "inputs": [
        {
          "name": "_id",
          "type": "string"
        }
      ],
      "name": "getProJsonbyID",
      "outputs": [
        {
          "name": "_json",
          "type": "string"
        }
      ],
      "payable": false,
      "stateMutability": "nonpayable",
      "type": "function"
    },
    {
      "constant": false,
      "inputs": [
        {
          "name": "_produceId",
          "type": "string"
        },
        {
          "name": "_milkingAddrCode",
          "type": "string"
        },
        {
          "name": "_milkingUser",
          "type": "string"
        },
        {
          "name": "_milkingEnv",
          "type": "string"
        },
        {
          "name": "_milkingTime",
          "type": "string"
        }
      ],
      "name": "_setMilkingInfo",
      "outputs": [],
      "payable": false,
      "stateMutability": "nonpayable",
      "type": "function"
    },
    {
      "constant": false,
      "inputs": [],
      "name": "getMilklength",
      "outputs": [
        {
          "name": "",
          "type": "uint256"
        }
      ],
      "payable": false,
      "stateMutability": "nonpayable",
      "type": "function"
    },
    {
      "constant": false,
      "inputs": [
        {
          "name": "_id",
          "type": "string"
        }
      ],
      "name": "getMilkJsonbyID",
      "outputs": [
        {
          "name": "_json",
          "type": "string"
        }
      ],
      "payable": false,
      "stateMutability": "nonpayable",
      "type": "function"
    },
    {
      "constant": false,
      "inputs": [
        {
          "name": "_milkId",
          "type": "string"
        },
        {
          "name": "_processAddr",
          "type": "string"
        },
        {
          "name": "_processName",
          "type": "string"
        },
        {
          "name": "_processTime",
          "type": "string"
        },
        {
          "name": "_balingAddr",
          "type": "string"
        },
        {
          "name": "_balingName",
          "type": "string"
        },
        {
          "name": "_equiSkil",
          "type": "string"
        }
      ],
      "name": "_setProcessInfo",
      "outputs": [],
      "payable": false,
      "stateMutability": "nonpayable",
      "type": "function"
    },
    {
      "constant": false,
      "inputs": [],
      "name": "getProcesslength",
      "outputs": [
        {
          "name": "",
          "type": "uint256"
        }
      ],
      "payable": false,
      "stateMutability": "nonpayable",
      "type": "function"
    },
    {
      "constant": false,
      "inputs": [
        {
          "name": "_id",
          "type": "string"
        }
      ],
      "name": "getProcessJsonbyID",
      "outputs": [
        {
          "name": "_json",
          "type": "string"
        }
      ],
      "payable": false,
      "stateMutability": "nonpayable",
      "type": "function"
    },
    {
      "constant": false,
      "inputs": [
        {
          "name": "_commodityId",
          "type": "string"
        },
        {
          "name": "_storeAddr",
          "type": "string"
        },
        {
          "name": "_storeName",
          "type": "string"
        },
        {
          "name": "_storageTime",
          "type": "string"
        },
        {
          "name": "_retirTime",
          "type": "string"
        },
        {
          "name": "_transName",
          "type": "string"
        },
        {
          "name": "_transCode",
          "type": "string"
        },
        {
          "name": "_transTime",
          "type": "string"
        }
      ],
      "name": "_setStoreExpressInfo",
      "outputs": [],
      "payable": false,
      "stateMutability": "nonpayable",
      "type": "function"
    },
    {
      "constant": false,
      "inputs": [],
      "name": "getStoreExpresslength",
      "outputs": [
        {
          "name": "",
          "type": "uint256"
        }
      ],
      "payable": false,
      "stateMutability": "nonpayable",
      "type": "function"
    },
    {
      "constant": false,
      "inputs": [
        {
          "name": "_id",
          "type": "string"
        }
      ],
      "name": "getStoreExpressJsonbyID",
      "outputs": [
        {
          "name": "_json",
          "type": "string"
        }
      ],
      "payable": false,
      "stateMutability": "nonpayable",
      "type": "function"
    },
    {
      "constant": false,
      "inputs": [
        {
          "name": "_commodityId",
          "type": "string"
        },
        {
          "name": "_sellCode",
          "type": "string"
        },
        {
          "name": "_sellName",
          "type": "string"
        },
        {
          "name": "_sellTime",
          "type": "string"
        },
        {
          "name": "_sellAddr",
          "type": "string"
        },
        {
          "name": "_produDate",
          "type": "string"
        }
      ],
      "name": "_setSellInfo",
      "outputs": [],
      "payable": false,
      "stateMutability": "nonpayable",
      "type": "function"
    },
    {
      "constant": false,
      "inputs": [],
      "name": "getSelllength",
      "outputs": [
        {
          "name": "",
          "type": "uint256"
        }
      ],
      "payable": false,
      "stateMutability": "nonpayable",
      "type": "function"
    },
    {
      "constant": false,
      "inputs": [
        {
          "name": "_id",
          "type": "string"
        }
      ],
      "name": "getSellJsonbyID",
      "outputs": [
        {
          "name": "_json",
          "type": "string"
        }
      ],
      "payable": false,
      "stateMutability": "nonpayable",
      "type": "function"
    }
  ],
  "bytecode": "0x6060604052620186a06001556040805190810160405280600781526020017f70726f64756365000000000000000000000000000000000000000000000000008152506002908051906020019062000058929190620001d7565b506040805190810160405280600781526020017f6d696c6b696e670000000000000000000000000000000000000000000000000081525060039080519060200190620000a6929190620001d7565b506040805190810160405280600781526020017f70726f636573730000000000000000000000000000000000000000000000000081525060049080519060200190620000f4929190620001d7565b506040805190810160405280600c81526020017f73746f72654578707265737300000000000000000000000000000000000000008152506005908051906020019062000142929190620001d7565b506040805190810160405280600481526020017f73656c6c000000000000000000000000000000000000000000000000000000008152506006908051906020019062000190929190620001d7565b50336000806101000a81548173ffffffffffffffffffffffffffffffffffffffff021916908373ffffffffffffffffffffffffffffffffffffffff16021790555062000286565b828054600181600116156101000203166002900490600052602060002090601f016020900481019282601f106200021a57805160ff19168380011785556200024b565b828001600101855582156200024b579182015b828111156200024a5782518255916020019190600101906200022d565b5b5090506200025a91906200025e565b5090565b6200028391905b808211156200027f57600081600090555060010162000265565b5090565b90565b61586980620002966000396000f300606060405260043610610180576000357c0100000000000000000000000000000000000000000000000000000000900463ffffffff1680630892aa63146101855780630c430c3814610221578063140eb91d146102845780631ea47a10146103205780631eed12aa1461034957806327963220146104f55780633d6034b7146107275780633e1c744b146107e65780634653db80146108bc5780634ae899f6146109585780634b93346f14610b475780634f4387a714610c1d5780635f11970114610c4657806362de682f14610daf5780636ec5ec4e14610e4b5780637492169b14610f2157806380f0cc1714610f4a57806385af965a146110205780638da5cb5b146110595780638e65de3e146110ae578063a1fc5f74146110d7578063a7b5c88f146111ad578063b28540d614611249578063ba8f439814611272578063c646a92e1461130e578063d4cbd9d414611337578063eb4e9b09146113ef578063f19339b11461155d578063f2fde38b1461174c578063f8262ac814611785575b600080fd5b341561019057600080fd5b6101a660048080359060200190919050506117ae565b6040518080602001828103825283818151815260200191508051906020019080838360005b838110156101e65780820151818401526020810190506101cb565b50505050905090810190601f1680156102135780820380516001836020036101000a031916815260200191505b509250505060405180910390f35b341561022c57600080fd5b610242600480803590602001909190505061186a565b604051808273ffffffffffffffffffffffffffffffffffffffff1673ffffffffffffffffffffffffffffffffffffffff16815260200191505060405180910390f35b341561028f57600080fd5b6102a560048080359060200190919050506118a9565b6040518080602001828103825283818151815260200191508051906020019080838360005b838110156102e55780820151818401526020810190506102ca565b50505050905090810190601f1680156103125780820380516001836020036101000a031916815260200191505b509250505060405180910390f35b341561032b57600080fd5b610333611965565b6040518082815260200191505060405180910390f35b341561035457600080fd5b6104f3600480803590602001908201803590602001908080601f0160208091040260200160405190810160405280939291908181526020018383808284378201915050505050509190803590602001908201803590602001908080601f0160208091040260200160405190810160405280939291908181526020018383808284378201915050505050509190803590602001908201803590602001908080601f0160208091040260200160405190810160405280939291908181526020018383808284378201915050505050509190803590602001908201803590602001908080601f0160208091040260200160405190810160405280939291908181526020018383808284378201915050505050509190803590602001908201803590602001908080601f0160208091040260200160405190810160405280939291908181526020018383808284378201915050505050509190803590602001908201803590602001908080601f01602080910402602001604051908101604052809392919081815260200183838082843782019150505050505091905050611998565b005b341561050057600080fd5b610725600480803590602001908201803590602001908080601f0160208091040260200160405190810160405280939291908181526020018383808284378201915050505050509190803590602001908201803590602001908080601f0160208091040260200160405190810160405280939291908181526020018383808284378201915050505050509190803590602001908201803590602001908080601f0160208091040260200160405190810160405280939291908181526020018383808284378201915050505050509190803590602001908201803590602001908080601f0160208091040260200160405190810160405280939291908181526020018383808284378201915050505050509190803590602001908201803590602001908080601f0160208091040260200160405190810160405280939291908181526020018383808284378201915050505050509190803590602001908201803590602001908080601f0160208091040260200160405190810160405280939291908181526020018383808284378201915050505050509190803590602001908201803590602001908080601f0160208091040260200160405190810160405280939291908181526020018383808284378201915050505050509190803590602001908201803590602001908080601f01602080910402602001604051908101604052809392919081815260200183838082843782019150505050505091905050611b48565b005b341561073257600080fd5b6107e4600480803573ffffffffffffffffffffffffffffffffffffffff1690602001909190803590602001908201803590602001908080601f0160208091040260200160405190810160405280939291908181526020018383808284378201915050505050509190803590602001908201803590602001908080601f01602080910402602001604051908101604052809392919081815260200183838082843782019150505050505091905050611d06565b005b34156107f157600080fd5b610841600480803590602001908201803590602001908080601f01602080910402602001604051908101604052809392919081815260200183838082843782019150505050505091905050611f2a565b6040518080602001828103825283818151815260200191508051906020019080838360005b83811015610881578082015181840152602081019050610866565b50505050905090810190601f1680156108ae5780820380516001836020036101000a031916815260200191505b509250505060405180910390f35b34156108c757600080fd5b6108dd600480803590602001909190505061203d565b6040518080602001828103825283818151815260200191508051906020019080838360005b8381101561091d578082015181840152602081019050610902565b50505050905090810190601f16801561094a5780820380516001836020036101000a031916815260200191505b509250505060405180910390f35b341561096357600080fd5b610b45600480803590602001908201803590602001908080601f0160208091040260200160405190810160405280939291908181526020018383808284378201915050505050509190803590602001908201803590602001908080601f0160208091040260200160405190810160405280939291908181526020018383808284378201915050505050509190803590602001908201803590602001908080601f0160208091040260200160405190810160405280939291908181526020018383808284378201915050505050509190803590602001908201803590602001908080601f0160208091040260200160405190810160405280939291908181526020018383808284378201915050505050509190803590602001908201803590602001908080601f0160208091040260200160405190810160405280939291908181526020018383808284378201915050505050509190803590602001908201803590602001908080601f0160208091040260200160405190810160405280939291908181526020018383808284378201915050505050509190803590602001908201803590602001908080601f016020809104026020016040519081016040528093929190818152602001838380828437820191505050505050919050506120f9565b005b3415610b5257600080fd5b610ba2600480803590602001908201803590602001908080601f016020809104026020016040519081016040528093929190818152602001838380828437820191505050505050919050506122e3565b6040518080602001828103825283818151815260200191508051906020019080838360005b83811015610be2578082015181840152602081019050610bc7565b50505050905090810190601f168015610c0f5780820380516001836020036101000a031916815260200191505b509250505060405180910390f35b3415610c2857600080fd5b610c306123f6565b6040518082815260200191505060405180910390f35b3415610c5157600080fd5b610dad600480803590602001908201803590602001908080601f0160208091040260200160405190810160405280939291908181526020018383808284378201915050505050509190803590602001908201803590602001908080601f0160208091040260200160405190810160405280939291908181526020018383808284378201915050505050509190803590602001908201803590602001908080601f0160208091040260200160405190810160405280939291908181526020018383808284378201915050505050509190803590602001908201803590602001908080601f0160208091040260200160405190810160405280939291908181526020018383808284378201915050505050509190803590602001908201803590602001908080601f01602080910402602001604051908101604052809392919081815260200183838082843782019150505050505091905050612403565b005b3415610dba57600080fd5b610dd060048080359060200190919050506125df565b6040518080602001828103825283818151815260200191508051906020019080838360005b83811015610e10578082015181840152602081019050610df5565b50505050905090810190601f168015610e3d5780820380516001836020036101000a031916815260200191505b509250505060405180910390f35b3415610e5657600080fd5b610ea6600480803590602001908201803590602001908080601f0160208091040260200160405190810160405280939291908181526020018383808284378201915050505050509190505061269b565b6040518080602001828103825283818151815260200191508051906020019080838360005b83811015610ee6578082015181840152602081019050610ecb565b50505050905090810190601f168015610f135780820380516001836020036101000a031916815260200191505b509250505060405180910390f35b3415610f2c57600080fd5b610f346127ae565b6040518082815260200191505060405180910390f35b3415610f5557600080fd5b610fa5600480803590602001908201803590602001908080601f016020809104026020016040519081016040528093929190818152602001838380828437820191505050505050919050506127bb565b6040518080602001828103825283818151815260200191508051906020019080838360005b83811015610fe5578082015181840152602081019050610fca565b50505050905090810190601f1680156110125780820380516001836020036101000a031916815260200191505b509250505060405180910390f35b341561102b57600080fd5b611057600480803573ffffffffffffffffffffffffffffffffffffffff169060200190919050506128ce565b005b341561106457600080fd5b61106c612ab5565b604051808273ffffffffffffffffffffffffffffffffffffffff1673ffffffffffffffffffffffffffffffffffffffff16815260200191505060405180910390f35b34156110b957600080fd5b6110c1612ada565b6040518082815260200191505060405180910390f35b34156110e257600080fd5b611132600480803590602001908201803590602001908080601f01602080910402602001604051908101604052809392919081815260200183838082843782019150505050505091905050612ae7565b6040518080602001828103825283818151815260200191508051906020019080838360005b83811015611172578082015181840152602081019050611157565b50505050905090810190601f16801561119f5780820380516001836020036101000a031916815260200191505b509250505060405180910390f35b34156111b857600080fd5b6111ce6004808035906020019091905050612bfa565b6040518080602001828103825283818151815260200191508051906020019080838360005b8381101561120e5780820151818401526020810190506111f3565b50505050905090810190601f16801561123b5780820380516001836020036101000a031916815260200191505b509250505060405180910390f35b341561125457600080fd5b61125c612cc9565b6040518082815260200191505060405180910390f35b341561127d57600080fd5b6112936004808035906020019091905050612cd6565b6040518080602001828103825283818151815260200191508051906020019080838360005b838110156112d35780820151818401526020810190506112b8565b50505050905090810190601f1680156113005780820380516001836020036101000a031916815260200191505b509250505060405180910390f35b341561131957600080fd5b611321612d92565b6040518082815260200191505060405180910390f35b341561134257600080fd5b6113d5600480803590602001908201803590602001908080601f0160208091040260200160405190810160405280939291908181526020018383808284378201915050505050509190803590602001908201803590602001908080601f01602080910402602001604051908101604052809392919081815260200183838082843782019150505050505091905050612d9f565b604051808215151515815260200191505060405180910390f35b34156113fa57600080fd5b611426600480803573ffffffffffffffffffffffffffffffffffffffff16906020019091905050612e78565b60405180806020018515151515815260200184151515158152602001806020018381038352878181546001816001161561010002031660029004815260200191508054600181600116156101000203166002900480156114c75780601f1061149c576101008083540402835291602001916114c7565b820191906000526020600020905b8154815290600101906020018083116114aa57829003601f168201915b505083810382528481815460018160011615610100020316600290048152602001915080546001816001161561010002031660029004801561154a5780601f1061151f5761010080835404028352916020019161154a565b820191906000526020600020905b81548152906001019060200180831161152d57829003601f168201915b5050965050505050505060405180910390f35b341561156857600080fd5b61174a600480803590602001908201803590602001908080601f0160208091040260200160405190810160405280939291908181526020018383808284378201915050505050509190803590602001908201803590602001908080601f0160208091040260200160405190810160405280939291908181526020018383808284378201915050505050509190803590602001908201803590602001908080601f0160208091040260200160405190810160405280939291908181526020018383808284378201915050505050509190803590602001908201803590602001908080601f0160208091040260200160405190810160405280939291908181526020018383808284378201915050505050509190803590602001908201803590602001908080601f0160208091040260200160405190810160405280939291908181526020018383808284378201915050505050509190803590602001908201803590602001908080601f0160208091040260200160405190810160405280939291908181526020018383808284378201915050505050509190803590602001908201803590602001908080601f01602080910402602001604051908101604052809392919081815260200183838082843782019150505050505091905050612ec0565b005b341561175757600080fd5b611783600480803573ffffffffffffffffffffffffffffffffffffffff1690602001909190505061309e565b005b341561179057600080fd5b6117986131f3565b6040518082815260200191505060405180910390f35b600a818154811015156117bd57fe5b90600052602060002090016000915090508054600181600116156101000203166002900480601f0160208091040260200160405190810160405280929190818152602001828054600181600116156101000203166002900480156118625780601f1061183757610100808354040283529160200191611862565b820191906000526020600020905b81548152906001019060200180831161184557829003601f168201915b505050505081565b60078181548110151561187957fe5b90600052602060002090016000915054906101000a900473ffffffffffffffffffffffffffffffffffffffff1681565b6010818154811015156118b857fe5b90600052602060002090016000915090508054600181600116156101000203166002900480601f01602080910402602001604051908101604052809291908181526020018280546001816001161561010002031660029004801561195d5780601f106119325761010080835404028352916020019161195d565b820191906000526020600020905b81548152906001019060200180831161194057829003601f168201915b505050505081565b600080426040518082815260200191505060405180910390206001900490506001548181151561199157fe5b0691505090565b6119a06154ea565b6119a8615538565b60a060405190810160405280888152602001878152602001868152602001858152602001848152509150601280548060010182816119e6919061554c565b916000526020600020900160008a90919091509080519060200190611a0c929190615578565b5050611a1782613200565b9050806011896040518082805190602001908083835b602083101515611a525780518252602082019150602081019050602083039250611a2d565b6001836020036101000a03801982511681845116808217855250505050505090500191505090815260200160405180910390209080519060200190611a98929190615578565b507fdd5cad9095497bc2463049928a9daf306b8a67c2d97b1dfab80c2a38e90409f78860016040518080602001838152602001828103825284818151815260200191508051906020019080838360005b83811015611b03578082015181840152602081019050611ae8565b50505050905090810190601f168015611b305780820380516001836020036101000a031916815260200191505b50935050505060405180910390a15050505050505050565b611b506155f8565b611b58615538565b60e0604051908101604052808a815260200189815260200188815260200187815260200186815260200185815260200184815250915060108054806001018281611ba2919061554c565b916000526020600020900160008c90919091509080519060200190611bc8929190615578565b5050611bd38261377d565b905080600f8b6040518082805190602001908083835b602083101515611c0e5780518252602082019150602081019050602083039250611be9565b6001836020036101000a03801982511681845116808217855250505050505090500191505090815260200160405180910390209080519060200190611c54929190615578565b507ff1df94202bfcb9f42e91fb2852c2889c9cc63a9e46dfdf863b04cba61a97e4708a60016040518080602001838152602001828103825284818151815260200191508051906020019080838360005b83811015611cbf578082015181840152602081019050611ca4565b50505050905090810190601f168015611cec5780820380516001836020036101000a031916815260200191505b50935050505060405180910390a150505050505050505050565b600860008473ffffffffffffffffffffffffffffffffffffffff1673ffffffffffffffffffffffffffffffffffffffff16815260200190815260200160002060010160009054906101000a900460ff16151515611d6257600080fd5b600860008473ffffffffffffffffffffffffffffffffffffffff1673ffffffffffffffffffffffffffffffffffffffff16815260200190815260200160002060010160019054906101000a900460ff161515611e1c5760078054806001018281611dcc9190615660565b9160005260206000209001600085909190916101000a81548173ffffffffffffffffffffffffffffffffffffffff021916908373ffffffffffffffffffffffffffffffffffffffff160217905550505b81600860008573ffffffffffffffffffffffffffffffffffffffff1673ffffffffffffffffffffffffffffffffffffffff1681526020019081526020016000206000019080519060200190611e72929190615578565b5080600860008573ffffffffffffffffffffffffffffffffffffffff1673ffffffffffffffffffffffffffffffffffffffff1681526020019081526020016000206002019080519060200190611ec9929190615578565b506001600860008573ffffffffffffffffffffffffffffffffffffffff1673ffffffffffffffffffffffffffffffffffffffff16815260200190815260200160002060010160016101000a81548160ff021916908315150217905550505050565b611f32615538565b6009826040518082805190602001908083835b602083101515611f6a5780518252602082019150602081019050602083039250611f45565b6001836020036101000a03801982511681845116808217855250505050505090500191505090815260200160405180910390208054600181600116156101000203166002900480601f0160208091040260200160405190810160405280929190818152602001828054600181600116156101000203166002900480156120315780601f1061200657610100808354040283529160200191612031565b820191906000526020600020905b81548152906001019060200180831161201457829003601f168201915b50505050509050919050565b600e8181548110151561204c57fe5b90600052602060002090016000915090508054600181600116156101000203166002900480601f0160208091040260200160405190810160405280929190818152602001828054600181600116156101000203166002900480156120f15780601f106120c6576101008083540402835291602001916120f1565b820191906000526020600020905b8154815290600101906020018083116120d457829003601f168201915b505050505081565b600061210361568c565b61210b615538565b612113615538565b61211b611965565b935060c0604051908101604052808b81526020018a81526020018981526020018881526020018781526020018681525092506121688b61215a86612bfa565b613f0490919063ffffffff16565b9150600e805480600101828161217e919061554c565b9160005260206000209001600084909190915090805190602001906121a4929190615578565b50506121af83613f70565b905080600d836040518082805190602001908083835b6020831015156121ea57805182526020820191506020810190506020830392506121c5565b6001836020036101000a03801982511681845116808217855250505050505090500191505090815260200160405180910390209080519060200190612230929190615578565b507f9b4e5b83a173daf9e1ddb8e4039f02afa697a0777d06efcbd91161722e4b60678260016040518080602001838152602001828103825284818151815260200191508051906020019080838360005b8381101561229b578082015181840152602081019050612280565b50505050905090810190601f1680156122c85780820380516001836020036101000a031916815260200191505b50935050505060405180910390a15050505050505050505050565b6122eb615538565b600b826040518082805190602001908083835b60208310151561232357805182526020820191506020810190506020830392506122fe565b6001836020036101000a03801982511681845116808217855250505050505090500191505090815260200160405180910390208054600181600116156101000203166002900480601f0160208091040260200160405190810160405280929190818152602001828054600181600116156101000203166002900480156123ea5780601f106123bf576101008083540402835291602001916123ea565b820191906000526020600020905b8154815290600101906020018083116123cd57829003601f168201915b50505050509050919050565b6000601080549050905090565b600061240d6156e7565b612415615538565b61241d615538565b612425611965565b93506080604051908101604052808981526020018881526020018781526020018681525092506124668961245886612bfa565b613f0490919063ffffffff16565b9150600c805480600101828161247c919061554c565b9160005260206000209001600084909190915090805190602001906124a2929190615578565b50506124ad836145f2565b905080600b836040518082805190602001908083835b6020831015156124e857805182526020820191506020810190506020830392506124c3565b6001836020036101000a0380198251168184511680821785525050505050509050019150509081526020016040518091039020908051906020019061252e929190615578565b507fa1392366c6d05fde4ec833f6dee2efa880e0040761c2b3e51c593a3ae32a4bee8260016040518080602001838152602001828103825284818151815260200191508051906020019080838360005b8381101561259957808201518184015260208101905061257e565b50505050905090810190601f1680156125c65780820380516001836020036101000a031916815260200191505b50935050505060405180910390a1505050505050505050565b6012818154811015156125ee57fe5b90600052602060002090016000915090508054600181600116156101000203166002900480601f0160208091040260200160405190810160405280929190818152602001828054600181600116156101000203166002900480156126935780601f1061266857610100808354040283529160200191612693565b820191906000526020600020905b81548152906001019060200180831161267657829003601f168201915b505050505081565b6126a3615538565b600f826040518082805190602001908083835b6020831015156126db57805182526020820191506020810190506020830392506126b6565b6001836020036101000a03801982511681845116808217855250505050505090500191505090815260200160405180910390208054600181600116156101000203166002900480601f0160208091040260200160405190810160405280929190818152602001828054600181600116156101000203166002900480156127a25780601f10612777576101008083540402835291602001916127a2565b820191906000526020600020905b81548152906001019060200180831161278557829003601f168201915b50505050509050919050565b6000600c80549050905090565b6127c3615538565b600d826040518082805190602001908083835b6020831015156127fb57805182526020820191506020810190506020830392506127d6565b6001836020036101000a03801982511681845116808217855250505050505090500191505090815260200160405180910390208054600181600116156101000203166002900480601f0160208091040260200160405190810160405280929190818152602001828054600181600116156101000203166002900480156128c25780601f10612897576101008083540402835291602001916128c2565b820191906000526020600020905b8154815290600101906020018083116128a557829003601f168201915b50505050509050919050565b600860008273ffffffffffffffffffffffffffffffffffffffff1673ffffffffffffffffffffffffffffffffffffffff16815260200190815260200160002060010160019054906101000a900460ff16151561292957600080fd5b6001600860008373ffffffffffffffffffffffffffffffffffffffff1673ffffffffffffffffffffffffffffffffffffffff16815260200190815260200160002060010160006101000a81548160ff0219169083151502179055507f30c866340f6b6c54e0aff2b1bdaf8f0215da88d148833e1b6fd123f81d790c9081600860008473ffffffffffffffffffffffffffffffffffffffff1673ffffffffffffffffffffffffffffffffffffffff168152602001908152602001600020600001604051808373ffffffffffffffffffffffffffffffffffffffff1673ffffffffffffffffffffffffffffffffffffffff16815260200180602001828103825283818154600181600116156101000203166002900481526020019150805460018160011615610100020316600290048015612aa35780601f10612a7857610100808354040283529160200191612aa3565b820191906000526020600020905b815481529060010190602001808311612a8657829003601f168201915b5050935050505060405180910390a150565b6000809054906101000a900473ffffffffffffffffffffffffffffffffffffffff1681565b6000601280549050905090565b612aef615538565b6011826040518082805190602001908083835b602083101515612b275780518252602082019150602081019050602083039250612b02565b6001836020036101000a03801982511681845116808217855250505050505090500191505090815260200160405180910390208054600181600116156101000203166002900480601f016020809104026020016040519081016040528092919081815260200182805460018160011615610100020316600290048015612bee5780601f10612bc357610100808354040283529160200191612bee565b820191906000526020600020905b815481529060010190602001808311612bd157829003601f168201915b50505050509050919050565b612c02615538565b612c0a615538565b6000806000859250600591505b600183101515612c3e57600a83811515612c2d57fe5b049250818060019003925050612c17565b600190505b8181111515612ca357612c946040805190810160405280600181526020017f300000000000000000000000000000000000000000000000000000000000000081525085613f0490919063ffffffff16565b93508080600101915050612c43565b612cbe612caf87614a6a565b85613f0490919063ffffffff16565b945050505050919050565b6000600a80549050905090565b600c81815481101515612ce557fe5b90600052602060002090016000915090508054600181600116156101000203166002900480601f016020809104026020016040519081016040528092919081815260200182805460018160011615610100020316600290048015612d8a5780601f10612d5f57610100808354040283529160200191612d8a565b820191906000526020600020905b815481529060010190602001808311612d6d57829003601f168201915b505050505081565b6000600e80549050905090565b6000816040518082805190602001908083835b602083101515612dd75780518252602082019150602081019050602083039250612db2565b6001836020036101000a038019825116818451168082178552505050505050905001915050604051809103902060001916836040518082805190602001908083835b602083101515612e3e5780518252602082019150602081019050602083039250612e19565b6001836020036101000a03801982511681845116808217855250505050505090500191505060405180910390206000191614905092915050565b600860205280600052604060002060009150905080600001908060010160009054906101000a900460ff16908060010160019054906101000a900460ff169080600201905084565b6000612eca615728565b612ed2615538565b612eda615538565b612ee2611965565b935060e0604051908101604052808c81526020018b81526020018a8152602001898152602001888152602001878152602001868152509250612f2384612bfa565b9150600a8054806001018281612f39919061554c565b916000526020600020900160008490919091509080519060200190612f5f929190615578565b5050612f6a83614bb8565b9050806009836040518082805190602001908083835b602083101515612fa55780518252602082019150602081019050602083039250612f80565b6001836020036101000a03801982511681845116808217855250505050505090500191505090815260200160405180910390209080519060200190612feb929190615578565b507f1e1855240940486abb8f49a1698996634b94779817634e126aa259a3a3d6eea28260016040518080602001838152602001828103825284818151815260200191508051906020019080838360005b8381101561305657808201518184015260208101905061303b565b50505050905090810190601f1680156130835780820380516001836020036101000a031916815260200191505b50935050505060405180910390a15050505050505050505050565b6000809054906101000a900473ffffffffffffffffffffffffffffffffffffffff1673ffffffffffffffffffffffffffffffffffffffff163373ffffffffffffffffffffffffffffffffffffffff161415156130f957600080fd5b600073ffffffffffffffffffffffffffffffffffffffff168173ffffffffffffffffffffffffffffffffffffffff161415151561313557600080fd5b8073ffffffffffffffffffffffffffffffffffffffff166000809054906101000a900473ffffffffffffffffffffffffffffffffffffffff1673ffffffffffffffffffffffffffffffffffffffff167f8be0079c531659141344cd1fd0a4f28419497f9722a3daafe3b4186f6b6457e060405160405180910390a3806000806101000a81548173ffffffffffffffffffffffffffffffffffffffff021916908373ffffffffffffffffffffffffffffffffffffffff16021790555050565b6000600780549050905090565b613208615538565b613210615538565b6040805190810160405280600181526020017f7b00000000000000000000000000000000000000000000000000000000000000815250905061334b6040805190810160405280600b81526020017f2273656c6c436f6465223a00000000000000000000000000000000000000000081525061330485600001516040805190810160405280600181526020017f22000000000000000000000000000000000000000000000000000000000000008152506040805190810160405280600181526020017f220000000000000000000000000000000000000000000000000000000000000081525061533f9092919063ffffffff16565b6040805190810160405280600181526020017f2c00000000000000000000000000000000000000000000000000000000000000815250846153df909392919063ffffffff16565b90506134506040805190810160405280600b81526020017f2273656c6c4e616d65223a00000000000000000000000000000000000000000081525061340985602001516040805190810160405280600181526020017f22000000000000000000000000000000000000000000000000000000000000008152506040805190810160405280600181526020017f220000000000000000000000000000000000000000000000000000000000000081525061533f9092919063ffffffff16565b6040805190810160405280600181526020017f2c00000000000000000000000000000000000000000000000000000000000000815250846153df909392919063ffffffff16565b90506135556040805190810160405280600b81526020017f2273656c6c54696d65223a00000000000000000000000000000000000000000081525061350e85604001516040805190810160405280600181526020017f22000000000000000000000000000000000000000000000000000000000000008152506040805190810160405280600181526020017f220000000000000000000000000000000000000000000000000000000000000081525061533f9092919063ffffffff16565b6040805190810160405280600181526020017f2c00000000000000000000000000000000000000000000000000000000000000815250846153df909392919063ffffffff16565b905061365a6040805190810160405280600b81526020017f2273656c6c41646472223a00000000000000000000000000000000000000000081525061361385606001516040805190810160405280600181526020017f22000000000000000000000000000000000000000000000000000000000000008152506040805190810160405280600181526020017f220000000000000000000000000000000000000000000000000000000000000081525061533f9092919063ffffffff16565b6040805190810160405280600181526020017f2c00000000000000000000000000000000000000000000000000000000000000815250846153df909392919063ffffffff16565b90506137286040805190810160405280600c81526020017f2270726f647544617465223a000000000000000000000000000000000000000081525061371885608001516040805190810160405280600181526020017f22000000000000000000000000000000000000000000000000000000000000008152506040805190810160405280600181526020017f220000000000000000000000000000000000000000000000000000000000000081525061533f9092919063ffffffff16565b8361533f9092919063ffffffff16565b90506137726040805190810160405280600181526020017f7d0000000000000000000000000000000000000000000000000000000000000081525082613f0490919063ffffffff16565b905080915050919050565b613785615538565b61378d615538565b6040805190810160405280600181526020017f7b0000000000000000000000000000000000000000000000000000000000000081525090506138c86040805190810160405280600c81526020017f2273746f726541646472223a000000000000000000000000000000000000000081525061388185600001516040805190810160405280600181526020017f22000000000000000000000000000000000000000000000000000000000000008152506040805190810160405280600181526020017f220000000000000000000000000000000000000000000000000000000000000081525061533f9092919063ffffffff16565b6040805190810160405280600181526020017f2c00000000000000000000000000000000000000000000000000000000000000815250846153df909392919063ffffffff16565b90506139cd6040805190810160405280600c81526020017f2273746f72654e616d65223a000000000000000000000000000000000000000081525061398685602001516040805190810160405280600181526020017f22000000000000000000000000000000000000000000000000000000000000008152506040805190810160405280600181526020017f220000000000000000000000000000000000000000000000000000000000000081525061533f9092919063ffffffff16565b6040805190810160405280600181526020017f2c00000000000000000000000000000000000000000000000000000000000000815250846153df909392919063ffffffff16565b9050613ad26040805190810160405280600e81526020017f2273746f7261676554696d65223a000000000000000000000000000000000000815250613a8b85604001516040805190810160405280600181526020017f22000000000000000000000000000000000000000000000000000000000000008152506040805190810160405280600181526020017f220000000000000000000000000000000000000000000000000000000000000081525061533f9092919063ffffffff16565b6040805190810160405280600181526020017f2c00000000000000000000000000000000000000000000000000000000000000815250846153df909392919063ffffffff16565b9050613bd76040805190810160405280600c81526020017f22726574697254696d65223a0000000000000000000000000000000000000000815250613b9085606001516040805190810160405280600181526020017f22000000000000000000000000000000000000000000000000000000000000008152506040805190810160405280600181526020017f220000000000000000000000000000000000000000000000000000000000000081525061533f9092919063ffffffff16565b6040805190810160405280600181526020017f2c00000000000000000000000000000000000000000000000000000000000000815250846153df909392919063ffffffff16565b9050613cdc6040805190810160405280600c81526020017f227472616e734e616d65223a0000000000000000000000000000000000000000815250613c9585608001516040805190810160405280600181526020017f22000000000000000000000000000000000000000000000000000000000000008152506040805190810160405280600181526020017f220000000000000000000000000000000000000000000000000000000000000081525061533f9092919063ffffffff16565b6040805190810160405280600181526020017f2c00000000000000000000000000000000000000000000000000000000000000815250846153df909392919063ffffffff16565b9050613de16040805190810160405280600c81526020017f227472616e73436f6465223a0000000000000000000000000000000000000000815250613d9a8560a001516040805190810160405280600181526020017f22000000000000000000000000000000000000000000000000000000000000008152506040805190810160405280600181526020017f220000000000000000000000000000000000000000000000000000000000000081525061533f9092919063ffffffff16565b6040805190810160405280600181526020017f2c00000000000000000000000000000000000000000000000000000000000000815250846153df909392919063ffffffff16565b9050613eaf6040805190810160405280600c81526020017f227472616e7354696d65223a0000000000000000000000000000000000000000815250613e9f8560c001516040805190810160405280600181526020017f22000000000000000000000000000000000000000000000000000000000000008152506040805190810160405280600181526020017f220000000000000000000000000000000000000000000000000000000000000081525061533f9092919063ffffffff16565b8361533f9092919063ffffffff16565b9050613ef96040805190810160405280600181526020017f7d0000000000000000000000000000000000000000000000000000000000000081525082613f0490919063ffffffff16565b905080915050919050565b613f0c615538565b60008060008451865101604051805910613f235750595b9080825280601f01601f19166020018201604052509350602086019250602085019150602084019050613f588184885161549f565b613f678651820183875161549f565b50505092915050565b613f78615538565b613f80615538565b6040805190810160405280600181526020017f7b0000000000000000000000000000000000000000000000000000000000000081525090506140bb6040805190810160405280600e81526020017f2270726f6365737341646472223a00000000000000000000000000000000000081525061407485600001516040805190810160405280600181526020017f22000000000000000000000000000000000000000000000000000000000000008152506040805190810160405280600181526020017f220000000000000000000000000000000000000000000000000000000000000081525061533f9092919063ffffffff16565b6040805190810160405280600181526020017f2c00000000000000000000000000000000000000000000000000000000000000815250846153df909392919063ffffffff16565b90506141c06040805190810160405280600e81526020017f2270726f636573734e616d65223a00000000000000000000000000000000000081525061417985602001516040805190810160405280600181526020017f22000000000000000000000000000000000000000000000000000000000000008152506040805190810160405280600181526020017f220000000000000000000000000000000000000000000000000000000000000081525061533f9092919063ffffffff16565b6040805190810160405280600181526020017f2c00000000000000000000000000000000000000000000000000000000000000815250846153df909392919063ffffffff16565b90506142c56040805190810160405280600e81526020017f2270726f6365737354696d65223a00000000000000000000000000000000000081525061427e85604001516040805190810160405280600181526020017f22000000000000000000000000000000000000000000000000000000000000008152506040805190810160405280600181526020017f220000000000000000000000000000000000000000000000000000000000000081525061533f9092919063ffffffff16565b6040805190810160405280600181526020017f2c00000000000000000000000000000000000000000000000000000000000000815250846153df909392919063ffffffff16565b90506143ca6040805190810160405280600d81526020017f2262616c696e6741646472223a0000000000000000000000000000000000000081525061438385606001516040805190810160405280600181526020017f22000000000000000000000000000000000000000000000000000000000000008152506040805190810160405280600181526020017f220000000000000000000000000000000000000000000000000000000000000081525061533f9092919063ffffffff16565b6040805190810160405280600181526020017f2c00000000000000000000000000000000000000000000000000000000000000815250846153df909392919063ffffffff16565b90506144cf6040805190810160405280600d81526020017f2262616c696e674e616d65223a0000000000000000000000000000000000000081525061448885608001516040805190810160405280600181526020017f22000000000000000000000000000000000000000000000000000000000000008152506040805190810160405280600181526020017f220000000000000000000000000000000000000000000000000000000000000081525061533f9092919063ffffffff16565b6040805190810160405280600181526020017f2c00000000000000000000000000000000000000000000000000000000000000815250846153df909392919063ffffffff16565b905061459d6040805190810160405280600b81526020017f2265717569536b696c223a00000000000000000000000000000000000000000081525061458d8560a001516040805190810160405280600181526020017f22000000000000000000000000000000000000000000000000000000000000008152506040805190810160405280600181526020017f220000000000000000000000000000000000000000000000000000000000000081525061533f9092919063ffffffff16565b8361533f9092919063ffffffff16565b90506145e76040805190810160405280600181526020017f7d0000000000000000000000000000000000000000000000000000000000000081525082613f0490919063ffffffff16565b905080915050919050565b6145fa615538565b614602615538565b6040805190810160405280600181526020017f7b00000000000000000000000000000000000000000000000000000000000000815250905061473d6040805190810160405280601281526020017f226d696c6b696e6741646472436f6465223a00000000000000000000000000008152506146f685600001516040805190810160405280600181526020017f22000000000000000000000000000000000000000000000000000000000000008152506040805190810160405280600181526020017f220000000000000000000000000000000000000000000000000000000000000081525061533f9092919063ffffffff16565b6040805190810160405280600181526020017f2c00000000000000000000000000000000000000000000000000000000000000815250846153df909392919063ffffffff16565b90506148426040805190810160405280600e81526020017f226d696c6b696e6755736572223a0000000000000000000000000000000000008152506147fb85602001516040805190810160405280600181526020017f22000000000000000000000000000000000000000000000000000000000000008152506040805190810160405280600181526020017f220000000000000000000000000000000000000000000000000000000000000081525061533f9092919063ffffffff16565b6040805190810160405280600181526020017f2c00000000000000000000000000000000000000000000000000000000000000815250846153df909392919063ffffffff16565b90506149476040805190810160405280600d81526020017f226d696c6b696e67456e76223a0000000000000000000000000000000000000081525061490085604001516040805190810160405280600181526020017f22000000000000000000000000000000000000000000000000000000000000008152506040805190810160405280600181526020017f220000000000000000000000000000000000000000000000000000000000000081525061533f9092919063ffffffff16565b6040805190810160405280600181526020017f2c00000000000000000000000000000000000000000000000000000000000000815250846153df909392919063ffffffff16565b9050614a156040805190810160405280600e81526020017f226d696c6b696e6754696d65223a000000000000000000000000000000000000815250614a0585606001516040805190810160405280600181526020017f22000000000000000000000000000000000000000000000000000000000000008152506040805190810160405280600181526020017f220000000000000000000000000000000000000000000000000000000000000081525061533f9092919063ffffffff16565b8361533f9092919063ffffffff16565b9050614a5f6040805190810160405280600181526020017f7d0000000000000000000000000000000000000000000000000000000000000081525082613f0490919063ffffffff16565b905080915050919050565b614a72615538565b600080600080851415614abc576040805190810160405280600181526020017f30000000000000000000000000000000000000000000000000000000000000008152509350614bb0565b600092508491505b6000821115614ae957600a82811515614ad957fe5b0491508280600101935050614ac4565b8260ff16604051805910614afa5750595b9080825280601f01601f191660200182016040525093506001830390505b6000851115614baf576030600a86811515614b2f57fe5b06017f01000000000000000000000000000000000000000000000000000000000000000284828060019003935060ff16815181101515614b6b57fe5b9060200101907effffffffffffffffffffffffffffffffffffffffffffffffffffffffffffff1916908160001a905350600a85811515614ba757fe5b049450614b18565b5b505050919050565b614bc0615538565b614bc8615538565b6040805190810160405280600181526020017f7b000000000000000000000000000000000000000000000000000000000000008152509050614d036040805190810160405280600a81526020017f226661726d734944223a00000000000000000000000000000000000000000000815250614cbc85600001516040805190810160405280600181526020017f22000000000000000000000000000000000000000000000000000000000000008152506040805190810160405280600181526020017f220000000000000000000000000000000000000000000000000000000000000081525061533f9092919063ffffffff16565b6040805190810160405280600181526020017f2c00000000000000000000000000000000000000000000000000000000000000815250846153df909392919063ffffffff16565b9050614e086040805190810160405280600c81526020017f226661726d734e616d65223a0000000000000000000000000000000000000000815250614dc185602001516040805190810160405280600181526020017f22000000000000000000000000000000000000000000000000000000000000008152506040805190810160405280600181526020017f220000000000000000000000000000000000000000000000000000000000000081525061533f9092919063ffffffff16565b6040805190810160405280600181526020017f2c00000000000000000000000000000000000000000000000000000000000000815250846153df909392919063ffffffff16565b9050614f0d6040805190810160405280600b81526020017f226661726d73416464223a000000000000000000000000000000000000000000815250614ec685604001516040805190810160405280600181526020017f22000000000000000000000000000000000000000000000000000000000000008152506040805190810160405280600181526020017f220000000000000000000000000000000000000000000000000000000000000081525061533f9092919063ffffffff16565b6040805190810160405280600181526020017f2c00000000000000000000000000000000000000000000000000000000000000815250846153df909392919063ffffffff16565b90506150126040805190810160405280600981526020017f22636f77566172223a0000000000000000000000000000000000000000000000815250614fcb85606001516040805190810160405280600181526020017f22000000000000000000000000000000000000000000000000000000000000008152506040805190810160405280600181526020017f220000000000000000000000000000000000000000000000000000000000000081525061533f9092919063ffffffff16565b6040805190810160405280600181526020017f2c00000000000000000000000000000000000000000000000000000000000000815250846153df909392919063ffffffff16565b90506151176040805190810160405280600c81526020017f22636f77536f75726365223a00000000000000000000000000000000000000008152506150d085608001516040805190810160405280600181526020017f22000000000000000000000000000000000000000000000000000000000000008152506040805190810160405280600181526020017f220000000000000000000000000000000000000000000000000000000000000081525061533f9092919063ffffffff16565b6040805190810160405280600181526020017f2c00000000000000000000000000000000000000000000000000000000000000815250846153df909392919063ffffffff16565b905061521c6040805190810160405280600a81526020017f2266656564417175223a000000000000000000000000000000000000000000008152506151d58560a001516040805190810160405280600181526020017f22000000000000000000000000000000000000000000000000000000000000008152506040805190810160405280600181526020017f220000000000000000000000000000000000000000000000000000000000000081525061533f9092919063ffffffff16565b6040805190810160405280600181526020017f2c00000000000000000000000000000000000000000000000000000000000000815250846153df909392919063ffffffff16565b90506152ea6040805190810160405280600b81526020017f22666565644e616d65223a0000000000000000000000000000000000000000008152506152da8560c001516040805190810160405280600181526020017f22000000000000000000000000000000000000000000000000000000000000008152506040805190810160405280600181526020017f220000000000000000000000000000000000000000000000000000000000000081525061533f9092919063ffffffff16565b8361533f9092919063ffffffff16565b90506153346040805190810160405280600181526020017f7d0000000000000000000000000000000000000000000000000000000000000081525082613f0490919063ffffffff16565b905080915050919050565b615347615538565b6000806000806000865188518a5101016040518059106153645750595b9080825280601f01601f19166020018201604052509550602089019450602088019350602087019250602086019150600090506153a5818301868b5161549f565b8851810190506153b9818301858a5161549f565b8751810190506153cd81830184895161549f565b86518101905050505050509392505050565b6153e7615538565b600080600080600080875189518b518d510101016040518059106154085750595b9080825280601f01601f1916602001820160405250965060208b01955060208a0194506020890193506020880192506020870191506000905061544f818301878d5161549f565b8a5181019050615463818301868c5161549f565b895181019050615477818301858b5161549f565b88518101905061548b818301848a5161549f565b875181019050505050505050949350505050565b60005b6020821015156154c757825184526020840193506020830192506020820391506154a2565b6001826020036101000a0390508019835116818551168181178652505050505050565b60a0604051908101604052806154fe615790565b815260200161550b615790565b8152602001615518615790565b8152602001615525615790565b8152602001615532615790565b81525090565b602060405190810160405280600081525090565b8154818355818115116155735781836000526020600020918201910161557291906157a4565b5b505050565b828054600181600116156101000203166002900490600052602060002090601f016020900481019282601f106155b957805160ff19168380011785556155e7565b828001600101855582156155e7579182015b828111156155e65782518255916020019190600101906155cb565b5b5090506155f491906157d0565b5090565b60e06040519081016040528061560c615790565b8152602001615619615790565b8152602001615626615790565b8152602001615633615790565b8152602001615640615790565b815260200161564d615790565b815260200161565a615790565b81525090565b8154818355818115116156875781836000526020600020918201910161568691906157d0565b5b505050565b60c0604051908101604052806156a0615790565b81526020016156ad615790565b81526020016156ba615790565b81526020016156c7615790565b81526020016156d4615790565b81526020016156e1615790565b81525090565b6080604051908101604052806156fb615790565b8152602001615708615790565b8152602001615715615790565b8152602001615722615790565b81525090565b60e06040519081016040528061573c615790565b8152602001615749615790565b8152602001615756615790565b8152602001615763615790565b8152602001615770615790565b815260200161577d615790565b815260200161578a615790565b81525090565b602060405190810160405280600081525090565b6157cd91905b808211156157c957600081816157c091906157f5565b506001016157aa565b5090565b90565b6157f291905b808211156157ee5760008160009055506001016157d6565b5090565b90565b50805460018160011615610100020316600290046000825580601f1061581b575061583a565b601f01602090049060005260206000209081019061583991906157d0565b5b505600a165627a7a72305820eaee5769e2501d022010e8936e1e7317f3d88bb6f104a0c5f916c45ace79adc80029",
  "source": "pragma solidity ^0.4.19;\r\nimport './Account.sol';\r\n\r\nimport \"./utils/LibString.sol\";\r\nimport \"./utils/LibInt.sol\";\r\n\r\ncontract Info is Account{\r\n    using LibString for *;\r\n    using LibInt for *;\r\n\r\n    // 生产商部分数据的上链和获取\r\n    struct ProduceInfo{\r\n        // 养殖场代号id\r\n        string farmsID;\r\n        // 养殖场名称；\r\n        string farmsName;\r\n        // 养殖厂地址；\r\n        string farmsAdd;\r\n        // 奶牛品种；\r\n        string cowVar;\r\n        // 奶牛来源\r\n        string cowSource;\r\n        // 养殖饲料；\r\n        string feedAqu;\r\n        // 饲料喂养人；\r\n        string feedName;\r\n    }\r\n    // 挤奶阶段数据\r\n    struct MilkingInfo {\r\n        // 挤奶地址编号\r\n        string milkingAddrCode;\r\n        // 挤奶员；\r\n        string milkingUser;\r\n        // 挤奶卫生情况\r\n        string milkingEnv;\r\n        // 挤奶时间\r\n        string milkingTime;\r\n    }\r\n\r\n    // 加工阶段信息\r\n    struct ProcessInfo {\r\n        // 加工地址代号\r\n        string processAddr;\r\n        // 加工员\r\n        string processName;\r\n        // 加工时间\r\n        string processTime;\r\n        // 包装地址代号\r\n        string balingAddr;\r\n        // 包装员\r\n        string balingName;\r\n        // 加工工艺和设备\r\n        string equiSkil;\r\n    }\r\n\r\n    // 存储与物流阶段数据\r\n    struct StoreExpressInfo{\r\n        // 仓库地址代码\r\n        string storeAddr;\r\n        // 仓储操作员\r\n        string storeName;\r\n        // 入库时间\r\n        string storageTime;\r\n        // 出库时间\r\n        string retirTime;\r\n        // 承运人\r\n        string transName;\r\n        // // 运输单号\r\n        string transCode;\r\n        // // 运输时间\r\n        string transTime;\r\n    }\r\n    // 销售部分数据\r\n    struct SellInfo{\r\n        // 销售单号\r\n        string sellCode;\r\n        // 销售员\r\n        string sellName;\r\n        // 销售日期\r\n        string sellTime;\r\n        // 销售地址\r\n        string sellAddr;\r\n        // 保质期\r\n        string produDate;\r\n    }\r\n\r\n    // id与对应得 上传溯源信息；\r\n    // 各身份得id数组；\r\n    mapping(string => string) idToProduce;  //用json的格式代替了\r\n    string[] public produceId;\r\n    // string[] public proJson;\r\n\r\n    mapping(string => string) idToMilking;\r\n    string[] public milkingId;\r\n    // string[] public milkJson;\r\n\r\n\r\n    mapping(string => string) idToProcess;\r\n    string[] public processId;\r\n    // string[] public processJson;\r\n\r\n    mapping(string => string) idToStoreExpress;\r\n    string[] public storeExpressId;\r\n    // string[] public storeExpressJson;\r\n\r\n    mapping(string => string) idToSell;\r\n    string[] public sellId;\r\n    // string[] public sellJson;\r\n\r\n\r\n    // 数据上链成功事件定义\r\n    // event ProduceDateAdded(string _ID, string _farmsID, string _farmsName, string _farmsAdd, string _cowVar, string _cowSource, string _feedAqu, string _feedName);\r\n    event ProduceDateAdded(string _ID, uint _index);\r\n    // event MilkingDateAdded(string _ID, string _milkingAddrCode, string _milkingUser, string _milkingEnv, string _milkingTime);\r\n    event MilkingDateAdded(string _ID, uint _index);\r\n    // event ProcessDateAdded(string _ID, string _processAddr, string _processName, string _processTime, string _balingAddr, string _balingName, string _equiSkil);\r\n    event ProcessDateAdded(string _ID, uint _index);\r\n    // event StoreExpressDateAdded(string _ID, string _storeAddr, string _storeName, string _storageTime, string _retirTime, string _transName, string _transCode, string _transTime);\r\n    event StoreExpressDateAdded(string _ID, uint _index);\r\n    // event SellDateAdded(string _ID, string _sellCode, string _sellName, string _sellTime, string _sellAddr, string _produDate);\r\n    event SellDateAdded(string _ID, uint _index);\r\n\r\n    // 5位补零前置补零\r\n    function _paddingZero(uint _num) public view returns(string){\r\n        string memory _ret;\r\n        uint _temp = _num;\r\n        uint _count = 5;\r\n        while(_temp>=1){\r\n            _temp = _temp/10;\r\n            _count--;\r\n        }\r\n        for (uint i = 1; i<=_count; i++){\r\n            _ret = _ret.concat(\"0\");\r\n        }\r\n        return _ret.concat(_num.toString());\r\n\r\n    }\r\n\r\n    // 设置生产者信息\r\n    function _setProduceInfo(string _farmsID, string _farmsName, string _farmsAdd, string _cowVar, string _cowSource, string _feedAqu, string _feedName) public {\r\n        // require(PRODUCE.equals(addressToIdentity[msg.sender].identity));\r\n        uint _id = _createId();\r\n        ProduceInfo memory produceOne = ProduceInfo(_farmsID, _farmsName, _farmsAdd, _cowVar, _cowSource, _feedAqu, _feedName);\r\n        // id转成字符串添加进去；\r\n        string memory _produceId = _paddingZero(_id);\r\n        produceId.push(_produceId);\r\n        // 数据转成json 加入到 mapping 得idToProduce中\r\n        string memory _temp = proJson2(produceOne);\r\n        idToProduce[_produceId] = _temp;\r\n        // ProduceDateAdded(_produceId, _farmsID, _farmsName, _farmsAdd, _cowVar, _cowSource, _feedAqu, _feedName);\r\n        ProduceDateAdded(_produceId, 1);\r\n    }\r\n\r\n    function getProlength() public returns(uint){\r\n        return produceId.length;\r\n    }\r\n    function getProJsonbyID(string _id) public returns(string _json){\r\n        return idToProduce[_id];\r\n    }\r\n\r\n    function proJson1(ProduceInfo _self, uint _id) internal returns(string) {\r\n        // 拼接成这样  ： '{\"id\":\"281401138014041\",\"farmsID\":\"12\",\"farmsName\":\"fad\",\"farmsAdd\":\"a\",\"cowVar\":\"adf\",\"cowSource\":\"a\"}'\r\n        string memory _json = '{';\r\n        _json = _json.concat('\"id\":','\"'.concat(_id.toString(),'\"') ,',');\r\n        _json = _json.concat('\"farmsID\":', '\"'.concat(_self.farmsID,'\"'),',');\r\n        _json = _json.concat('\"farmsName\":', '\"'.concat(_self.farmsName,'\"'),',');\r\n        _json = _json.concat('\"farmsAdd\":', '\"'.concat(_self.farmsAdd,'\"'),',');\r\n        _json = _json.concat('\"cowVar\":', '\"'.concat(_self.cowVar,'\"'),',');\r\n        _json = _json.concat('\"cowSource\":', '\"'.concat(_self.cowSource,'\"'),',');\r\n        _json = _json.concat('\"feedAqu\":', '\"'.concat(_self.feedAqu,'\"'),',');\r\n        _json = _json.concat('\"feedName\":', '\"'.concat(_self.feedName,'\"'));\r\n        _json = _json = _json.concat('}');\r\n        return _json;\r\n    }\r\n\r\n    function proJson2(ProduceInfo _self) internal returns(string){\r\n        // 拼接成这样  ： '{\"281401138014041\":{\"farmsID\":\"12\",\"farmsName\":\"fad\",\"farmsAdd\":\"a\",\"cowVar\":\"adf\",\"cowSource\":\"a\"}}'\r\n        string memory _json = '{';\r\n        _json = _json.concat('\"farmsID\":', '\"'.concat(_self.farmsID,'\"'),',');\r\n        _json = _json.concat('\"farmsName\":', '\"'.concat(_self.farmsName,'\"'),',');\r\n        _json = _json.concat('\"farmsAdd\":', '\"'.concat(_self.farmsAdd,'\"'),',');\r\n        _json = _json.concat('\"cowVar\":', '\"'.concat(_self.cowVar,'\"'),',');\r\n        _json = _json.concat('\"cowSource\":', '\"'.concat(_self.cowSource,'\"'),',');\r\n        _json = _json.concat('\"feedAqu\":', '\"'.concat(_self.feedAqu,'\"'),',');\r\n        _json = _json.concat('\"feedName\":', '\"'.concat(_self.feedName,'\"'));\r\n        _json = _json.concat('}');\r\n        return _json;\r\n    }\r\n    \r\n    // 设置jinai环节信息\r\n    function _setMilkingInfo(string _produceId, string _milkingAddrCode, string _milkingUser, string _milkingEnv, string _milkingTime) public {\r\n        // require(MILKING.equals(addressToIdentity[msg.sender].identity));\r\n        uint _id = _createId();\r\n        MilkingInfo memory milkOne = MilkingInfo(_milkingAddrCode, _milkingUser, _milkingEnv, _milkingTime);\r\n        // 组合id并加入到数组中；\r\n        string memory _milkId = _paddingZero(_id).concat(_produceId);\r\n        milkingId.push(_milkId);\r\n        // 数据转成json加入到 mapping 得idToMilking中\r\n        string memory _temp = milkJson2(milkOne);\r\n        idToMilking[_milkId] = _temp;\r\n        MilkingDateAdded(_milkId, 1);\r\n    }\r\n    function getMilklength() public returns(uint){\r\n        return milkingId.length;\r\n    }\r\n    function getMilkJsonbyID(string _id) public returns(string _json){\r\n        return idToMilking[_id];\r\n    }\r\n\r\n    function milkJson1(MilkingInfo _self, uint _id) internal returns(string) {\r\n        // 拼接成这样  ： '{\"id\":\"281401138014041\",\"farmsID\":\"12\",\"farmsName\":\"fad\",\"farmsAdd\":\"a\",\"cowVar\":\"adf\",\"cowSource\":\"a\"}'\r\n        string memory _json = '{';\r\n        _json = _json.concat('\"id\":','\"'.concat(_id.toString(),'\"') ,',');\r\n        _json = _json.concat('\"milkingAddrCode\":', '\"'.concat(_self.milkingAddrCode,'\"'),',');\r\n        _json = _json.concat('\"milkingUser\":', '\"'.concat(_self.milkingUser,'\"'),',');\r\n        _json = _json.concat('\"milkingEnv\":', '\"'.concat(_self.milkingEnv,'\"'),',');\r\n        _json = _json.concat('\"milkingTime\":', '\"'.concat(_self.milkingTime,'\"'));\r\n        _json = _json = _json.concat('}');\r\n        return _json;\r\n    }\r\n\r\n    function milkJson2(MilkingInfo _self) internal returns(string){\r\n        // 拼接成这样  ： '{\"281401138014041\":{\"farmsID\":\"12\",\"farmsName\":\"fad\",\"farmsAdd\":\"a\",\"cowVar\":\"adf\",\"cowSource\":\"a\"}}'\r\n        string memory _json = '{';\r\n        _json = _json.concat('\"milkingAddrCode\":', '\"'.concat(_self.milkingAddrCode,'\"'),',');\r\n        _json = _json.concat('\"milkingUser\":', '\"'.concat(_self.milkingUser,'\"'),',');\r\n        _json = _json.concat('\"milkingEnv\":', '\"'.concat(_self.milkingEnv,'\"'),',');\r\n        _json = _json.concat('\"milkingTime\":', '\"'.concat(_self.milkingTime,'\"'));\r\n        _json = _json.concat('}');\r\n        return _json;\r\n    }\r\n\r\n    // // 设置加工环节的信息\r\n    function _setProcessInfo(string _milkId, string _processAddr, string _processName, string _processTime, string _balingAddr, string _balingName, string _equiSkil) public {\r\n        // require(PROCESS.equals(addressToIdentity[msg.sender].identity));\r\n        uint _id = _createId();\r\n        ProcessInfo memory processOne = ProcessInfo(_processAddr, _processName, _processTime, _balingAddr, _balingName, _equiSkil);\r\n        // 组合id并加入到数组中\r\n        string memory _processId = _paddingZero(_id).concat(_milkId);\r\n        processId.push(_processId);\r\n        // 上传数据转换成json并加入到 mapping得 idToProcess\r\n        string memory _temp = processJson2(processOne);\r\n        idToProcess[_processId] = _temp;\r\n        ProcessDateAdded(_processId, 1);\r\n    }\r\n    function getProcesslength() public returns(uint){\r\n        return processId.length;\r\n    }\r\n    function getProcessJsonbyID(string _id) public returns(string _json){\r\n        return idToProcess[_id];\r\n    }\r\n\r\n    function processJson1(ProcessInfo _self, uint _id) internal returns(string) {\r\n        // 拼接成这样  ： '{\"id\":\"281401138014041\",\"farmsID\":\"12\",\"farmsName\":\"fad\",\"farmsAdd\":\"a\",\"cowVar\":\"adf\",\"cowSource\":\"a\"}'\r\n        string memory _json = '{';\r\n        _json = _json.concat('\"id\":','\"'.concat(_id.toString(),'\"') ,',');\r\n        _json = _json.concat('\"processAddr\":', '\"'.concat(_self.processAddr,'\"'),',');\r\n        _json = _json.concat('\"processName\":', '\"'.concat(_self.processName,'\"'),',');\r\n        _json = _json.concat('\"processTime\":', '\"'.concat(_self.processTime,'\"'),',');\r\n        _json = _json.concat('\"balingAddr\":', '\"'.concat(_self.balingAddr,'\"'),',');\r\n        _json = _json.concat('\"balingName\":', '\"'.concat(_self.balingName,'\"'),',');\r\n        _json = _json.concat('\"equiSkil\":', '\"'.concat(_self.equiSkil,'\"'));\r\n        _json = _json = _json.concat('}');\r\n        return _json;\r\n    }\r\n\r\n    function processJson2(ProcessInfo _self) internal returns(string){\r\n        // 拼接成这样  ： '{\"281401138014041\":{\"farmsID\":\"12\",\"farmsName\":\"fad\",\"farmsAdd\":\"a\",\"cowVar\":\"adf\",\"cowSource\":\"a\"}}'\r\n        string memory _json = '{';\r\n        _json = _json.concat('\"processAddr\":', '\"'.concat(_self.processAddr,'\"'),',');\r\n        _json = _json.concat('\"processName\":', '\"'.concat(_self.processName,'\"'),',');\r\n        _json = _json.concat('\"processTime\":', '\"'.concat(_self.processTime,'\"'),',');\r\n        _json = _json.concat('\"balingAddr\":', '\"'.concat(_self.balingAddr,'\"'),',');\r\n        _json = _json.concat('\"balingName\":', '\"'.concat(_self.balingName,'\"'),',');\r\n        _json = _json.concat('\"equiSkil\":', '\"'.concat(_self.equiSkil,'\"'));\r\n        _json = _json.concat('}');\r\n        return _json;\r\n    }\r\n\r\n\r\n    // // 设置包装物流环节信息\r\n    function _setStoreExpressInfo(string _commodityId, string _storeAddr, string _storeName, string _storageTime, string _retirTime, string _transName, string _transCode, string _transTime) public {\r\n        // require(STOREEXPRESS.equals(addressToIdentity[msg.sender].identity));\r\n        StoreExpressInfo memory storeExpressOne = StoreExpressInfo(_storeAddr, _storeName, _storageTime, _retirTime, _transName, _transCode, _transTime);\r\n        // 并不需要组合id了，已经是一个完整得商品；直接加入商品数组\r\n        storeExpressId.push(_commodityId);\r\n        string memory _temp = storeExpressJson2(storeExpressOne);\r\n        // 数据转换成json加入到 mapping得 idToStoreExpress\r\n        idToStoreExpress[_commodityId] = _temp; \r\n        StoreExpressDateAdded(_commodityId, 1);\r\n    }\r\n\r\n    function getStoreExpresslength() public returns(uint){\r\n        return storeExpressId.length;\r\n    }\r\n    function getStoreExpressJsonbyID(string _id) public returns(string _json){\r\n        return idToStoreExpress[_id];\r\n    }\r\n\r\n    function storeExpressJson1(StoreExpressInfo _self, uint _id) internal returns(string) {\r\n        // 拼接成这样  ： '{\"id\":\"281401138014041\",\"farmsID\":\"12\",\"farmsName\":\"fad\",\"farmsAdd\":\"a\",\"cowVar\":\"adf\",\"cowSource\":\"a\"}'\r\n        string memory _json = '{';\r\n        _json = _json.concat('\"id\":','\"'.concat(_id.toString(),'\"') ,',');\r\n        _json = _json.concat('\"storeAddr\":', '\"'.concat(_self.storeAddr,'\"'),',');\r\n        _json = _json.concat('\"storeName\":', '\"'.concat(_self.storeName,'\"'),',');\r\n        _json = _json.concat('\"storageTime\":', '\"'.concat(_self.storageTime,'\"'),',');\r\n        _json = _json.concat('\"retirTime\":', '\"'.concat(_self.retirTime,'\"'),',');\r\n        _json = _json.concat('\"transName\":', '\"'.concat(_self.transName,'\"'),',');\r\n        _json = _json.concat('\"transCode\":', '\"'.concat(_self.transCode,'\"'),',');\r\n        _json = _json.concat('\"transTime\":', '\"'.concat(_self.transTime,'\"'));\r\n        _json = _json = _json.concat('}');\r\n        return _json;\r\n    }\r\n\r\n    function storeExpressJson2(StoreExpressInfo _self) internal returns(string){\r\n        // 拼接成这样  ： '{\"281401138014041\":{\"farmsID\":\"12\",\"farmsName\":\"fad\",\"farmsAdd\":\"a\",\"cowVar\":\"adf\",\"cowSource\":\"a\"}}'\r\n        string memory _json = '{';\r\n        _json = _json.concat('\"storeAddr\":', '\"'.concat(_self.storeAddr,'\"'),',');\r\n        _json = _json.concat('\"storeName\":', '\"'.concat(_self.storeName,'\"'),',');\r\n        _json = _json.concat('\"storageTime\":', '\"'.concat(_self.storageTime,'\"'),',');\r\n        _json = _json.concat('\"retirTime\":', '\"'.concat(_self.retirTime,'\"'),',');\r\n        _json = _json.concat('\"transName\":', '\"'.concat(_self.transName,'\"'),',');\r\n        _json = _json.concat('\"transCode\":', '\"'.concat(_self.transCode,'\"'),',');\r\n        _json = _json.concat('\"transTime\":', '\"'.concat(_self.transTime,'\"'));\r\n        _json = _json.concat('}');\r\n        return _json;\r\n    }\r\n    \r\n    // // // 设置销售环节信息\r\n    function _setSellInfo(string _commodityId, string _sellCode, string _sellName, string _sellTime, string _sellAddr, string _produDate) public {\r\n        // require(SELL.equals(addressToIdentity[msg.sender].identity));\r\n        SellInfo memory sellOne = SellInfo(_sellCode, _sellName, _sellTime, _sellAddr, _produDate);\r\n        // // 并不需要组合id了，已经是一个完整得商品；直接加入商品数组\r\n        sellId.push(_commodityId);\r\n        string memory _temp = sellJson2(sellOne);\r\n        // 数据转换成json加入到 mapping得 idToSell\r\n        idToSell[_commodityId] = _temp; \r\n        SellDateAdded(_commodityId, 1);\r\n    }\r\n\r\n    function getSelllength() public returns(uint){\r\n        return sellId.length;\r\n    }\r\n    function getSellJsonbyID(string _id) public returns(string _json){\r\n        return idToSell[_id];\r\n    }\r\n\r\n    function sellJson1(SellInfo _self, uint _id) internal returns(string) {\r\n        // 拼接成这样  ： '{\"id\":\"281401138014041\",\"farmsID\":\"12\",\"farmsName\":\"fad\",\"farmsAdd\":\"a\",\"cowVar\":\"adf\",\"cowSource\":\"a\"}'\r\n        string memory _json = '{';\r\n        _json = _json.concat('\"id\":','\"'.concat(_id.toString(),'\"') ,',');\r\n        _json = _json.concat('\"sellCode\":', '\"'.concat(_self.sellCode,'\"'),',');\r\n        _json = _json.concat('\"sellName\":', '\"'.concat(_self.sellName,'\"'),',');\r\n        _json = _json.concat('\"sellTime\":', '\"'.concat(_self.sellTime,'\"'),',');\r\n        _json = _json.concat('\"sellAddr\":', '\"'.concat(_self.sellAddr,'\"'),',');\r\n        _json = _json.concat('\"produDate\":', '\"'.concat(_self.produDate,'\"'));\r\n        _json = _json = _json.concat('}');\r\n        return _json;\r\n    }\r\n\r\n    function sellJson2(SellInfo _self) internal returns(string){\r\n        // 拼接成这样  ： '{\"281401138014041\":{\"farmsID\":\"12\",\"farmsName\":\"fad\",\"farmsAdd\":\"a\",\"cowVar\":\"adf\",\"cowSource\":\"a\"}}'\r\n        string memory _json = '{';\r\n        _json = _json.concat('\"sellCode\":', '\"'.concat(_self.sellCode,'\"'),',');\r\n        _json = _json.concat('\"sellName\":', '\"'.concat(_self.sellName,'\"'),',');\r\n        _json = _json.concat('\"sellTime\":', '\"'.concat(_self.sellTime,'\"'),',');\r\n        _json = _json.concat('\"sellAddr\":', '\"'.concat(_self.sellAddr,'\"'),',');\r\n        _json = _json.concat('\"produDate\":', '\"'.concat(_self.produDate,'\"'));\r\n        _json = _json.concat('}');\r\n        return _json;\r\n    }\r\n    \r\n}",
  "sourcePath": "C:\\Users\\keruisiya\\Desktop\\溯源实践\\合约练习\\truffle-vue-master\\contracts\\Info.sol",
  "compiler": {
    "name": "solc",
    "version": "0.4.19+commit.c4cbbb05.Emscripten.clang"
  },
  "schemaVersion": "3.0.23",
  "updatedAt": "2021-01-09T02:20:29.693Z",
  "networkType": "ethereum",
  "devdoc": {
    "methods": {
      "transferOwnership(address)": {
        "details": "Allows the current owner to transfer control of the contract to a newOwner.\r",
        "params": {
          "newOwner": "The address to transfer ownership to.\r"
        }
      }
    }
  },
  "userdoc": {
    "methods": {}
  }
}