{
  "contractName": "Utils",
  "abi": [
    {
      "constant": true,
      "inputs": [
        {
          "name": "_str1",
          "type": "string"
        },
        {
          "name": "_str2",
          "type": "string"
        }
      ],
      "name": "isStrEqual",
      "outputs": [
        {
          "name": "",
          "type": "bool"
        }
      ],
      "payable": false,
      "stateMutability": "pure",
      "type": "function"
    },
    {
      "constant": true,
      "inputs": [],
      "name": "_createId",
      "outputs": [
        {
          "name": "",
          "type": "uint256"
        }
      ],
      "payable": false,
      "stateMutability": "view",
      "type": "function"
    }
  ],
  "bytecode": "0x6060604052620186a0600055341561001657600080fd5b61026a806100256000396000f30060606040526004361061004c576000357c0100000000000000000000000000000000000000000000000000000000900463ffffffff1680631ea47a1014610051578063d4cbd9d41461007a575b600080fd5b341561005c57600080fd5b610064610132565b6040518082815260200191505060405180910390f35b341561008557600080fd5b610118600480803590602001908201803590602001908080601f0160208091040260200160405190810160405280939291908181526020018383808284378201915050505050509190803590602001908201803590602001908080601f01602080910402602001604051908101604052809392919081815260200183838082843782019150505050505091905050610165565b604051808215151515815260200191505060405180910390f35b600080426040518082815260200191505060405180910390206001900490506000548181151561015e57fe5b0691505090565b6000816040518082805190602001908083835b60208310151561019d5780518252602082019150602081019050602083039250610178565b6001836020036101000a038019825116818451168082178552505050505050905001915050604051809103902060001916836040518082805190602001908083835b60208310151561020457805182526020820191506020810190506020830392506101df565b6001836020036101000a038019825116818451168082178552505050505050905001915050604051809103902060001916149050929150505600a165627a7a7230582087fd3d045331119aa5d9026085675ff32cc116465165e0cbc30ea045deff11b10029",
  "source": "pragma solidity ^0.4.17;\r\n\r\ncontract Utils {\r\n\r\n    // 生成随机，用来取余数得\r\n    uint modulus = 10 ** 5;\r\n\r\n    // 判断字符串是否相等\r\n    function isStrEqual(string _str1, string _str2) public pure  returns(bool){\r\n       return keccak256(_str1) == keccak256(_str2);\r\n    }\r\n\r\n     //基于当前时间生成一个id；\r\n    function _createId() public view returns(uint){\r\n        uint rand = uint(keccak256(now));\r\n        return rand % modulus;\r\n    }\r\n    \r\n}",
  "sourcePath": "C:\\Users\\keruisiya\\Desktop\\溯源实践\\合约练习\\truffle-vue-master\\contracts\\Utils.sol",
  "compiler": {
    "name": "solc",
    "version": "0.4.19+commit.c4cbbb05.Emscripten.clang"
  },
  "schemaVersion": "3.0.23",
  "updatedAt": "2021-01-09T02:20:22.547Z",
  "devdoc": {
    "methods": {}
  },
  "userdoc": {
    "methods": {}
  }
}